:020000040800F2
:100000004034002015030008B7270008A12200088B
:1000100029270008791D0008B14B000800000000E6
:10002000000000000000000000000000153500087E
:10003000C91F000800000000A52C000801370008B7
:100040002F0300082F0300082F0300082F030008C8
:100050002F0300082F030008CD1F0008012000080F
:100060002F0300082F030008352000082F03000885
:100070002F0300082F0300082F0300082F03000898
:100080002F0300082F0300082F0300082F03000888
:100090002F0300082F0300082F0300085920000831
:1000A0002F0300082F0300082F0300082F03000868
:1000B0002F0300082F0300082F0300082F03000858
:1000C0002F0300082F0300082F0300082F03000848
:1000D0002F0300082F0300082F0300082F03000838
:1000E0002F0300082F0300082F0300082F03000828
:1000F0002F0300082F0300082F0300082F03000818
:100100002F0300082F030008813700082F03000881
:100110002F0300082F0300082F0300082F030008F7
:100120002F0300082F0300082F0300082F030008E7
:100130002F0300082F0300082F0300082F030008D7
:100140002F0300082F0300082F0300082F030008C7
:100150002F0300082F0300082F0300082F030008B7
:100160002F0300082F0300082F0300082F030008A7
:100170002F0300082F0300082F0300082F03000897
:100180002F0300082F03000800F002F800F0B2F877
:100190000AA090E8000C82448344AAF10107DA45E2
:1001A00001D100F0A7F8AFF2090EBAE80F0013F082
:1001B000010F18BFFB1A43F00103184788570000CE
:1001C000A85700000A444FF0000C10F8013B13F050
:1001D000070408BF10F8014B1D1108BF10F8015BA0
:1001E000641E05D010F8016B641E01F8016BF9D193
:1001F00013F0080F1EBF10F8014BAD1C0C1B09D1EA
:100200006D1E58BF01F801CBFAD505E014F8016B5B
:1002100001F8016B6D1EF9D59142D6D370470000ED
:100220000023002400250026103A28BF78C1FBD8FF
:10023000520728BF30C148BF0B6070476E2900F0DD
:100240005B83702900F05981662904F03B8665299B
:1002500004F03886672904F03586612904F0348675
:1002600003681B0A28BF41F08001692900F0CA8099
:10027000642900F0C780752900F0C4806F2900F060
:100280004186782900F02581E92900F0DB85E42901
:1002900000F0D885F52900F0D585EF2900F03E86DD
:1002A000F82900F024810368DB0928BF41F08001B0
:1002B000632901F07780732901F07C80E32901F044
:1002C0008780F32901F08C80002070471FB504F06F
:1002D000F4FD00F055FE04000020002104F060FD54
:1002E000401C60600020002104F044FDE0601FBD60
:1002F00010B510BD01F00AF91146FFF7E7FF04F051
:1003000091FC01F031F903B4FFF7F2FF03BC01F0F7
:1003100071F900000948804709480047FEE7FEE7F9
:10032000FEE7FEE7FEE7FEE7FEE7FEE7FEE7FEE7A5
:1003300004480549054A064B704700001937000874
:1003400089010008402E0020403400204030002069
:10035000403000207CB51D4616460C00009001D0B0
:100360002044401E074B7B442A4669460190304694
:1003700000F0E9FC05461CB10020694600F0F6FCDF
:1003800028467CBD0D0A00000FB41CB5084B06AA18
:100390007B4469460090059800F0D5FC0446002097
:1003A000694600F0E3FC20461CBC5DF814FB00002D
:1003B000D909000070B5044685690068C10601D5F9
:1003C000302600E02026C00707D070BDD4E9012107
:1003D00030469047206A401C20626D1EF6D570BDE5
:1003E00070B5044685690078C00707D170BDD4E9AF
:1003F000012120209047206A401C20626D1EF6D506
:1004000070BD00002DE9F0410646002410687529F2
:10041000314616A510D000F0DBF9002802DA404280
:1004200013A507E031688A0701D512A502E0490744
:1004300004D511A5012401E000F0D3F900210A221E
:1004400006F1240709E0B0FBF2FCB0FBF2F302FB7B
:100450001C00303078541846491C0028F3D123463C
:100460002A463046BDE8F04100F0EDB9000000003A
:100470002D0000002B00000020000000F0B40D460D
:100480000188090502D5214C7C4402E01F4C7C44C4
:100490000E34002100F1240608E002F00F071209D3
:1004A000E75D42EA03721B097754491C52EA0307CD
:1004B000F3D102780023120704D5702D06D009B1BC
:1004C000022311342246F0BC00F0BDB901231034E0
:1004D000F8E770B504460D462146106800F081F932
:1004E000024629462046BDE870400023C6E7D21DDB
:1004F00022F00703D3E90023C0E70368126843F042
:10050000200303600823C3610023B7E7B85300004A
:100510002DE9F05F894604464FF0000ADFF874B118
:10052000FB44C0F820A02046E1688847002874D02A
:10053000252806D0D4E901219047206A401C20627A
:10054000F1E700265F462046E168884720280546F7
:1005500007DB312D05D2781910F8200C08B10643BD
:10056000F1E7B00701D526F00406C4F81CA0002767
:10057000C4F818A02A2D09D0284604F033FB38B35C
:1005800004EB8708303DC8F8185019E059F8041BEF
:10059000204604EB87029161E1688847012F0546F8
:1005A00018D1E069002820DA26F020061DE0D8F8EE
:1005B000180000EB800005EB40003038C8F8180048
:1005C0002046E1688847054604F00CFB0028EED180
:1005D000012F0AD02E2D08D12046E16888477F1CC4
:1005E0000546022F46F02006C4DBA069002803DA86
:1005F000404246F00106A061F00701D026F0100647
:100600006C2D0BD0682D09D04C2D39D06A2D35D0EA
:10061000742D35D07A2D33D016E038E0E1682F46BE
:1006200020468847B842054609D16C2F26D04FF4A2
:100630008060E168064320468847054604E06C2F49
:100640001AD04FF4807006430DB3A5F1410019286C
:1006500002D8203546F400664A46294620462660E0
:100660004E46FFF7EBFD80B101280BD0F61D26F0BA
:10067000070000F1080956E74020E4E78020D8E7AA
:100680000020D6E706F104094DE7284652E7206A24
:10069000BDE8F09F48530000032A40F2308010F07C
:1006A000030C00F0158011F8013BBCF1020F62440D
:1006B00098BF11F801CB00F8013B38BF11F8013B9E
:1006C000A2F1040298BF00F801CB38BF00F8013B4B
:1006D00011F0030300F02580083AC0F0088051F8BB
:1006E000043B083A51F804CBA0E80810F5E7121DC6
:1006F0005CBF51F8043B40F8043BAFF30080D207E5
:1007000024BF11F8013B11F801CB48BF11F8012BB0
:1007100024BF00F8013B00F801CB48BF00F8012BD3
:10072000704710B5203AC0F00B80B1E81850203A5D
:10073000A0E81850B1E81850A0E81850BFF4F5AF81
:100740005FEA027C24BFB1E81850A0E8185044BF0B
:1007500018C918C0BDE810405FEA827C24BF51F878
:10076000043B40F8043B08BF7047D20728BF31F86C
:10077000023B48BF11F8012B28BF20F8023B48BFBD
:1007800000F8012B70474FF000020429C0F01280DE
:1007900010F0030C00F0CE83CCF1040CBCF1020F7E
:1007A00018BF00F8012BA8BF20F8022BA1EB0C0109
:1007B00000F0C0BB5FEAC17C24BF00F8012B00F849
:1007C000012B48BF00F8012B7047704770477047F6
:1007D00009684A0501D540B27047C905FCD500B289
:1007E000704709684A0501D5C0B27047C905FCD5F4
:1007F00080B2704770B50C460546012A05D02878AE
:10080000800600D5EA69002302E0012305E05B1CB5
:10081000934202D2E05C0028F9D1A869E618C01A18
:10082000A861286A184428622846FFF7C3FD04E03F
:10083000D5E9012114F8010B9047B442F8D32846BA
:10084000FFF7CEFD70BD2DE9F0470D469946924663
:10085000044600F124080168880604D5E06921F007
:100860001001216000E00120A84201DD471B00E0EB
:100870000027A1697A1902EB0900081AA061207803
:10088000C00602D42046FFF795FD002608E0D4E913
:1008900001211AF806009047206A401C761C20624D
:1008A0004E45F4DB2078C0060AD52046FFF782FDCE
:1008B00006E0D4E9012130209047206A401C2062E4
:1008C000381EA7F10107F4DC07E0D4E9012118F88C
:1008D00005009047206A401C2062281EA5F10105F2
:1008E000F3DC2046FFF77CFD2078000602D50220CD
:1008F000BDE8F0870120FBE711680268006A530534
:1009000001D508700AE0D30501D5088006E013067A
:1009100003D5C217C1E9000200E00860012070475A
:1009200070472DE9FF4F0C461E464FF0FF378BB046
:10093000D2E90001DDF860800A908A46C1F30A55C9
:1009400005B93D46002108464FF00000BAF1000FFE
:1009500000F4400005DA00EB80004FF4400101EAAA
:1009600050004FEA9059B9F1010F00DDB9460A98DD
:1009700050EA4A000ED044F61050A5F2FF35454328
:100980002F14B8F1000F1ED07542291E1EDDC9F1CB
:1009900000021CE0B8F1010F4FF0000001D030213F
:1009A00003E0F24305E02154401CB042FBDB30463B
:1009B0000022002121540B99C1F80880C1E90020D0
:1009C0000FB0BDE8F08FBD1B6D1CDEE74A4600DAB4
:1009D000694206A800F008FD06AB93E8070003ABE8
:1009E00083E8070050460A9900F00BFE8DE80700E7
:1009F000A0F500501F3800900398002D09DD42F249
:100A00001F014A46084403A90390684601F06AF8AA
:100A100008E0A0F500504A461F3803A90390684635
:100A200001F074F88DE807000004000C03D04FF0CB
:100A3000FF30410800E01046B8F1000F03D000225B
:100A4000009215461EE0751E05D400F09DFA303266
:100A500062556D1EF9D5B3460122084302D000222B
:100A60007F1C04E02078302801D100227F1E002A5C
:100A7000099786D01DE0112D07DA00F085FA303293
:100A800062556D1C50EA0102F5D1084302D000986E
:100A9000C8B10EE00021681E05E0235C625C63546F
:100AA0002254401E491C8142F7DBAB46A81B401E66
:100AB0000990002004F80B000B98099AC0F80880F0
:100AC000C0E9002B7CE711264FF0000859E72DE91B
:100AD000F04F88460446D21D22F0070191B0D1E9BB
:100AE0000001CDE90A0104F065F802460B98C00F39
:100AF00001D02D2007E02068810701D52B2002E0DE
:100B0000202101EAC000032A099001D0072A05DB51
:100B100003464146204600F0FBFB0BE120788006AF
:100B200001D5E06900E00620B8F1650F814606D0E6
:100B3000B8F1660F18D0B8F1670F70D131E000201E
:100B4000B9F1110F009001DB112301E009F101035C
:100B50000AAA01A90CA8FFF7E4FEDDE90C70002643
:100B600009F10105834647E001204B4600904FF014
:100B700000470AAA01A90CA8FFF7D3FEDDE90DB0D2
:100B80000C995D46002610B909F101000D18B9EB6A
:100B9000050003D4C0F1FF3609F10105A5EB0900FA
:100BA0002BE0B9F1010F01DA4FF001090020B9F192
:100BB000110F0090484601DD112300E003460AAA08
:100BC00001A90CA8FFF7ADFEDDE90C704D4600262B
:100BD0008346207800070AD4AB4500DA5D4601A8B9
:100BE000012D04DD411911F8011C302907D04F45B2
:100BF00002DA17F1040F04DA012082460FE06D1EBD
:100C0000EEE7002F02DCED1B3E4403E0781CA84217
:100C100000DD7D1CB81B00F1010A4FF00047207871
:100C2000000703D4AA4501DB4FF0FF3A0021B7F1DA
:100C3000004F0DF143088DF8431024D002202B23E0
:100C4000002F01DA7F422D230A21021EA0F10100AC
:100C500000DC5FB197FBF1FC97FBF1F201FB1C7C20
:100C600017460CF1300C08F801CDEEE7A8F10100B1
:100C700003702188090501D5452100E06521A0F117
:100C8000010800F8011C09980FA9A1EB0807FF1D36
:100C900000B10120411901EBEA70A1693844081A3A
:100CA000401EA0612078C00602D42046FFF782FBD8
:100CB000099828B1D4E901219047206A401C20629C
:100CC0002078C00622D52046FFF774FB1EE0002ED8
:100CD00004DBB34502DD01A8805D00E03020D4E9EB
:100CE00001219047206A401C2062761CAAF1010075
:100CF0005FEA000A0AD100F043F9C0680168405C6D
:100D0000D4E901219047206A401C2062281EA5F1E9
:100D10000105DCDC07E0D4E9012118F8010B90475C
:100D2000206A401C2062381EA7F10107F3DC204630
:100D3000FFF756FB032011B043E6000001694A1C8F
:100D400002610878704700B58FB0CDE9013100210C
:100D5000059105497944CDE9031011466846FFF72E
:100D6000D7FB0FB000BD0000E5FFFFFF0A6802F8E7
:100D7000010B0A607047D1E900239A4202D2531C4A
:100D80000B601070704700002DE9FF5F15468A4622
:100D90000446DFF8AC80F8440027D8E900103E464E
:100DA000CDE9001010E03AF816106A4602A800F0EB
:100DB00089FB411C07D02178890603D5E2693918DF
:100DC00091420DD80744761C2078800602D5E06950
:100DD000B84205DDAE42E6DB3AF816000028E2D163
:100DE000A069C01BA0612046FFF7E4FAD8E9001013
:100DF000CDE90010002017E03AF818106A4602A862
:100E000000F060FBB0F1FF3F81460BD000250DF1F3
:100E1000080B05E0D4E901211BF8050090476D1C83
:100E20004D45F7D308F10100B0428046E4DB206A6B
:100E3000384420622046FFF7D3FABDE8FF9F000048
:100E4000E64A00002DE9F0418046D21D22F007025B
:100E50000025D2E90002F52915A614D0011E72F171
:100E6000000106DA0023D0EB030063EB020211A6B7
:100E700008E0D8F800108B0701D50FA602E049075B
:100E800001D50EA601251146002408F1240704E02F
:100E900000F07AF830323A55641C50EA0102F7D17A
:100EA0002B46324621464046BDE8F041FFF7CBBC19
:100EB000000000002D0000002B00000020000000BA
:100EC00030B4002100F1240408E002F00705D20844
:100ED000303542EA4372DB086554491C52EA030587
:100EE000F3D10468002310A2250708D504F02004DC
:100EF0000C4304D0C46901230CA2641EC46130BC3D
:100F0000FFF7A1BC10B5044621461068FFF769FC45
:100F100002462046BDE810400023D1E7D21D22F052
:100F20000701D1E90023CBE70000000030000000FA
:100F30004FF0000200B5134694469646203922BF72
:100F4000A0E80C50A0E80C50B1F12001BFF4F7AFBD
:100F5000090728BFA0E80C5048BF0CC05DF804EB9F
:100F6000890028BF40F8042B08BF704748BF20F80D
:100F7000022B11F0804F18BF00F8012B70470000C2
:100F800000487047FC2D002030B5B0F10A024FEA4E
:100F9000900E71F100034EEA817EB0EB0E0061EB22
:100FA00091014FEA101E4EEA017E10EB0E0041EB5C
:100FB00011114FEA102E4EEA016E10EB0E0041EBBC
:100FC00011214FEA104E4EEA014E10EB0E0041EB9C
:100FD0001141401841F100014FEAD00040EA417050
:100FE0004FEAD10110EB80054FEA810444EA907486
:100FF00044EB01046D1944EB0404521BA3414FF070
:10100000000348BF0A3200D530BD401C41F1000149
:1010100030BD00002DE9F04F04460D46D21D22F0F0
:10102000070089B0D0E9009248461746394603F0D8
:10103000C1FD0246F80F01D02D2307E0206881078B
:1010400001D52B2302E0202101EAC0038DF82030D6
:101050000BB1012000E00020032A824601D0072ABC
:1010600004DB2946204600F053F93DE12078800654
:1010700001D40D2500E0E569C7F30A560D2D49DAC4
:1010800000214FEA175B08464FF00000002F00F4E4
:10109000400007DA00EB80004FF4400100EBD07015
:1010A00001EA60008115012901DD4FF0FF310022C6
:1010B0004FEA850CBCF1180F06D31346ACF11800AB
:1010C0004FF08052C24003E04FF4801323FA0CF338
:1010D0000CF10C0CBCF1200F04D3ACF1200C09FA7C
:1010E0000CF001E007FA0CF000294FF0004801DD98
:1010F00018B90FE00ED140450CD319EB02095F413E
:1011000021B9404502D19F4329EA0209BBEB175F91
:1011100000D0761C2088000502D57B48784402E088
:1011200079487844193808AA302302F80A30037C39
:101130000AF10101002E0AF1020A53546A4602DC48
:101140004FF0300101E04FF031014FF001088DF810
:10115000001002D0A6F2FF3603E059EA470100D0A2
:101160006A4E002D02DC2178090704D54FF00208F1
:101170002E218DF80110C44600210BE0C7F3034374
:101180003F01C35C491C6D1E02F80830052908F1B7
:10119000010801DA002DF1DC00210CE000EB1973ED
:1011A000491C1B786D1E082902F808304FEA0919FE
:1011B00008F1010801DA002DF0DC2178890602D55A
:1011C00014E0A8F10108E04505DD02EB080111F883
:1011D000011C3029F5D0B8F1000F07DD02EB080142
:1011E00011F8011C2E2901D1A8F10108002D05DDFF
:1011F0003E2102F808106D1E08F10108407C002E07
:1012000002F8080008F1010804DA2D20764202F8FD
:10121000080002E02B2002F808000A214FF47A703F
:10122000864208F101080BDB96FBF0F3303302F83D
:10123000083096FBF0F308F1010800FB136601E0AB
:10124000642E0CDB642096FBF0F3303302F8083098
:1012500096FBF0F308F1010800FB136601E00A2E8B
:1012600006DB96FBF1F0303002F8080008F10108C7
:1012700096FBF1F001FB1060303002F80800A16924
:1012800008F1010808EB050202EB0A00081AA06148
:101290002078C00602D42046FFF78CF8216A08AEF9
:1012A00001EB0A00206204E0D4E9012116F8010BE9
:1012B0009047BAF1010AF7D22078C00602D520463D
:1012C000FFF778F86E4609E016F8010B3E280FD0BC
:1012D000D4E901219047206A401C2062B8F101083E
:1012E000F2D22046FFF77CF809B00320BDE8F08F6A
:1012F000206A2844206203E0D4E90121302090478D
:101300006D1EEBD3F8E700007B47000002FCFFFFF7
:101310002DE9F0411F46044603260168072A01F41F
:10132000006004DB08B116A505E016A503E008B1CE
:1013300015A500E015A521F010002060A069C01ED1
:10134000A0610FB1401EA0612046FFF733F84FB1F6
:10135000D4E9012138469047206A401C2062C01C15
:10136000206206E0206AFAE7D4E9012115F8010BB2
:101370009047761EF8D22046FFF732F8BDE8F0819C
:101380004E414E006E616E00494E4600696E660029
:1013900010B5436913B1AFF3008001E0FFF72AFAFB
:1013A000012010BD127800F124010A7000224A7059
:1013B0000122EDE711684FF0FF32E9E710B543690C
:1013C00013B1AFF3008001E0FFF7DEFC012010BD98
:1013D000128800F1240182840022C2840122EDE7F8
:1013E00011684FF0FF32E9E72DE9F04781461646D4
:1013F0008AB0334878440DC88DE80D0030487844F1
:10140000801C03AC0DC884E80D0041F69B300844F5
:10141000372190FBF1F290FBF1F5A5F1800501FB7E
:1014200012041B3C02D56442012000E00020DFF8DA
:1014300090A080460027FA44AAF1BE0A0DE0E0071A
:1014400009D03246684607EB47010AEB810100F0FC
:101450005DFB8DE8070064107F1C002CEFD1184F56
:101460007F44AC3F18E0E80714D007EB04100DF1FF
:10147000180A90E80E008AE80E00C068F04201D118
:1014800098190890324606A903A800F03FFB03AB69
:1014900083E807006D10641C002DE4D132466946D4
:1014A000B8F1000F03A802D000F01CFB01E000F02F
:1014B0002DFBC9E90001C9F808200AB0BDE8F08792
:1014C0003445000070B516460C46054600F044F859
:1014D000036893F80101012806D0FF2C0FD8185D8E
:1014E00068B101202C7070BDD3F807013246214647
:1014F00003F2071303442846BDE8704018474FF035
:10150000FF3070BD00487047DC2D00207546FFF7A6
:10151000F9FFAE4605006946534620F007008546B0
:1015200018B020B5FEF704FFBDE820404FF00006DC
:101530004FF000074FF000084FF0000B21F00701BB
:10154000AC46ACE8C009ACE8C009ACE8C009ACE8FE
:10155000C0098D467047000010B5FFF711FD001D52
:1015600010BD00BF3D3800000446AFF300802046A8
:10157000FEF7C9FE4FF0013C50F8042B51F8043B34
:101580009A4221D1A2EB0C03934313EACC1317D157
:1015900050F8042B51F8043B9A4215D1A2EB0C03EE
:1015A000934313EACC130BD150F8042B51F8043BAE
:1015B0009A4209D1A2EB0C03934313EACC13DBD07C
:1015C0004FF00000704700BFD01A01BAB1FA81F1A4
:1015D00001F0180122FA01F0CB40C1F12001DBB289
:1015E000C0B2C01A2CFA01F3D11A914311EAC31107
:1015F000E6D1704701491820ABBEFEE72600020085
:1016000070475FEA400C08BF91F0000F4FEA8C234F
:101610004FEAC12243EA51514FEA1C5018BF00F56E
:10162000F0404FEA300018BF41F000415FEA6C5CC7
:1016300000F02980BCF1FF3F08BF40F080407047B8
:10164000130C06BF12044FF0100C4FF0000C130ED9
:1016500004BF12020CF1080C130F04BF12010CF1AD
:10166000040C930F04BF92000CF1020CD30F04BFC3
:1016700052000CF1010C11464FF00002A0F11F00C6
:10168000A0EB0C00704711F0004F08BF704731F01D
:1016900000413FF4D5AF0B0C06BF09044FF0100C0E
:1016A0004FF0000C0B0E04BF09020CF1080C0B0FDD
:1016B00004BF09010CF1040C8B0F04BF89000CF16D
:1016C000020CCB0F04BF49000CF1010CCCF120033C
:1016D000A0EB0C0022FA03F302FA0CF241EA030138
:1016E00000F10100704720F07F4C80EA030023F0F6
:1016F0007F47ACEB070303F57C5300F0004003F198
:10170000FF032DE980494FEA154B09B44FEA144312
:1017100025EA0B4E24EA03480FF2042606EB1327B2
:1017200049083E785FEA320203FB0667C7F5000707
:1017300007FB06F64FEA54374FEAD64606F1020693
:1017400007FB066CCCF1005C4FEA1C472CEA074C07
:1017500007FB06F40CFB06F504EB15464FEA96165C
:1017600034BF00204FF000404FEAD13706FB07FCA2
:101770004FEA1C4C0CFB0BF7D21B03FB0CF761EB85
:1017800007010CFB0EF7B0EB074072EB17420CFBA6
:1017900008F734BFA2EB0742B2EB074261EB1741F7
:1017A0004FEA0C444FEA910706FB07FC4FEA1C4C3A
:1017B0000CFB0BF7B0EBC74072EB573203FB0CF797
:1017C00034BFA2EBC742B2EBC74261EB57310CFB0F
:1017D0000EF7B0EBC70072EB57720CFB08F734BF83
:1017E000A2EBC702B2EBC70261EB5771039F4FEA4E
:1017F000816141EA921104EBCC044FEAD1374FEA00
:10180000826206FB07FC42EA90124FEA80604FEAD0
:101810001C4C0CFB0BF7D21B03FB0CF761EB070115
:101820000CFB0EF7B0EB074072EB17420CFB08F70E
:1018300034BFA2EB0742B2EB074261EB17414FEA1C
:101840008C554FEA910704EB9C2406FB07FC4FEAFA
:101850001C4C0CFB0BF7B0EBC74072EB573203FB91
:101860000CF734BFA2EBC742B2EBC74261EB573172
:101870000CFB0EF7B0EBC70072EB57720CFB08F7CE
:1018800034BFA2EBC702B2EBC70261EB577115EB95
:101890004C254FEA816141EA92114FEA82624FEA98
:1018A000D13742EA901206FB07FC44F100044FEAEC
:1018B00080604FEA1C4C0CFB0BF7D21B03FB0CF7B0
:1018C00061EB07010CFB0EF7B0EB074072EB174220
:1018D0000CFB08F734BFA2EB0742B2EB074261EB07
:1018E000174115EB1C154FEA813141EA92414FEA4D
:1018F000823242EA90424FEA80304FEA0C7644F15D
:10190000000448EA03434EEA0B484FF0000EB2EBE6
:10191000080C71EB030724BF624639464EEB0E0EEE
:101920004FF0000B0018524149414BEB0B0BB2EB4F
:10193000080C71EB03077BF1000B24BF62463946AC
:101940004EEB0E0E4FF0000B0018524149414BEB8D
:101950000B0BB2EB080C71EB03077BF1000B24BF00
:10196000624639464EEB0E0E51EA020718BF46F0AA
:10197000010616EB0E7655F1000254F1000103D575
:10198000BDE88901BDE80088BDE88901BDE80048DF
:10199000B619524141EB0101A3F101037047808068
:1019A0007F7E7D7C7B7A79787776767574737271B9
:1019B00071706F6E6E6D6C6C6B6A6A696868676671
:1019C00066656464636362616160605F5F5E5E5D03
:1019D0005D5C5C5B5B5A5A59595858575756565577
:1019E00055555454535352525251515050504F4FD9
:1019F0004F4E4E4D4D4D4C4C4C4B4B4B4A4A4A4929
:101A0000494948484847474747464646454545446B
:101A10004444444343434342424242414141002BF8
:101A200026D4770021D01CB54FEA370703B44FF016
:101A300010004FF010014FF000000FBCBDE8104047
:101A40000BF1010BBBF1010F08BF5FEA170722BFC3
:101A500012F1010211F101014FF0004143F10003C5
:101A600000F0004043EA00007047F9D35708DAE776
:101A700046EA064613F1400F4FEA16461FDD13F102
:101A8000200FDFBF16430A46002120335B42C8D037
:101A9000C3F1200746EA064602FA07F74FEA164660
:101AA00046EA0706C3F1200722FA03F201FA07F714
:101AB00021FA03F14FF0000342EA0702B1E746EAD8
:101AC000020646EA06464FEA164646EA0106BCBF4B
:101AD00046EA0646360C4FF000034FF000024FF086
:101AE00000019EE72DE9C048934630B491E83800E4
:101AF00007C831EA400C48BF34EA430C03D5FFF76E
:101B0000F2FDFFF78CFFF0BCBDE800882DE9C0486E
:101B1000934630B491E8380007C810F0804F08BFF2
:101B200013F0804F03D100F005F8FFF778FFF0BC09
:101B3000BDE8008820F07F4780EA030023F07F4C57
:101B400007EB0C03A3F57C5300F00040A3F1FE0368
:101B500092F0000F00F0B38095F0000F00F0778056
:101B60002DE901494FEA11404FEA144621EA0048A5
:101B700000FB06FC24EA064708FB06F607FB08F80C
:101B800000FB07F718EB06484CEB164C4FEA124BDC
:101B900018EB07484FEA15464CEB174022EA0B4E6C
:101BA0000BFB06FC25EA06470EFB06F607FB0EFEBE
:101BB0000BFB07F71EEB064E4CEB164C4FF00006E6
:101BC0001EEB074E4CEB174B18EB0B0840F10000D7
:101BD00018EB0E0B58EB000840F100008F1A4FF085
:101BE00000013CBFC943661B14BFB5EB040C0021C8
:101BF0003CBFC943F61B4FEA17444EEA8E0E27EA54
:101C000004454FEA1C4704FB07622CEA074C05FB1E
:101C100007F70CFB05F604FB0CFC16EB074642EB42
:101C2000174216EB0C4642EB1C421BEB060658EB28
:101C30000202414146EA9E0601D5BDE80189B61976
:101C4000524141EB0101A3F10103BDE801894FEAD3
:101C500014454FEA114724EA054621EA074C05FBE3
:101C600007F406FB07F70CFB06F105FB0CFC11EB78
:101C7000074144EB17444FEA124711EB0C4144EB88
:101C80001C4422EA074C05FB07F206FB07F70CFB96
:101C900006F605FB0CFC16EB074642EB174216EB6B
:101CA0000C4642EB1C456A1854F1000148BF7047CE
:101CB000B619524141EB0101A3F10103704795F0C0
:101CC000000F37D04FEA11424FEA144721EA02468B
:101CD00024EA074C02FB07F106FB07F70CFB06F4AE
:101CE00002FB0CFC14EB074441EB17414FEA15478C
:101CF00014EB0C4441EB1C4125EA074C02FB07F5B1
:101D000006FB07F70CFB06F602FB0CFC16EB07467E
:101D100045EB174516EB0C4645EB1C42121951F1E9
:101D2000000148BF7047B619524141EB0101A3F1D0
:101D3000010370474FEA14454FEA114724EA05466C
:101D400021EA074C05FB07F106FB07F70CFB06F23F
:101D50004FF0000605FB0CFC12EB074241EB17416C
:101D600012EB0C4251EB1C4148BF7047921841EBFB
:101D70000101A3F10103704700BFFEE70246094BD2
:101D80009A4201D2084801E00648103801F0005399
:101D90001BB1064B0B40C36002E0044B0B40836059
:101DA0007047000010640240006002407D0F7D0F0C
:101DB00021B1026842F00102026003E0026822F0F1
:101DC0000102026070470000016821F0010101601A
:101DD0000021016041608160C16001612121416198
:101DE0004A49884204D13D21484A103A91608CE02A
:101DF00046491831884205D14FF47461434A103A7C
:101E0000916082E041493031884205D14FF474112C
:101E10003E4A103A916078E03C494831884205D109
:101E20004FF07461394A103A91606EE03749603181
:101E3000884204D13649354A103AD16065E03349C9
:101E40007831884204D13349304A103AD1605CE09D
:101E50002E499031884204D12F492C4A103AD16042
:101E600053E02A49A831884205D14FF03D51274A15
:101E7000103AD16049E02949884204D13D21274ADE
:101E8000083A116041E025491831884205D14FF4E4
:101E90007461224A083A116037E0204930318842A3
:101EA00005D14FF474111D4A083A11602DE01B4909
:101EB0004831884205D14FF07461184A083A1160E0
:101EC00023E016496031884204D11149134A121F98
:101ED00011601AE011497831884204D10D490F4A46
:101EE000121F116011E00D499031884204D10A4956
:101EF0000A4A121F116008E00849A831884204D13B
:101F00004FF03D51054A121F1160704710600240AA
:101F10003D000020400F002000003D2010640240E2
:101F20000146486880B2704730B503460A46002033
:101F300000240B4DAB4201D20A4901E00849103997
:101F400002F000550DB14C6800E00C68064D2C40C5
:101F500004EA02050DB1012000E0002030BD0000C0
:101F600010640240006002407D0F7D0F10B500221A
:101F70000268134B1A40CC680B6823434C69234317
:101F80008C692343CC6923430C6A23434C6A234363
:101F90008C6A23434C6B23438C6B23431A430260AC
:101FA000426922F00702D1E90B3423431A4342610C
:101FB0000B6943604B6883608B68C36010BD000091
:101FC0003F801CF0416070477047000010B5012051
:101FD00000F05AF860B10748807930B9012005490E
:101FE00088710548006805490860012000F046F83E
:101FF00010BD00009C2D0020840500207C050020E1
:1020000010B5022000F040F860B10748C07930B93F
:1020100001200549C871054800680549086002208B
:1020200000F02CF810BD00009C2D0020840500203D
:102030008005002010B5102000F026F840B10548BA
:10204000407910B9012003494871102000F016F8BA
:1020500010BD00009C2D002010B5202000F014F8C9
:1020600040B10548007910B90120034908712020CA
:1020700000F004F810BD00009C2D0020014908600C
:1020800070470000143C014001460020034A1268DA
:102090000A400AB1012000E000207047143C0140D2
:1020A000002123498279002A3AD00A46126803683F
:1020B0009A430B461A600A1D126803689A430B1D67
:1020C0001A60027911440A6803681A430A60184AC0
:1020D0000832126803689A43154B08331A601A1DB8
:1020E000126803689A43124B0C331A604279102A23
:1020F0000ED11A1F126803681A430D4B08331A6079
:102100001A1D126803681A43094B0C331A600DE05C
:102110000749427911440A6803681A430A6005E0D6
:10212000027911440A6803689A430A607047000004
:10213000003C0140F0B50A4600210023002400BF06
:102140003DE0012505FA01F3156805EA03049C4208
:1021500034D105684F000326BE40B54305601579AC
:102160004E00B5400668354305601579012D02D053
:102170001579022D16D185684F000326BE40B54360
:10218000856055794E00B540866835438560456861
:1021900001268E40B5434560456896798E40B6B2BB
:1021A00035434560C5684F000326BE40B543C56052
:1021B000D5794E00B540C6683543C560491C102925
:1021C000BFD3F0BDF0B5002300244D07ED0E02FA99
:1021D00005F3CE1000F1200555F826504E07F70EF6
:1021E0000F26BE40B543CF1000F1200646F8275019
:1021F000CE1000F1200555F8265045EA0304CE1014
:1022000000F1200545F82640F0BD41837047018369
:10221000704710B500F004F9882000F0CDF800F008
:102220004BF9232000F0C8F800F046F9222000F016
:10223000C3F800F041F900F019F910BD1CB50121F7
:10224000042000F009FE0121082000F005FE4020D6
:10225000009001208DF8040000208DF80600032076
:102260008DF8050001208DF8070069460848FFF742
:1022700061FF4FF40050009069460648FFF75AFF8F
:102280000120054908600549C1F898021CBD0000FD
:1022900000080240000C0240B4824142000041426A
:1022A00000BFFEE710B500200F4908600F48006826
:1022B00020F440500D4908600846006840F4805002
:1022C000086000200A49C1F89802022002F0A0FC30
:1022D000012005490860022002F09AFC002005490F
:1022E000C1F8B40210BD0000B482414200080240AF
:1022F000000041420080414210B500200F490860B3
:102300000F48006820F440500D49086008460068F6
:1023100040F48050086001200A49C1F89802022068
:1023200002F076FC012005490860022002F070FCF2
:1023300000200549C1F8B40210BD0000B48241423A
:1023400000080240000041420080414270B505464D
:1023500000241548006820F44050134908600846DE
:1023600000680860002615E000201049086002207F
:1023700002F04EFC01200E49C1F8B4026006040EC2
:102380000C48006808B1601CC4B2012002F040FC97
:10239000701CC6B2082EE7DB15B9FFF7ADFF01E0F0
:1023A000FFF780FF204670BD00080240B482414222
:1023B000008041421802414270B50446144800684A
:1023C00020F44050124908600846006840F48050EC
:1023D000086000200F490860002516E0E0090E495A
:1023E00008606006040E022002F012FC01200B4976
:1023F000C1F8B402022002F00BFC0020054908607D
:10240000022002F005FC681CC5B2082DE6DB70BD99
:1024100000080240B4824142980241420080414299
:1024200010B50F48006820F440500D490860084678
:10243000006840F48050086001200A4908600A4999
:10244000C1F8B402042002F0E3FB00200549086053
:10245000042002F0DDFB00200349C1F8B40210BDE6
:1024600000080240980241420080414210B50F48E6
:10247000006820F440500D4908600846006840F4A8
:102480008050086000200A4908600A49C1F8980293
:10249000042002F0BDFB0120054908600549C1F890
:1024A0009802042002F0B4FB10BD000000080240B6
:1024B000B48241420000414210B500241248006835
:1024C00020F4405010490860084600680860012068
:1024D0000E49086002F09CFB01200D49C1F8B402CE
:1024E00002F096FB07E0601CC4B2FA2C03DDFFF794
:1024F000BDFF012010BD0548803800680028F2D1DA
:102500000449086000BFF5E7000802409802414214
:1025100000804142B48241424CF6CC4001490860FF
:10252000704700000030004010B500F013F810BDF7
:1025300010B545F2555000F021F8052000F012F8D2
:102540004FF47A6000F014F800F004F8FFF7E4FFAD
:1025500010BD00004AF6AA2001490860704700003B
:1025600000300040014948607047000000300040E2
:102570000149886070470000003000400149086050
:1025800070470000003000401048807901280BD1CE
:102590000F4801680F4800681430814204D90120B7
:1025A0000A490872002088710848C07901280BD1B7
:1025B00007480168084800681430814204D90120A6
:1025C000024948720020C871704700009C2D00200D
:1025D000840500207C0500208005002000B585B022
:1025E0000121062000F038FC0121880300F054FC92
:1025F0000320039000208DF810008DF811000120B9
:102600008DF8130003A92C48FFF794FD30200390A8
:1026100003A92A48FFF78EFD0421022000F07CFF69
:102620000521022000F078FF0021012000F074FF56
:102630000121084600F070FF1020009000208DF866
:10264000040008208DF8050001208DF8060068467A
:10265000FFF726FD202000906846FFF721FD0120AE
:1026600000906846FFF71CFD022000906846FFF7C7
:1026700017FD0A208DF8080002208DF809000120BE
:102680008DF80A008DF80B0002A800F095F81720CD
:102690008DF8080002A800F08FF806208DF80800D9
:1026A00002A800F089F807208DF8080002A800F0C1
:1026B00083F805B000BD000000040240000802409D
:1026C00010B516480088B0F57A7F02DB0020144967
:1026D00008701248008810B901201149087010488C
:1026E000007828B10D480088401C0C49088004E09F
:1026F0000A480088401E094908800848018809489E
:1027000001F01EFA05480188064801F01BFA03484B
:102710000188044801F018FA10BD00002A000020CA
:102720002C0000200000014000BFFEE73EB541F64E
:10273000FF740121080700F09FFB012000F0ACFAB4
:10274000002000F043FD45F25001884231D00120C5
:1027500000F046FC04E0601C84B20A2002F04AFA51
:10276000612000F01DFC0028F5D00CB901203EBD11
:102770004FF4007000F040FC012000F037FC7F2097
:102780000190FF20029000200090684600F0ECFCD1
:10279000402300222F21152000F006FE07230222ED
:1027A0000821142000F0EEFD45F25001002000F059
:1027B0003DFE0020DBE7704770B5002100230F22AB
:1027C000C4781CB3174C246804F4E064C4F5E064D6
:1027D000C4F30721C1F10404E3B20A4144789C40E8
:1027E000E1B28478144021430C07210E0E4C057889
:1027F0006155047804F01F050124AC4005786D1183
:10280000AD0005F1E025C5F8004109E0047804F0C9
:102810001F050124AC40054D0678761145F8264089
:1028200070BD00000CED00E000E400E080E100E09D
:1028300002490143024A1160704700000000FA0596
:102840000CED00E070B5002419E004F1B001C8B24D
:10285000002100F053F90021084600F04FF9002153
:10286000102000F04BF9002505E00121002000F0C8
:1028700045F9681CC5B2802DF7DB601CC4B2082C7A
:10288000E3DB70BD10B500218D2000F037F9002189
:10289000142000F033F90021AF2000F02FF910BD13
:1028A0001CB50121022000F0D7FA4FF478400090C7
:1028B00001208DF8040000208DF8060003208DF81B
:1028C000050069460448FFF735FC4FF4784102489B
:1028D000FFF79DFC1CBD00000004024010B5FFF78F
:1028E000DFFF4FF400614E48FFF791FC642002F0D7
:1028F00081F94FF400614A48FFF787FC642002F039
:1029000079F94FF400614648FFF781FC4FF4FA7003
:1029100002F070F90021FD2000F0F0F800211220F3
:1029200000F0ECF80021AE2000F0E8F80021D520FE
:1029300000F0E4F80021A02000F0E0F80021A82039
:1029400000F0DCF800213F2000F0D8F80021D3206F
:1029500000F0D4F80021084600F0D0F80021402013
:1029600000F0CCF80021A12000F0C8F80021C82018
:1029700000F0C4F80021DA2000F0C0F800210220A5
:1029800000F0BCF80021084600F0B8F80021D5207E
:1029900000F0B4F80021802000F0B0F80021D92028
:1029A00000F0ACF80021F12000F0A8F80021DA20B6
:1029B00000F0A4F80021122000F0A0F800218120EE
:1029C00000F09CF80021BF2000F098F80021D920E9
:1029D00000F094F80021252000F090F80021DB2081
:1029E00000F08CF80021342000F088F80021A420A9
:1029F00000F084F80021A62000F080F80021AF202C
:102A000000F07CF80021AF2000F078F8FFF71AFF03
:102A10000021084600F006F8FFF734FF10BD000063
:102A20000004024070B504460D4605F1B001C8B27D
:102A3000002100F063F8102141EA1410002100F099
:102A40005DF804F00F0141F00100002100F056F89C
:102A500070BD00002DE9F04107460E469046002566
:102A60000024A8F12000C5B27F2F02DD0027B01C92
:102A7000C6B231463846FFF7D5FF002408E004EB24
:102A800005110F4A505C012100F038F8601CC4B2F7
:102A9000082CF4DB701CC1B23846FFF7C3FF0024DA
:102AA00009E004EB05110831054A505C012100F0F2
:102AB00025F8601CC4B2082CF3DBBDE8F0810000EF
:102AC000545200082DE9F04104460F4615460026F1
:102AD0000EE0AA5D39462046FFF7BCFF04F108006E
:102AE000C4B2782C02DD0024B81CC7B2701CC6B278
:102AF000A85D0028EDD1BDE8F081000070B5044666
:102B00000E462EB14FF480411C48FFF780FB04E0D5
:102B10004FF480411948FFF778FB4FF48051174874
:102B2000FFF773FB00251BE04FF400511348FFF73C
:102B30006CFB04F0800028B14FF400410F48FFF710
:102B400066FB04E04FF400410C48FFF75EFB4FF4D6
:102B500000510A48FFF75BFB6006040E681CC5B213
:102B6000082DE1DB4FF480510448FFF750FB4FF490
:102B700080410248FFF74BFB70BD0000000402409B
:102B800000B58BB00121084600F086F90121102024
:102B900000F062F94FF4F040099002208DF828000F
:102BA00003208DF8290000208DF82A008DF82B00D5
:102BB00009A93748FFF7BEFA01220B213448FFF775
:102BC00001FB01220C213248FFF7FCFA01220D2102
:102BD0002F48FFF7F7FA01220E212D48FFF7F2FAEE
:102BE000A720ADF818000020ADF81A0040F2E73039
:102BF00007900020ADF820008DF8220006A9254896
:102C000000F0A4FF6020ADF804000120ADF806003C
:102C10000420ADF808000020ADF810000820ADF841
:102C200012004FF4FA7003904FF48070ADF8140066
:102C30000020ADF8160001A9164800F07BFE4FF405
:102C4000FA70039001A9134800F0D4FE4FF4FA7013
:102C5000039001A90F4800F027FF08210D4800F05C
:102C6000BBFE08210B4800F015FF0821094800F0C1
:102C700057FF0121074800F019FE0121054800F027
:102C800024FE0121034800F02CFE0BB000BD000023
:102C90000010024000000140014908627047000036
:102CA00000000E427047000000B52DED028B8BB086
:102CB0001B48807801282ED100201949887000F027
:102CC000C3FB184890ED010A10EE101A084602F0F6
:102CD00083F841EC180B53EC182B13A101A8FDF756
:102CE00053FB01AA04210020FFF7ECFE0D4890EDF4
:102CF000020A10EE101A084602F06EF841EC180BAA
:102D000053EC182B0CA101A8FDF73EFB01AA0621EC
:102D10000020FFF7D7FE0BB0BDEC028B00BD00001A
:102D20009C2D0020A82D0020542020203A25322E52
:102D30003266204300000000524820203A25322EFF
:102D4000326620252500000070B505460C46FA2C99
:102D500003DA2146284601F0F5FC70BD10B50446A3
:102D6000204601F06BF810BD10B50446204601F076
:102D700019FA10BD70B504460E461546FA2D00DD51
:102D8000FA2520786178884204D1A078202801D1E2
:102D9000002070BD6178201D00EB01200570627875
:102DA000211D01EB0221481C2A463146FDF774FC27
:102DB0006078401C00F01F006070A078401CA0707C
:102DC0000220E6E710B5094A09490A4800F019F857
:102DD000022809D105480178054801F061F84FF44F
:102DE00080710348FDF7CFFC10BD000030000020CB
:102DF00031000020900B0020002101704170817093
:102E0000704770B504460E461546207861788842B2
:102E100003D1A07808B9012070BD2178201D00EBF6
:102E20000120007828702878FA2801DDFA2028701F
:102E30002A782378201D00EB0320411C3046FDF743
:102E40002BFC2078401C00F01F002070A078401E52
:102E5000A0700220E0E7000029B1064A1268024390
:102E6000044B1A6004E0034A12688243014B1A6063
:102E7000704700003038024029B1064A1268024308
:102E8000044B1A6004E0034A12688243014B1A6043
:102E9000704700004038024029B1064A12680243D8
:102EA000044B1A6004E0034A12688243014B1A6023
:102EB0007047000044380240F0B500210022002491
:102EC000022500260223324F3F6807F00C0121B192
:102ED000042905D0082937D105E02E4F076036E0D8
:102EE0002D4F076033E02A4F3F1F3F68C7F38056DE
:102EF000274F3F1F3F6807F03F036EB1264FB7FBD8
:102F0000F3F7DFF88CC0ACF1040CDCF800C0CCF3B4
:102F1000881C07FB0CF40CE01E4FB7FBF3F7DFF83F
:102F200070C0ACF1040CDCF800C0CCF3881C07FBCB
:102F30000CF4174F3F1F3F68C7F301477F1C7D000C
:102F4000B4FBF5F7076002E0124F076000BF00BF57
:102F50000F4F3F6807F0F0010909104F7A5C0768CE
:102F6000D74047600A4F3F6807F4E051890A0B4F8A
:102F70007A5C4768D7408760054F3F6807F4604137
:102F8000490B064F7A5C4768D740C760F0BD000028
:102F9000083802400024F40000127A0000000020EB
:102FA00010B501460022002300204A11012A02D157
:102FB0000A4C236808E0022A03D1084C70342368C5
:102FC00002E0064C7434236801F01F02012494408F
:102FD0001C400CB1012000E0002010BD0038024070
:102FE0000149086070470000800E474201490860AF
:102FF000704700003C0E4742002100F44072B2F5D9
:10300000407F08D1094A116821F4F811084A0240AA
:103010001143064A1160054A68321268C0F30B0377
:103020001A43024B68331A607047000008380240A8
:10303000FFFCFF0F014600BF080900EB80004200C3
:1030400001F00F001044C0B270470146002204E0B6
:10305000501CC2B2A1F10A00C1B20A29F8DA100765
:1030600041EA10607047000008B50022009200207D
:103070000021104A126802F04002CAB9421E0D4BEC
:103080001A6000BF0B4A126802F04001009A521CFD
:103090000092009AB2F5803F01D00029F2D0054A93
:1030A000126802F040020AB1012002E0002000E0B4
:1030B000012008BD0C2800400348006820F0800073
:1030C00001490860704700000C28004070B50646B2
:1030D0000C4600250E4800680E4900EA0105280C40
:1030E000E070C5F30420607005F03F00A070C5F3E8
:1030F000423020705EB9E078FFF79CFFE0706078A6
:10310000FFF798FF6070A078FFF794FFA07070BD84
:10311000042800403FFFFF0070B506460C4600251E
:103120000F4800680F4900EA0105C5F3054020700B
:10313000C5F30620607005F07F00A07005F48000E4
:10314000000CE0705EB92078FFF774FF20706078A3
:10315000FFF770FF6070A078FFF76CFFA07070BD84
:10316000002800407F7F7F0030B504460025CA203C
:103170001549086053200860FFF776FF00B91DE08D
:1031800011481C38006820F040000F491C390860C5
:1031900008460068216808430B491C3908600A4941
:1031A0001439A068086008460068A18840EA014018
:1031B000054914390860FFF77FFF0125FF20024908
:1031C0000860284630BD00002428004008B50146AC
:1031D0000020009004480090009800EB81000090CF
:1031E0000098006808BD0000502800402DE9F0411B
:1031F00005460C46002600274DB9607800F0100007
:10320000102804D1607820F010000A30607005B9F1
:1032100008E06078FFF70EFF0646A078FFF70AFF88
:10322000064600BF55B1E0780004617840EA01200D
:10323000A1780843217840EA413611E0E078FFF7B1
:1032400004FF4FEA00486078FFF7FFFE48EA0028D5
:10325000A078FFF7FAFE48EA0008207848EA4036EE
:10326000CA201249086053200860FFF7FDFE08B924
:10327000002714E00E4830400C4920390860FFF761
:103280001BFF0A481C38006800F0200030B900F02D
:103290009DF808B9002702E0012700E00127FF2080
:1032A000024908603846BDE8F0810000242800404B
:1032B0003FFFFF002DE9F04105460C4600260027A0
:1032C0004DB92E48006800F0400000B102E0002037
:1032D000E07000BF0DE02948006800F0400020B118
:1032E0002078FFF7A7FE064602E00020E07000BF4E
:1032F00000BF55B120780004617840EA0120A17830
:103300000843E17840EA014611E02078FFF79DFE8E
:103310004FEA00486078FFF798FE48EA0028A07856
:10332000FFF793FE48EA0008E07848EA0046CA2022
:1033300012491C31086053200860FFF795FE08B958
:10334000002713E00E4830400C4908390860FFF7A9
:10335000B3FE0A48006800F0200030B900F036F8EB
:1033600008B9002702E0012700E00127FF200349F8
:103370001C3108603846BDE8F08100000828004094
:103380007F7F7F00F8B504460D4617461E468DF830
:1033900002708DF801508DF800608DF80340694689
:1033A0000020FFF723FFF8BDF8B504460D46174689
:1033B0001E468DF800408DF801508DF802708DF892
:1033C000036069460020FFF775FFF8BD08B50022CD
:1033D000009200200021CA22134B1A6053221A6067
:1033E000114A183A126822F0A0020F4B183B1A60DB
:1033F00000BF0D4A183A126802F02001009A521CD0
:103400000092009AB2F5003F01D00029F1D0064A9F
:10341000183A126802F020020AB1012000E00020F0
:10342000FF22014B1A6008BD2428004008B5002285
:103430000092044A0092009A02EB80020092009AE5
:10344000116008BD5028004070B5FEF7E9FF8820E4
:10345000FEF7B2FFFFF730F8E020FEF7ADFFFFF711
:103460002BF80020FEF7A8FFFFF726F8FEF7D8FF9D
:103470008920FEF7A1FFFFF71FF80120FEF766FF86
:1034800004464FF6FF7000EA04240120FEF75EFFB9
:1034900004430120FEF75AFF06460120FEF756FFBF
:1034A00005464FF6FF7000EA05250120FEF74EFFA6
:1034B00005430020FEF74AFF0646FEF7D7FF00EE61
:1034C000105AF8EE400A9FED0E1A80EE810ADFEDE9
:1034D0000D0A20EE200A0C4880ED020A00EE104A88
:1034E000B8EE400A9FED061AC0EE010A9FED071ADA
:1034F0009FED070A10EE810A80ED010A70BD000001
:1035000000FF7F470000C842A82D002000002F4385
:10351000000034427047000030B500228B071C0FBA
:103520000F2303FA04F20B4B8C1053F8243093430F
:10353000084C8D1044F8253023468C1053F8243065
:103540008C07240F00FA04F42343024C8D1044F836
:10355000253030BD083801400CB5002001900090A6
:103560003448006840F480303249086000BF314878
:10357000006800F4003000900198401C0190009811
:1035800018B90198B0F5A04FF1D12A48006800F4AD
:10359000003010B10120009001E000200090009860
:1035A000012846D123484030006840F0805021492E
:1035B000403108602048006840F440401E490860DF
:1035C0001C48083000681B4908310860084600683C
:1035D00040F4004008600846006840F4A0500860CD
:1035E0001648091F0860081F006840F08070091F16
:1035F000086000BF0F48006800F000700028F9D094
:1036000040F205700E4908600A480830006820F052
:1036100003000849083108600846006840F00200CD
:10362000086000BF03480830006800F00C0008285C
:10363000F8D10CBD0038024000700040085440072B
:10364000003C024008B51648C078012827D1002068
:103650001349C8701349FFF75FFD12488078009046
:1036600010484378027810A11448FCF78DFE134AE5
:1036700000210846FFF726FA11490020FFF726FD32
:103680000F48807800900E484378C2780DA10B480F
:10369000FCF77AFE094A02210020FFF713FA08BD61
:1036A0009C2D00208805002054696D653A25303234
:1036B000643A253032643A2530326400B42D00205B
:1036C0008C050020446174653A3230253032642D17
:1036D000253032642D253032640000000146002080
:1036E0000AE00246431CD8B28A5C0A2A00D104E0F0
:1036F000FA2801DDFA2000E0F3E700BF7047000080
:103700000448006820B103480068401E0149086071
:10371000704700001000002010B51548006840F404
:103720007000134908601348006840F00100114917
:10373000086000200F49083108600E4800680E49F3
:1037400008400C4908600D48091D0860081F006802
:1037500020F48020091F0860002006490C31086011
:10376000FFF7FAFE4FF0006001498039086010BD94
:1037700088ED00E000380240FFFFF6FE1030002424
:1037800010B501212B4800F0BBF8002850D00121D2
:10379000284800F097F828480068401C264908602F
:1037A000084600684FF47A71B0FBF1F201FB120099
:1037B000012804D121480068401C204908601E48A7
:1037C00000681F49B0FBF1F201FB120010B90120A3
:1037D0001C4908701848006840F6B831B0FBF1F297
:1037E00001FB120010B90120164948701248006808
:1037F0004FF4FA61B0FBF1F201FB120010B90120A5
:10380000104988700C4800684FF47A71B0FBF1F2EF
:1038100001FB120010B901200A49C87000F040FAFB
:1038200000F0D6FB00F05AFD00F0A6FEFEF748FFC0
:1038300010BD0000000C004084050020A82D0020D1
:10384000C0D401009C2D00201FB501210820FFF7E6
:1038500013FB32208DF8000000208DF801000120BC
:103860008DF802008DF803006846FEF7A5FF4FF4BF
:103870007A7002900020ADF80400ADF80C00ADF8AD
:10388000060001A9084800F061F901225321064809
:1038900000F053F901221146034800F042F80121DB
:1038A000014800F012F81FBD000C004021B1028851
:1038B00042F08002028004E002884FF67F731A40D3
:1038C00002807047CA430282704721B1028842F0E9
:1038D0000102028004E002884FF6FE731A40028063
:1038E000704731B1B0F8442042F40042A0F84420BF
:1038F00005E0B0F84420C2F30E02A0F8442070475F
:1039000030B50246002000230024158A05EA010391
:10391000958905EA010413B10CB1012000E00020F3
:1039200030BD1AB183890B43838102E083898B43C5
:103930008381704770B5002400220023058C4FF668
:10394000EF7635400584028C8388048B48F6FF753A
:103950002C404FF6FF452C400D884FF6FF7606EAC7
:1039600005252C434FF6DF752A408D8906EA05159B
:103970002A434D8806EA05152A43154DA84202D070
:10398000144DA8421DD14FF67F752A40CD894FF6C0
:10399000FF7606EA05152A434FF6BF752A408D8843
:1039A00006EA05152A434FF6FF352B404FF2FF7507
:1039B0002B400D8A06EA85052B434D8A06EA8505CC
:1039C0002B43838004838D688563028470BD00006F
:1039D00000000140000401400A460021018B4FF223
:1039E000FF7319404FF6FF7303EA02231943018363
:1039F0007047000070B5002400220023058C4FF6AC
:103A0000FF6635400584028C8388848B4FF68F7562
:103A10002C404FF6FC752C400D882C434FF6FF557B
:103A20002A408D894FF6FF7606EA05252A434D8800
:103A300006EA05252A43154DA84202D0144DA84296
:103A40001DD14FF2FF752A40CD894FF6FF7606EA69
:103A500005252A434FF6FF352A408D8806EA0525BD
:103A60002A434EF6FF752B404DF6FF752B400D8A0D
:103A700006EA05152B434D8A06EA05152B4383807C
:103A800084838D68C563028470BD0000000001401E
:103A9000000401400A460021818B4FF6F77319405C
:103AA000114381837047000070B500220023002479
:103AB000058C4EF6FF7635400584038C8488828B16
:103AC00048F6FF752A404FF6FF452A400D884FF60D
:103AD000FF7606EA05252A434DF6FF752B408D89B2
:103AE00006EA05352B434D8806EA05352B430A4D7A
:103AF000A84202D0094DA84208D14BF6FF752C40D0
:103B00000D8A4FF6FF7606EA85152C438480828362
:103B10008D680564038470BD00000140000401400D
:103B20000A460021818B4FF2FF7319404FF6FF7355
:103B300003EA02231943818370470185828270471B
:103B400081637047C1637047016470470022028837
:103B5000184B98420ED0184B98420BD0B0F1804FC2
:103B600008D0164B984205D0154B984202D0154B01
:103B7000984204D14FF68F731A404B881A43124B68
:103B8000984207D0114B984204D04FF6FF431A4099
:103B90000B891A4302804B68C3620B880385054B6F
:103BA000984202D0044B984201D18B7A03860123BC
:103BB000838270470000014000040140000400407F
:103BC00000080040000C00400010004000140040BD
:103BD00000B587B001210846FFF73EF9012110200A
:103BE000FFF75AF9072209212848FEF7EBFA0722C6
:103BF0000A212648FEF7E6FA02208DF80800002088
:103C00008DF80A0001208DF80B0002208DF80900C4
:103C10000002019001A91D48FEF78CFA02208DF8E0
:103C2000080001208DF80B008002019001A91748BF
:103C3000FEF780FA4FF4E13003900020ADF8100059
:103C4000ADF81200ADF814000C20ADF816000020FD
:103C5000ADF8180003A90E4800F0D2FD0122C021E2
:103C60000B4800F0B6FD0121094800F0A6FD00F068
:103C70006FF80848FEF754F9074908800548FEF731
:103C80004FF90649088007B000BD0000000002405F
:103C900000100140886402404A02002048020020CF
:103CA00010B52248FEF73CF904462148007858B97F
:103CB00020480088844238D001201D4908701E48E1
:103CC00000681E49086030E01A480088844226D106
:103CD000194800681A4908600846006817490968C9
:103CE000401A022821D901201649087000201049E5
:103CF000087015480088A04207DD13480088001BA3
:103D000012490880104804800FE00F48008800F531
:103D10008070001B0D4908800B48048005E00548B1
:103D20000480054800680549086010BD88640240A9
:103D30003501002036010020840500203C010020D0
:103D40004001002034010020380100203201002011
:103D500000B58FB001218805FFF77EF83248FEF7E5
:103D600033F84FF0006000903048019030480290E6
:103D7000402003900020049005904FF4806006904E
:103D800000200790089009904FF400300A9000201E
:103D90000B9001200C9000200D900E906946224857
:103DA000FEF7E4F84FF020511F48FDF7E7FF002130
:103DB0001D48FDF7FDFF01218805FFF74DF81A4862
:103DC0003038FEF701F84FF000600090174801907E
:103DD00018480290002003904FF480700490002057
:103DE00005904FF4806006900020079008904FF4F3
:103DF0008070099040020A9000200B9001200C90E6
:103E000000200D900E90694607483038FEF7AEF856
:103E1000094905483038FDF7B1FF01210248303823
:103E2000FDF7C6FF0FB000BDB864024004100140AA
:103E300044010020900500200008002070B50446D1
:103E40002046FFF74BFC054600211348FDF7B0FF65
:103E500011480C30046029460F48FEF7B3F80121E1
:103E60000D48FDF7A5FF00BF4FF020510A48FEF7AF
:103E70005BF80128F8D100BF4021084800F0B2FCEF
:103E80000128F9D14FF020510348FDF777FF402179
:103E9000024800F089FC70BDB86402400010014087
:103EA00070B504460D4600211348FDF781FF124806
:103EB0000C30046029461048FEF784F801210E48B2
:103EC000FDF776FF00BF4FF020510B48FEF72CF8AE
:103ED0000128F8D100BF4021084800F083FC0128E8
:103EE000F9D14FF020510448FDF748FF4021034825
:103EF00000F05AFC70BD0000B864024000100140A0
:103F000000B587B001210846FEF7A6FF012148044D
:103F1000FEF7B2FF072202212848FEF753F90722D5
:103F200003212648FEF74EF902208DF808000020F4
:103F30008DF80A0001208DF80B0000208DF8090093
:103F40000420019001A91D48FEF7F4F802208DF825
:103F5000080000208DF80B000820019001A91748E7
:103F6000FEF7E8F84FF4E13003900020ADF81000C0
:103F7000ADF81200ADF814000C20ADF816000020CA
:103F8000ADF8180003A90E4800F03AFC0122C02148
:103F90000B4800F01EFC0121094800F00EFC00F067
:103FA00089F80848FDF7BCFF074908800548FDF778
:103FB000B7FF0649088007B000BD000000000240BE
:103FC00000440040886002404A020020480200206D
:103FD00010B5B2B02C48FDF7A3FF04462B4800787B
:103FE00058B92B48008884424CD0012027490870DA
:103FF000284800682849086044E025480088844231
:104000003AD12448006825490860084600682249DA
:104010000968401A022835D901202149087000207A
:104020001A4908701F480088A04207DD1D48008813
:10403000001B1D4908801B48048008E019480088BF
:1040400000F58070001B18490880164804806846F7
:1040500000F090FC144908801248048000201349A5
:10406000087011480088C8280CDC0F48027869469F
:104070000F48FEF77FFE05E005480480054800680C
:104080000549086032B010BD886002404702002038
:1040900048020020840500204C020020500200202D
:1040A000460200204A020020440200203501002080
:1040B000900B002000B58FB001214805FEF7CCFE23
:1040C0003248FDF781FE4FF00060009030480190CB
:1040D00030480290402003900020049005904FF457
:1040E0008060069000200790089009904FF40030FF
:1040F0000A9000200B9001200C9000200D900E9053
:1041000069462248FDF732FF23492048FDF736FE75
:1041100000211E48FDF74CFE01214805FEF79CFEDC
:104120001A481838FDF750FE4FF00060009018480C
:1041300001901A480290002003904FF48070049080
:10414000002005904FF480600690002007900890B2
:104150004FF48070099040020A9000200B900120DB
:104160000C9000200D900E90694608481838FDF715
:10417000FDFE0B4905481838FDF700FE01210348F4
:104180001838FDF715FE0FB000BD0000A06002401A
:10419000044400405402002000002020900600202B
:1041A0000008002070B504462046FFF797FA054640
:1041B00000211248FDF7FCFD10480C300460294630
:1041C0000E48FDF7FFFE01210C48FDF7F1FD00BF91
:1041D0000B490A48FDF7A8FE0128F9D100BF40218C
:1041E000084800F0FFFA0128F9D105490348FDF716
:1041F000C5FD4021034800F0D7FA70BDA060024021
:10420000000020200044004000B587B001210420B8
:10421000FEF722FE01218804FEF72EFE07220A2166
:104220002948FDF7CFFF07220B212748FDF7CAFFDA
:1042300002208DF8080000208DF80A0001208DF87A
:104240000B0000208DF809004FF48060019001A957
:104250001D48FDF76FFF02208DF8080000208DF843
:104260000B004FF40060019001A91748FDF762FFB1
:104270004FF4E13003900020ADF81000ADF81200CB
:10428000ADF814000C20ADF816000020ADF81800B1
:1042900003A90E4800F0B4FA0122C0210B4800F037
:1042A00098FA0121094800F088FA00F087F80848D8
:1042B000FDF736FE074908800548FDF731FE06493F
:1042C000088007B000BD0000000802400048004020
:1042D000286002405C0300205A03002010B5B2B0F1
:1042E0002C48FDF71DFE04462B48007858B92B4892
:1042F000008884424CD00120274908702848006873
:104300002849086044E02548008884423AD124487E
:104310000068254908600846006822490968401A73
:10432000022835D901202149087000201A49087057
:104330001F480088A04207DD1D480088001B1D495A
:1043400008801B48048008E01948008800F5807048
:10435000001B1849088016480480684600F05AFB84
:10436000144908801248048000200B490870114845
:104370000088C8280CDC0F48027869460E48FEF712
:10438000F9FC05E005480480054800680549086017
:1043900032B010BD28600240580300205A030020AC
:1043A00084050020600300206403002057030020E0
:1043B0005C03002054030020900B002000B58FB058
:1043C00001214805FEF748FD3248FDF7FDFC4FF09E
:1043D00000600090304801903048029040200390E7
:1043E0000020049005904FF4806006900020079014
:1043F000089009904FF400300A9000200B900120A3
:104400000C9000200D900E9069462248FDF7AEFDFD
:104410004FF0C0511F48FDF7B1FC00211D48FDF7CA
:10442000C7FC01214805FEF717FD1A483038FDF793
:10443000CBFC4FF0006000901748019018480290A4
:10444000002003904FF480700490002005904FF4FA
:10445000806006900020079008904FF480700990CB
:1044600040020A9000200B9001200C9000200D903B
:104470000E90694607483038FDF778FD0949054830
:104480003038FDF77BFC012102483038FDF790FC05
:104490000FB000BD5860024004480040680300208F
:1044A000900700200008001000B587B001210846E1
:1044B000FEF7D2FC0121C804FEF7DEFC0822002131
:1044C0002848FDF77FFE082201212648FDF77AFEE5
:1044D00002208DF8080000208DF80A0001208DF8D8
:1044E0000B0000208DF809000120019001A91D4852
:1044F000FDF720FE02208DF8080000208DF80B004B
:104500000220019001A91748FDF714FE4FF4E13095
:1045100003900020ADF81000ADF81200ADF81400C3
:104520000C20ADF816000020ADF8180003A90E48C5
:1045300000F066F90122C0210B4800F04AF9012180
:10454000094800F03AF900F087F80848FDF7E8FC60
:10455000074908800548FDF7E3FC0649088007B0D5
:1045600000BD000000000240004C004040600240DE
:10457000700400206E04002010B5B2B02C48FDF786
:10458000CFFC04462B48007858B92B480088844259
:104590004CD0012027490870284800682849086045
:1045A00044E02548008884423AD1244800682549DF
:1045B00008600846006822490968401A022835D96F
:1045C00001202149087000201A4908701F480088FE
:1045D000A04207DD1D480088001B1D4908801B48BC
:1045E000048008E01948008800F58070001B184915
:1045F000088016480480684600F05CFA1449088078
:104600001248048000200B49087011480088C8280F
:104610000CDC0F48027869460E48FEF7ABFB05E05C
:1046200005480480054800680549086032B010BD9F
:10463000406002406C0400206E04002084050020CD
:1046400074040020780400206B0400207004002013
:1046500068040020900B002000B58FB001214805B0
:10466000FEF7FAFB3248FDF7AFFB4FF00060009019
:104670003048019030480290402003900020049080
:1046800005904FF4806006900020079008900990F4
:104690004FF400300A9000200B9001200C90002075
:1046A0000D900E9069462248FDF760FC2349204892
:1046B000FDF764FB00211E48FDF77AFB0121480548
:1046C000FEF7CAFB1A483038FDF77EFB4FF000605A
:1046D0000090184801901A480290002003904FF46F
:1046E00080700490002005904FF4806006900020B8
:1046F000079008904FF48070099040020A900020C3
:104700000B9001200C9000200D900E9069460848F7
:104710003038FDF72BFC4FF0815105483038FDF75C
:104720002DFB012102483038FDF742FB0FB000BDE0
:1047300070600240044C00407C04002020000020F7
:104740009008002070B504460D4605B970BD0021E3
:104750001248FDF72DFB11487038C46729460F48F1
:10476000FDF730FC01210D48FDF722FB00BF0C498D
:104770000A48FDF7D9FB0128F9D100BF40210948BB
:1047800000F030F80128F9D105490448FDF7F6FAA0
:104790004021044800F008F800BFD7E770600240ED
:1047A00020000020004C004001F40072B2F5007FB0
:1047B00000D100BFCA430280704721B1828942F410
:1047C0000052828104E082894DF6FF731A40828193
:1047D00070471AB1838A0B43838202E0838A8B433A
:1047E0008382704702460020B1F5007F00D100BFF0
:1047F00013880B400BB1012000E00020704700003F
:104800002DE9FF4705460E460024A14600BFA046FD
:10481000B08900B100BF2C8A24F44054F0880443CE
:104820002C82AC8941F20C608443B0883189084302
:10483000718908430443AC81AC8A24F44074B08984
:104840000443AC826846FEF737FB2048854202D01D
:104850001F48854202D1DDF80C9001E0DDF8089098
:10486000A88900F4004040B109EBC90000EB091031
:1048700031684900B0FBF1F707E009EBC90000EB34
:10488000091031688900B0FBF1F76420B7FBF0F044
:1048900004012009642101FB1078A88900F400407C
:1048A00040B1322000EBC800B0FBF1F000F007008F
:1048B000044308E0322000EB08106421B0FBF1F063
:1048C00000F00F0004432C81BDE8FF870010014079
:1048D0000014014070B5044621480088FA2801DD23
:1048E000002070BD1E4802881E4800881044FF2822
:1048F00011DC00210CE01B480088C0F58070184EC8
:104900003688801B0844184E305C6054481C81B2C5
:104910009142F0DB1DE0134800881044A0F5807040
:1049200083B2D01A85B2002107E0C3F58070084435
:104930000D4E305C6054481C81B29942F5DB002179
:1049400005E00948405C5E18A055481C81B2A942A8
:10495000F7DB0020054E3070054E30701046C0E782
:104960003201002036010020900500203401002093
:104970003501002070B5044621480088C82801DDB3
:10498000002070BD1E4802881E4800881044FF2881
:1049900011DC00210CE01B480088C0F58070184E27
:1049A0003688801B0844184E305C6054481C81B225
:1049B0009142F0DB1DE0134800881044A0F58070A0
:1049C00083B2D01A85B2002107E0C3F58070084495
:1049D0000D4E305C6054481C81B29942F5DB0021D9
:1049E00005E00948405C5E18A055481C81B2A94208
:1049F000F7DB0020054E3070054E30701046C0E7E2
:104A000044020020480200209006002046020020B8
:104A10004702002070B5044621480088C82801DDFF
:104A2000002070BD1E4802881E4800881044FF28E0
:104A300011DC00210CE01B480088C0F58070184E86
:104A40003688801B0844184E305C6054481C81B284
:104A50009142F0DB1DE0134800881044A0F58070FF
:104A600083B2D01A85B2002107E0C3F580700844F4
:104A70000D4E305C6054481C81B29942F5DB002138
:104A800005E00948405C5E18A055481C81B2A94267
:104A9000F7DB0020054E3070054E30701046C0E741
:104AA000540300205A0300209007002057030020E1
:104AB0005803002070B5044621480088C82801DD4D
:104AC000002070BD1E4802881E4800881044FF2840
:104AD00011DC00210CE01B480088C0F58070184EE6
:104AE0003688801B0844184E305C6054481C81B2E4
:104AF0009142F0DB1DE0134800881044A0F580705F
:104B000083B2D01A85B2002107E0C3F58070084453
:104B10000D4E305C6054481C81B29942F5DB002197
:104B200005E00948405C5E18A055481C81B2A942C6
:104B3000F7DB0020054E3070054E30701046C0E7A0
:104B4000680400206E040020900800206B04002000
:104B50006C04002010B50E48007801280CD100200C
:104B60000B4908700B48FFF7B5FE0B490870084663
:104B700001780848FEF7E8F808480078012805D1D0
:104B800000200649087006A000F0C4F810BD00001F
:104B90003401002031000020300000209C2D002036
:104BA0002A3A2074776F206D696E7574650D0A005E
:104BB00000BFFEE703B401984100009850EAC1200D
:104BC00018BF04204A0D18BF40F0010040F2FF72E8
:104BD000B2EB515F08BF40F00200012808BF05207A
:104BE00002B0704730380A2801D2012070470020F7
:104BF000704700004FF47A714143044A116000BFCE
:104C0000024909680029FBD170470000100000200C
:104C10000349086000BF024909680029FBD17047B9
:104C20001000002088B020222E496846FBF779FD4D
:104C30002D4800682D4AB0FBF2F1481EB0F1807F8C
:104C400000D31BE0481E4FF0E022506150170F22A6
:104C5000002807DA13071D0E254B00F00F04241F50
:104C60001D5503E013071C0E224B1C5400BF0020EF
:104C70004FF0E02290610720106100BF4FF4A06068
:104C8000FDF7D6FDFEF7A4FFFFF73AF9FFF7BCFAF0
:104C9000FFF70AFCFDF774FFFDF7A0FCFEF7D4FD5B
:104CA000FDF7CCFAFDF7B5FAFDF718FEFDF73EFD6E
:104CB0001148FEF7A1F8684600F02CF8684600F0AD
:104CC00041F8FDF735FC0BE0FDF72EFCFDF75CFC31
:104CD000FEF778F8FFF73EFFFDF7E6FFFEF7B2FCC0
:104CE000F2E70000CC4E00081400002040420F0004
:104CF00018ED00E000E400E0900B002010B5044641
:104D00002046FEF72BF810BD10B504462046FEF7EE
:104D10002BF810BD0FB438B505A800907F210848C6
:104D2000009B049AFBF716FBC4B2782C00DD7824B4
:104D30000348FFF7E3FF0020009038BC5DF814FB48
:104D4000900900200FB438B505A800907F210848CD
:104D5000009B049AFBF7FEFAC4B2782C00DD78249D
:104D60000348FFF7D1FF0020009038BC5DF814FB2A
:104D7000100A002010B500290AD00878002807D0B2
:104D800005487844FCF7F6FB002801D0002010BD50
:104D90000248784410BD0000E20B0000DA0B00006E
:104DA00010B500290AD00878002807D005487844B3
:104DB000FCF7E0FB002801D0002010BD0248784439
:104DC00010BD0000D20B0000CA0B00000808A0F5BF
:104DD00000114FEA3101704743004FEAD30C4FEA0C
:104DE0003C0C43401FBF40070CF1605113F0FE4FD5
:104DF00070471CF0006F03D100200CF00041704799
:104E00000CF0004343EA507010B540EACC0000F0CB
:104E10000EF800BF000000924FEA0001FFF7D6BF76
:104E20004FF000414FF00000A1F5002170470EF156
:104E3000020E2EF0030E5EF8044B244204D44FEA17
:104E40004102B2F17F4F11D84FEA4003B3F17F4FD7
:104E50000CD80ED14FEAD07CB2F17F4F0CEB4C0C4A
:104E60000CF1020C08BF4CEBD17C04E04FF0080CB5
:104E700001E04FEAD17C0CEB4C0324FA03F404F07C
:104E80000704B4F1040C06D20EEB840CBDE810400C
:104E90004CF0010C6047DFE80CF0070802024FF00D
:104EA0000040A0F5800010BD0846420018BFD2F1B6
:104EB000807288BF00F0004010BD4FF04070E1EEFE
:104EC000100A7047FBF703BEFCF7A4B8676F2074A5
:104ED0006F207768696C65210D0A000000000000F2
:104EE00000000000000000000000000000000000C2
:104EF00000000000002F0000000007000700001461
:104F00007F147F1400242A7F2A120062640813236E
:104F100000364955225000000503000000001C2205
:104F20004100000041221C000014083E0814000843
:104F3000083E0808000000A06000000808080808F3
:104F4000000060600000002010080402003E51498B
:104F5000453E0000427F4000004261514946002129
:104F600041454B31001814127F1000274545453943
:104F7000003C4A494930000171090503003649499E
:104F8000493600064949291E000036360000000057
:104F900056360000000814224100001414141414A2
:104FA000000041221408000201510906003249594B
:104FB000513E007C1211127C007F49494936003E67
:104FC00041414122007F4141221C007F4949494122
:104FD000007F09090901003E4149497A007F08081C
:104FE000087F0000417F4100002040413F01007FD9
:104FF00008142241007F40404040007F020C027FA5
:10500000007F0408107F003E4141413E007F0909B6
:105010000906003E4151215E007F091929460046DC
:10502000494949310001017F0101003F4040403FB3
:10503000001F2040201F003F4038403F00631408FD
:1050400014630007087008070061514945430000D8
:105050007F41410000552A552A55000041417F00FB
:1050600000040201020400404040404000000102F0
:105070000400002054545478007F484444380038D9
:105080004444442000384444487F00385454541861
:1050900000087E0901020018A4A4A47C007F080473
:1050A00004780000447D4000004080847D00007F43
:1050B000102844000000417F4000007C0418047860
:1050C000007C0804047800384444443800FC24245C
:1050D00024180018242418FC007C08040408004844
:1050E0005454542000043F444020003C4040207C65
:1050F000001C2040201C003C4030403C0044281054
:105100002844001CA0A0A07C004464544C44141407
:1051100014141414000080404080000000FE0300BE
:105120000003FC0000FF00000000FF000000070873
:105130000807000000000080C0000000000001011E
:10514000FF00000000000000FF0000000000080C4D
:105150000F0800000000804040C00000001F000059
:1051600000C03F000080601806018000000F0C0C9A
:105170000C0C0F000000C04040800000000F000039
:10518000807F0C0000C000010102FC000003040845
:10519000080601000000000000C000000000E01C44
:1051A00003FF0000001E111010FF10000000000897
:1051B0000C0F08000000C0C0C0C0C00000FF80404D
:1051C00040C0000000E300000001FF0000030408ED
:1051D000080601000000804040C0000000FC834041
:1051E00040C3030000FF01000000FF0000010708AA
:1051F0000804030000C0C0C0C0C0C0000007000019
:10520000C03C0300000000FC030000000000000F91
:10521000000000000000C04040800000003FE0802F
:1052200000C03F0000FC0301030EF8000003040867
:10523000080403000000C0404080000000FF0000A0
:105240000001FE000003060404C37F0000030F08F2
:105250000403000000000000000000000000000047
:1052600000000000000000F8000000000000003313
:105270003000000000100C06100C060000000000BA
:105280000000000040C07840C0784000043F0404A3
:105290003F040400007088FC08300000001820FF64
:1052A000211E0000F008F000E018000000211C039F
:1052B0001E211E0000F00888700000001E2123241B
:1052C0001927211010160E00000000000000000039
:1052D00000000000000000E01804020000000007C9
:1052E0001820400000020418E000000000402018D0
:1052F00007000000404080F0804040000202010FA3
:1053000001020200000000F0000000000101011F86
:1053100001010100000000000000000080B07000EA
:10532000000000000000000000000000000101017A
:105330000101010100000000000000000030300009
:1053400000000000000000008060180400601806E3
:105350000100000000E010080810E000000F10201D
:1053600020100F00001010F8000000000020203F67
:1053700020200000007008080888700000302824F1
:105380002221300000300888884830000018202092
:1053900020110E000000C02010F8000000070424B7
:1053A000243F240000F808888808080000192120FC
:1053B00020110E0000E0108888180000000F112056
:1053C00020110E0000380808C83808000000003F0F
:1053D000000000000070880808887000001C22216E
:1053E00021221C0000E010080810E000000031221B
:1053F00022110F00000000C0C000000000000030BB
:10540000300000000000008000000000000080600C
:10541000000000000000804020100800000102048D
:105420000810200040404040404040000404040474
:105430000404040000081020408000000020100830
:1054400004020100007048080808F0000000003065
:1054500036010000C030C828E810E00007182724F3
:1054600023140B000000C038E0000000203C2302A1
:105470000227382008F8888888700000203F202004
:1054800020110E00C0300808080838000718202036
:105490002010080008F808080810E000203F20202D
:1054A00020100F0008F88888E8081000203F20200E
:1054B0002320180008F88888E8081000203F200002
:1054C00003000000C030080808380000071820203A
:1054D000221E020008F808000008F808203F2101F9
:1054E00001213F20000808F8080800000020203FA4
:1054F0002020000000000808F8080800C080808014
:105500007F00000008F888C028180800203F20010C
:105510002638200008F8080000000000203F202066
:105520002020300008F8F800F8F80800203F003F7D
:10553000003F200008F830C00008F808203F200095
:1055400007183F00E01008080810E0000F102020A6
:1055500020100F0008F808080808F000203F21017B
:1055600001010000E01008080810E0000F182424D2
:1055700038504F0008F8888888887000203F200045
:10558000030C3020007088080808380000382021FB
:1055900021221C00180808F8080818000000203F05
:1055A0002000000008F808000008F808001F20206C
:1055B00020201F000878880000C83808000007383D
:1055C0000E010000F80800F80008F800033C07008E
:1055D000073C0300081868808068180820302C03F6
:1055E000032C30200838C800C83808000000203FCD
:1055F0002000000010080808C838080020382621BC
:1056000020201800000000FE020202000000007FBF
:1056100040404000000C30C00000000000000001CD
:105620000638C00000020202FE00000000404040B8
:105630007F000000000004020202040000000000DD
:10564000000000000000000000000000808080805A
:105650008080808000020204000000000000000042
:1056600000000000000080808080000000192422DB
:1056700022223F2008F8008080000000003F112017
:1056800020110E000000008080800000000E11201C
:1056900020201100000000808088F800000E1120FA
:1056A00020103F200000808080800000001F222208
:1056B00022221300008080F0888888180020203F74
:1056C000202000000000808080808000006B949487
:1056D0009493600008F8008080800000203F210043
:1056E00000203F2000809898000000000020203F0C
:1056F00020200000000000809898000000C08080FA
:10570000807F000008F8000080808000203F240295
:105710002D302000000808F8000000000020203F85
:10572000202000008080808080808000203F20003A
:105730003F20003F8080008080800000203F2100CB
:1057400000203F200000808080800000001F20207B
:1057500020201F00808000808000000080FFA120AA
:1057600020110E000000008080808000000E1120BB
:1057700020A0FF80808080008080800020203F214A
:1057800020000100000080808080800000332424FD
:1057900024241900008080E0808000000000001FA9
:1057A000202000008080000000808000001F20205A
:1057B00020103F20808080000080808000010E301B
:1057C0000806010080800080008080800F300C037C
:1057D0000C300F0000808000808080000020312E7F
:1057E0000E312000808080000080808080818E705B
:1057F0001806010000808080808080000021302C0D
:105800002221300000000000807C02020000000025
:10581000003F404000000000FF00000000000000CA
:10582000FF0000000002027C800000000040403FBA
:105830000000000000060101020204040000000054
:1058400000000000303132333435363738394142C8
:1058500043444546403058003031323334353637D2
:10586000383961626364656640307800040000087E
:105870000000000000000002000100001000000015
:10588000000000000000000030313233343536377C
:105890003839616263646566787000303132333460
:1058A00035363738394142434445465850000000A8
:1058B00002400000000000A00000000005400000C1
:1058C000000000C8000000000C4000000000409CE8
:1058D00000000000194000000020BCBE00000000D5
:1058E00034400000BFC91B8E00000004B54000001A
:1058F000504BCFD06607E2CF010000006C410000A2
:105900003E8251AADFEEA73401000000D942000018
:10591000DCB5A0E23A301F97FFFFFFFFB44500005F
:10592000FD25A0C8E9A3C14FFFFFFFFFFF3F000017
:105930000000008000000000FF3F00000000008029
:1059400000000000905A00080000002090050000B0
:10595000C4010008045B000890050020B02E000080
:10596000200200081C00000043000000F8FFFFFFB9
:105970000C0000000E0000000F0000002E000000D0
:105980001001000043000000F8FFFFFF004040400E
:105990004040404040404141414141404040404002
:1059A00040404040404040404040404040050202AE
:1059B000020202020202020202020202022020206D
:1059C00020202020202020020202020202029090C9
:1059D00090909090101010101010101010101010C7
:1059E000101010101010101002020202020288881B
:1059F0008888888808080808080808080808080827
:105A0000080808080808080802020202400000000E
:105A10000000000000000000000000000000000086
:105A20000000000000000000000000000000000076
:105A30000000000000000000000000000000000066
:105A40000000000000000000000000000000000056
:105A50000000000000000000000000000000000046
:105A60000000000000000000000000000000000036
:105A70000000000000000000000000000000000026
:105A80000000000000000000000000000000000016
:105A9000412D01020304045506070809847A030A0C
:105AA000B91841000EFF6D61696E20676F2077683D
:105AB000696C65710010FF55415254312073656E59
:105AC000642064617461210010F555415254322004
:105AD00073656E642064617461F2010010F55541D4
