:020000040800F2
:1000000068A501201D030008F92B0008112700082E
:10001000412B0008B9210008194D0008000000001C
:10002000000000000000000000000000AF3C0008DD
:10003000B523000800000000A1340008AD3D000811
:1000400037030008370300083703000837030008A8
:100050003703000837030008B9230008F12300081C
:100060003703000837030008292400083703000875
:100070003703000837030008370300083703000878
:100080003703000837030008370300083703000868
:10009000370300083703000837030008512400081D
:1000A0003703000837030008370300083703000848
:1000B0003703000837030008370300083703000838
:1000C0003703000837030008370300083703000828
:1000D0003703000837030008370300083703000818
:1000E0003703000837030008370300083703000808
:1000F00037030008370300083703000837030008F8
:1001000037030008370300081D3E000837030008C6
:1001100037030008370300083703000837030008D7
:1001200037030008370300083703000837030008C7
:1001300037030008370300083703000837030008B7
:1001400037030008370300083703000837030008A7
:100150003703000837030008370300083703000897
:100160003703000837030008370300083703000887
:100170003703000837030008370300083703000877
:10018000370300083703000800F002F800F0B6F863
:100190000AA090E8000C82448344AAF10107DA45E2
:1001A00001D100F0ABF8AFF2090EBAE80F0013F07E
:1001B000010F18BFFB1A43F001031847849A00008F
:1001C000A49A00000A444FF0000C10F8013B13F011
:1001D000070408BF10F8014B1D1108BF10F8015BA0
:1001E000641E05D010F8016B641E01F8016BF9D193
:1001F00013F0080F1EBF10F8014BAD1C0C1B09D1EA
:100200006D1E58BF01F801CBFAD505E014F8016B5B
:1002100001F8016B6D1EF9D59142D6D370470000ED
:100220000023002400250026103A28BF78C1FBD8FF
:10023000520728BF30C148BF0B6070476E2900F0DD
:10024000CB84702900F0E981662908F03886652999
:1002500008F03586672908F03286612908F0318672
:1002600003681B0A28BF41F08001692900F05A8108
:10027000642900F05781752900F054816F2900F03E
:10028000C887782900F0B581E92900F06387E4295F
:1002900000F06087F52900F05D87EF2900F0C58741
:1002A000F82900F0B4810368DB0928BF41F0800120
:1002B000632900F0E486732900F0E986E32901F060
:1002C000F381F32901F0F881002070471FB508F091
:1002D000F1FD9DE8030000F0D3FB00F0B5FF040042
:1002E0000020002108F022F8401C6060002000215E
:1002F00008F032F8E0601FBD10B510BD01F07AFAC9
:100300001146FFF7E3FF06F055FA01F098FA03B43F
:10031000FFF7F2FF03BC01F009FB0000094880472A
:1003200009480047FEE7FEE7FEE7FEE7FEE7FEE7D7
:10033000FEE7FEE7FEE7FEE704480549054A064BEF
:1003400070470000C13D0008890100086875012060
:1003500068A50120688501206885012070B50646E2
:1003600000F072FB056806F10B0020F00704B442B0
:100370009CBF002070BD2B466A68BAB11068A042CD
:1003800010D304F1080188423CBF5068586007D37D
:100390005168101941601168091B016058601460B0
:1003A000101D70BD13465268002AE7D12146284629
:1003B00000F052FB0028DED170BD70B50446051F69
:1003C00000F042FB0068002C14BF446870BD002C94
:1003D00018BFAC423CBF20466468F8D301680A18D5
:1003E000AA4218BF456003D12A680546114401603E
:1003F00028684119A1421CBF6C6070BD61686960CA
:1004000021680844286070BD10B5044600F014FB54
:100410000068005DC00602D504F1200010BD204632
:1004200010BD00007CB51D4616460C00009001D0A2
:100430002044401E074B7B442A46694601903046C3
:1004400000F0F3FD05461CB10020694600F000FEF7
:1004500028467CBD210C00000FB41CB5084B06AA31
:100460007B4469460090059800F0DFFD04460020BB
:10047000694600F0EDFD20461CBC5DF814FB000051
:10048000ED0B000070B5044685690068C10601D512
:10049000302600E02026C00707D070BDD4E9012136
:1004A00030469047206A401C20626D1EF6D570BD14
:1004B00070B5044685690078C00707D170BDD4E9DE
:1004C000012120209047206A401C20626D1EF6D535
:1004D00070BD70B50C460546012A05D02878800607
:1004E00000D5EA69002302E0012305E05B1C93428A
:1004F00002D2E05C0028F9D1A869E618C01AA86108
:10050000286A184428622846FFF7BCFF04E0D5E9B2
:10051000012114F8010B9047B442F8D32846FFF7A5
:10052000C7FF70BD2DE9F04106460024106875290B
:10053000314616A510D000F0E4FA002802DA404255
:1005400013A507E031688A0701D512A502E0490723
:1005500004D511A5012401E000F0DCFA00210A22F3
:1005600006F1240709E0B0FBF2FCB0FBF2F302FB5A
:100570001C00303078541846491C0028F3D123461B
:100580002A463046BDE8F04100F0CDBA0000000038
:100590002D0000002B00000020000000F0B40D46EC
:1005A0000188090502D5214C7C4402E01F4C7C44A3
:1005B0000E34002100F1240608E002F00F071209B2
:1005C000E75D42EA03721B097754491C52EA0307AC
:1005D000F3D102780023120704D5702D06D009B19B
:1005E000022311342246F0BC00F09DBA01231034DE
:1005F000F8E770B504460D462146106800F08AFA07
:10060000024629462046BDE870400023C6E7D21DB9
:1006100022F00703D3E90023C0E70368126843F020
:10062000200303600823C3610023B7E7B5930000EC
:100630002DE9F05F894604464FF0000ADFF874B1F7
:10064000FB44C0F820A02046E1688847002874D009
:10065000252806D0D4E901219047206A401C206259
:10066000F1E700265F462046E168884720280546D6
:1006700007DB312D05D2781910F8200C08B106439C
:10068000F1E7B00701D526F00406C4F81CA0002746
:10069000C4F818A02A2D09D0284605F0A9FA38B3C5
:1006A00004EB8708303DC8F8185019E059F8041BCE
:1006B000204604EB87029161E1688847012F0546D7
:1006C00018D1E069002820DA26F020061DE0D8F8CD
:1006D000180000EB800005EB40003038C8F8180027
:1006E0002046E1688847054605F082FA0028EED1E9
:1006F000012F0AD02E2D08D12046E16888477F1CA3
:100700000546022F46F02006C4DBA069002803DA64
:10071000404246F00106A061F00701D026F0100625
:100720006C2D0BD0682D09D04C2D39D06A2D35D0C9
:10073000742D35D07A2D33D016E038E0E1682F469D
:1007400020468847B842054609D16C2F26D04FF481
:100750008060E168064320468847054604E06C2F28
:100760001AD04FF4807006430DB3A5F1410019284B
:1007700002D8203546F400664A46294620462660BF
:100780004E46FFF75BFD80B101280BD0F61D26F029
:10079000070000F1080956E74020E4E78020D8E789
:1007A0000020D6E706F104094DE7284652E7206A03
:1007B000BDE8F09F4593000030B505460B462A463C
:1007C00013F8014B12F8010B08B1A042F8D01CB18C
:1007D000002802D06D1CF1E7284630BD10B5431C3F
:1007E00002E010F8011B71B18107FAD14FF001321C
:1007F00002C88C1A8C4314EAC211F9D0C01A0A0636
:1008000003D0C01E10BDC01A10BD0A0401D0801E46
:1008100010BD0902FCD0401E10BD40EA010370B5B6
:100820009B072ED14FF00136042A2AD308C810C9DD
:100830009D1B9D43121F15EAC61517D0D8B2E1B211
:10084000401A50EA056110D198B2A1B2401A50EA9C
:1008500005410AD123F07F4024F07F41401A50EA3D
:10086000052102D1180EA0EB146070BDA342DBD0AD
:1008700018BA21BA884201D9012070BD4FF0FF306B
:1008800070BD0AB9002070BD10F8013B11F8014B92
:1008900063B1A3420AD1521E08D010F8013B11F8EF
:1008A000014B1BB1A34201D1521EEDD1181B70BDEB
:1008B000032A40F2308010F0030C00F0158011F88C
:1008C000013BBCF1020F624498BF11F801CB00F864
:1008D000013B38BF11F8013BA2F1040298BF00F8B8
:1008E00001CB38BF00F8013B11F0030300F0258075
:1008F000083AC0F0088051F8043B083A51F804CB9C
:10090000A0E80810F5E7121D5CBF51F8043B40F861
:10091000043BAFF30080D20724BF11F8013B11F86C
:1009200001CB48BF11F8012B24BF00F8013B00F8B0
:1009300001CB48BF00F8012B704710B5203AC0F03A
:100940000B80B1E81850203AA0E81850B1E81850D0
:10095000A0E81850BFF4F5AF5FEA027C24BFB1E80D
:100960001850A0E8185044BF18C918C0BDE810407E
:100970005FEA827C24BF51F8043B40F8043B08BF87
:100980007047D20728BF31F8023B48BF11F8012B4E
:1009900028BF20F8023B48BF00F8012B70474FF0FA
:1009A00000020429C0F0128010F0030C00F01B803C
:1009B000CCF1040CBCF1020F18BF00F8012BA8BF4A
:1009C00020F8022BA1EB0C0100F00DB85FEAC17C0E
:1009D00024BF00F8012B00F8012B48BF00F8012BC1
:1009E00070474FF0000200B51346944696462039F2
:1009F00022BFA0E80C50A0E80C50B1F12001BFF4D8
:100A0000F7AF090728BFA0E80C5048BF0CC05DF83D
:100A100004EB890028BF40F8042B08BF704748BF8B
:100A200020F8022B11F0804F18BF00F8012B7047FF
:100A3000704770477047000010B500F005FC001DBE
:100A400010BD00BFE9780000004870471075012014
:100A5000704770477047704738B504460A46002013
:100A60006946AFF30080002808BF38BD02460099F0
:100A7000204600F0F1FB012038BD012000F0B2BE9D
:100A8000F8B5AFF30080054600200C46102000BFEB
:100A90000646A819A0420DD9324669460020AFF398
:100AA0000080070008BF00F09DFE0098A04218BF1C
:100AB0000546C419FFF7C8FF05600746F01D20F082
:100AC00007004619284600F00AF8B44208BFF8BDEE
:100AD000A21B31463868BDE8F84000F0BDBB0021DC
:100AE0000160C0E9011070471020704710B500F098
:100AF000AFFB006810BD10B5044600F0A9FB046010
:100B000010BD09684A0501D540B27047C905FCD53A
:100B100000B2704709684A0501D5C0B27047C905DF
:100B2000FCD580B270472DE9F0470D4699469246B4
:100B3000044600F124080168880604D5E06921F024
:100B40001001216000E00120A84201DD471B00E008
:100B50000027A1697A1902EB0900081AA061207820
:100B6000C00602D42046FFF78DFC002608E0D4E939
:100B700001211AF806009047206A401C761C20626A
:100B80004E45F4DB2078C0060AD52046FFF77AFCF4
:100B900006E0D4E9012130209047206A401C206201
:100BA000381EA7F10107F4DC07E0D4E9012118F8A9
:100BB00005009047206A401C2062281EA5F101050F
:100BC000F3DC2046FFF774FC2078000602D50220F3
:100BD000BDE8F0870120FBE711680268006A530551
:100BE00001D508700AE0D30501D5088006E0130698
:100BF00003D5C217C1E9000200E008600120704778
:100C000070472DE9FF4F0C461E464FF0FF378BB063
:100C1000D2E90001DDF860800A908A46C1F30A55E6
:100C200005B93D46002108464FF00000BAF1000F1B
:100C300000F4400005DA00EB80004FF4400101EAC7
:100C400050004FEA9059B9F1010F00DDB9460A98FA
:100C500050EA4A000ED044F61050A5F2FF35454345
:100C60002F14B8F1000F1ED07542291E1EDDC9F1E8
:100C700000021CE0B8F1010F4FF0000001D030215C
:100C800003E0F24305E02154401CB042FBDB304658
:100C90000022002121540B99C1F80880C1E90020ED
:100CA0000FB0BDE8F08FBD1B6D1CDEE74A4600DAD1
:100CB000694206A800F004FD06AB93E8070003AB09
:100CC00083E8070050460A9900F056FE8DE80700B9
:100CD000A0F500501F3800900398002D0ADD42F265
:100CE0001F014A460844002303A90390684601F007
:100CF000BFF809E0A0F500504A461F38002303A9B9
:100D00000390684601F0C9F88DE807000004000C64
:100D100003D04FF0FF30410800E01046B8F1000F5B
:100D200003D00022009215461EE0751E05D400F087
:100D3000ADFA303262556D1EF9D5B3460122084333
:100D400002D000227F1C04E02078302801D100224C
:100D50007F1E002A099784D01DE0112D07DA00F0CC
:100D600095FA303262556D1C50EA0102F5D1084304
:100D700002D00098C8B10EE00021681E05E0235C97
:100D8000625C63542254401E491C8142F7DBAB462F
:100D9000A81B401E0990002004F80B000B98099A2C
:100DA000C0F80880C0E9002B7AE711264FF0000850
:100DB00057E72DE9F04F88460446D21D22F007017F
:100DC00091B0D1E90001CDE90A0104F001F8024631
:100DD0000B98C00F01D02D2007E02068810701D5B6
:100DE0002B2002E0202101EAC000032A099001D053
:100DF000072A05DB03464146204600F00BFC0BE1C9
:100E00002078800601D5E06900E00620B8F1650F82
:100E1000814606D0B8F1660F18D0B8F1670F70D1CF
:100E200031E00020B9F1110F009001DB112301E046
:100E300009F101030AAA01A90CA8FFF7E2FEDDE906
:100E40000C70002609F10105834647E001204B465E
:100E500000904FF000470AAA01A90CA8FFF7D1FEA5
:100E6000DDE90DB00C995D46002610B909F10100CD
:100E70000D18B9EB050003D4C0F1FF3609F10105E7
:100E8000A5EB09002BE0B9F1010F01DA4FF00109E0
:100E90000020B9F1110F0090484601DD112300E058
:100EA00003460AAA01A90CA8FFF7ABFEDDE90C7006
:100EB0004D4600268346207800070AD4AB4500DA69
:100EC0005D4601A8012D04DD411911F8011C3029EE
:100ED00007D04F4502DA17F1040F04DA01208246E9
:100EE0000FE06D1EEEE7002F02DCED1B3E4403E039
:100EF000781CA84200DD7D1CB81B00F1010A4FF0F0
:100F000000472078000703D4AA4501DB4FF0FF3AE1
:100F10000021B7F1004F0DF143088DF8431024D0A4
:100F200002202B23002F01DA7F422D230A21021EEB
:100F3000A0F1010000DC5FB197FBF1FC97FBF1F23F
:100F400001FB1C7C17460CF1300C08F801CDEEE7D4
:100F5000A8F1010003702188090501D5452100E0B1
:100F60006521A0F1010800F8011C09980FA9A1EB67
:100F70000807FF1D00B10120411901EBEA70A169CA
:100F80003844081A401EA0612078C00602D42046CA
:100F9000FFF778FA099828B1D4E901219047206A2F
:100FA000401C20622078C00622D52046FFF76AFA4E
:100FB0001EE0002E04DBB34502DD01A8805D00E0E9
:100FC0003020D4E901219047206A401C2062761C21
:100FD000AAF101005FEA000A0AD100F035F9C06801
:100FE0000168405CD4E901219047206A401C2062DE
:100FF000281EA5F10105DCDC07E0D4E9012118F881
:10100000010B9047206A401C2062381EA7F101079F
:10101000F3DC2046FFF74CFA032011B041E6000054
:1010200001694A1C02610878704700B58FB0CDE9AC
:1010300001310021059105497944CDE9031011469C
:101040006846FFF7F5FA0FB000BD0000E5FFFFFFAF
:101050000A6802F8010B0A607047D1E900239A423E
:1010600002D2531C0B601070704710B5436913B166
:10107000AFF3008001E0FFF72CFA012010BD1278D9
:1010800000F124010A7000224A700122EDE7116884
:101090004FF0FF32E9E700002DE9FF5F15468A4671
:1010A0000446DFF8AC80F8440027D8E900103E463B
:1010B000CDE9001010E03AF816106A4602A800F0D8
:1010C00071FB411C07D02178890603D5E2693918E4
:1010D00091420DD80744761C2078800602D5E0693D
:1010E000B84205DDAE42E6DB3AF816000028E2D150
:1010F000A069C01BA0612046FFF7C4F9D8E9001021
:10110000CDE90010002017E03AF818106A4602A84E
:1011100000F048FBB0F1FF3F81460BD000250DF1F8
:10112000080B05E0D4E901211BF8050090476D1C70
:101130004D45F7D308F10100B0428046E4DB206A58
:10114000384420622046FFF7B3F9BDE8FF9F000056
:101150007E8900002DE9F0418046D21D22F0070271
:101160000025D2E90002F52915A614D0011E72F15E
:10117000000106DA0023D0EB030063EB020211A6A4
:1011800008E0D8F800108B0701D50FA602E0490748
:1011900001D50EA601251146002408F1240704E01C
:1011A00000F074F830323A55641C50EA0102F7D16D
:1011B0002B46324621464046BDE8F041FFF7B3BC1E
:1011C000000000002D0000002B00000020000000A7
:1011D00030B4002100F1240408E002F00705D20831
:1011E000303542EA4372DB086554491C52EA030574
:1011F000F3D10468002310A2250707D5A40600D464
:1012000021B1C46901230DA2641EC46130BCFFF783
:101210008ABC10B5044621461068FFF77BFC0246E5
:101220002046BDE810400023D2E7D21D22F007017E
:10123000D1E90023CCE700000000000030000000EE
:101240000048704708750120004870472875012044
:101250000048704708750120034640688C46002806
:1012600018BF88423CBF03464068F8D3186818444A
:10127000884207D00CF1030020F00700001D411A3E
:10128000521A0146081D0A60FFF797B830B5B0F151
:101290000A024FEA900E71F100034EEA817EB0EB34
:1012A0000E0061EB91014FEA101E4EEA017E10EB39
:1012B0000E0041EB11114FEA102E4EEA016E10EBB9
:1012C0000E0041EB11214FEA104E4EEA014E10EB99
:1012D0000E0041EB1141401841F100014FEAD000EE
:1012E00040EA41704FEAD10110EB80054FEA8104DA
:1012F00044EA907444EB01046D1944EB0404521B5E
:10130000A3414FF0000348BF0A3200D530BD401C56
:1013100041F1000130BD00002DE9F04F04460D46BB
:10132000D21D22F0070089B0D0E90097484639461F
:1013300003F04EFD0246F80F01D02D2307E0206890
:10134000810701D52B2302E0202101EAC0038DF89B
:1013500020300BB1012000E00020032A824601D09A
:10136000072A04DB2946204600F054F93FE12078A3
:10137000800601D40D2500E0E569C7F30A560D2D5E
:1013800049DA00214FEA175B08464FF00000002FB2
:1013900000F4400007DA00EB80004FF4400100EB5E
:1013A000D07001EA60008115012901DD4FF0FF31A5
:1013B00000224FEA850CBCF1180F06D31346ACF19E
:1013C00018004FF08052C24003E04FF4801323FA1C
:1013D0000CF30CF10C0CBCF1200F04D3ACF1200C7D
:1013E00009FA0CF001E007FA0CF000294FF0004870
:1013F00001DD18B90FE00ED140450CD319EB0209FD
:101400005F4121B9404502D19F4329EA0209BBEB64
:10141000175F00D0761C2088000502D57B487844F1
:1014200002E07A487844193808AA302302F80A30D2
:10143000037C0AF10101002E0AF1020A53546A46A4
:1014400002DC4FF0300101E04FF031014FF00108B4
:101450008DF8001002D0A6F2FF3603E059EA4701EA
:1014600000D06B4E002D02DC2178090704D54FF027
:1014700002082E218DF80110C44600210BE0C7F3AD
:1014800003433F01C35C491C6D1E02F80830052967
:1014900008F1010801DA002DF1DC00210CE000EB7D
:1014A0001973491C1B786D1E082902F808304FEA91
:1014B000091908F1010801DA002DF0DC21688B061A
:1014C00002D516E0A8F10108E04505DD02EB0803AE
:1014D00013F8013C302BF5D0B8F1000F09DD02EB19
:1014E000080313F8013C2E2B03D1090701D4A8F1FE
:1014F0000108002D05DD3E2102F808106D1E08F1DF
:101500000108407C002E02F8080008F1010804DA06
:101510002D20764202F8080002E02B2002F8080095
:101520000A214FF47A70864208F101080BDB96FB22
:10153000F0F3303302F8083096FBF0F308F10108BD
:1015400000FB136601E0642E0CDB642096FBF0F3D5
:10155000303302F8083096FBF0F308F1010800FB85
:10156000136601E00A2E06DB96FBF1F0303002F83C
:10157000080008F1010896FBF1F001FB1060303023
:1015800002F80800A16908F1010808EB050202EB66
:101590000A00081AA0612078C00602D42046FEF78F
:1015A00071FF216A08AE01EB0A00206204E0D4E971
:1015B000012116F8010B9047BAF1010AF7D2207801
:1015C000C00602D52046FEF75DFF6E4609E016F81C
:1015D000010B3E280FD0D4E901219047206A401C1E
:1015E0002062B8F10108F2D22046FEF761FF09B08F
:1015F0000320BDE8F08F206A2844206203E0D4E98C
:101600000121302090476D1EEBD3F8E729860000BA
:1016100002FCFFFF2DE9F0411F4604460326016846
:10162000072A01F4006004DB08B116A505E016A541
:1016300003E008B115A500E015A521F01000206019
:10164000A069C01EA0610FB1401EA0612046FEF738
:1016500019FF4FB1D4E9012138469047206A401C58
:101660002062C01C206206E0206AFAE7D4E901216A
:1016700015F8010B9047761EF8D22046FEF718FFAA
:10168000BDE8F0814E414E006E616E00494E46004D
:10169000696E660010B5436913B1AFF3008001E0D5
:1016A000FFF7FAFC012010BD128800F124018284AA
:1016B0000022C2840122EDE711684FF0FF32E9E712
:1016C0002DE9F047814616468AB0354878440DC862
:1016D0008DE80D0032487844801C03AC0DC884E8C6
:1016E0000D0041F69B300844372190FBF1F290FB4E
:1016F000F1F5A5F1800501FB12041B3C02D5644203
:10170000012000E00020DFF898A080460027FA447E
:10171000AAF1BE0A0EE0E0070AD03246684607EB9F
:10172000470101230AEB810100F0B7FB8DE80700B8
:1017300064107F1C002CEED1194F7F44AE3F19E09E
:10174000E80715D007EB04100DF1180A90E80E0019
:101750008AE80E00C068F04201D19819089032461C
:10176000012306A903A800F098FB03AB83E8070058
:101770006D10641C002DE3D14FF001033246694621
:10178000B8F1000F03A802D000F072FB01E000F0F6
:1017900084FBC9E90001C9F808200AB0BDE8F08758
:1017A0000C84000070B516460C460546FFF744F958
:1017B000036893F80101012806D0FF2C0FD8185DAB
:1017C00068B101202C7070BDD3F807013246214664
:1017D00003F2071303442846BDE8704018474FF052
:1017E000FF3070BD10B500F039F8BDE8104000F0D2
:1017F0002FB870477546FFF723FDAE4605006946D2
:10180000534620F00700854618B020B5FEF794FD3A
:10181000BDE820404FF000064FF000074FF00008F1
:101820004FF0000B21F00701AC46ACE8C009ACE872
:10183000C009ACE8C009ACE8C0098D46704710B5D6
:101840000446AFF300802046BDE81040FEF75FBDC0
:10185000002801D000F06AB87047000010B50128D8
:1018600005D0002103A000F067F8012010BD09A1F8
:10187000F8E7000053494752544D454D3A204F7503
:1018800074206F662068656170206D656D6F727978
:10189000000000003A2048656170206D656D6F7230
:1018A0007920636F72727570746564004FF0013C4B
:1018B00050F8042B51F8043B9A4221D1A2EB0C03BF
:1018C000934313EACC1317D150F8042B51F8043B7F
:1018D0009A4215D1A2EB0C03934313EACC130BD11C
:1018E00050F8042B51F8043B9A4209D1A2EB0C03A7
:1018F000934313EACC13DBD04FF00000704700BFD6
:10190000D01A01BAB1FA81F101F0180122FA01F0FE
:10191000CB40C1F12001DBB2C0B2C01A2CFA01F3F6
:10192000D11A914311EAC311E6D170470149182039
:10193000ABBEFEE72600020070B505460C460A2045
:1019400000E06D1C00F011F835B128780028F8D1BE
:1019500002E0641C00F009F814B120780028F8D1E6
:10196000BDE870400A20AFF3008008B569468DF8E5
:1019700000000320ABBE08BD5FEA400C08BF91F039
:10198000000F4FEA8C234FEAC12243EA51514FEA3C
:101990001C5018BF00F5F0404FEA300018BF41F06E
:1019A00000415FEA6C5C00F02980BCF1FF3F08BF9A
:1019B00040F080407047130C06BF12044FF0100C2B
:1019C0004FF0000C130E04BF12020CF1080C130FA1
:1019D00004BF12010CF1040C930F04BF92000CF130
:1019E000020CD30F04BF52000CF1010C11464FF052
:1019F0000002A0F11F00A0EB0C00704711F0004F97
:101A000008BF704731F000413FF4D5AF0B0C06BF63
:101A100009044FF0100C4FF0000C0B0E04BF09022C
:101A20000CF1080C0B0F04BF09010CF1040C8B0F17
:101A300004BF89000CF1020CCB0F04BF49000CF16C
:101A4000010CCCF12003A0EB0C0022FA03F302FA04
:101A50000CF241EA030100F10100704720F07F4CD5
:101A600080EA030023F07F47ACEB070303F57C53C8
:101A700000F0004003F1FF032DE980494FEA154BC8
:101A800009B44FEA144325EA0B4E24EA03480FF247
:101A9000042606EB132749083E785FEA320203FB6F
:101AA0000667C7F5000707FB06F64FEA54374FEA0B
:101AB000D64606F1020607FB066CCCF1005C4FEA45
:101AC0001C472CEA074C07FB06F40CFB06F504EB5D
:101AD00015464FEA961634BF00204FF000404FEAFB
:101AE000D13706FB07FC4FEA1C4C0CFB0BF7D21B53
:101AF00003FB0CF761EB07010CFB0EF7B0EB0740A3
:101B000072EB17420CFB08F734BFA2EB0742B2EBB3
:101B1000074261EB17414FEA0C444FEA910706FB7D
:101B200007FC4FEA1C4C0CFB0BF7B0EBC74072EB09
:101B3000573203FB0CF734BFA2EBC742B2EBC742EC
:101B400061EB57310CFB0EF7B0EBC70072EB57722D
:101B50000CFB08F734BFA2EBC702B2EBC70261EB84
:101B60005771039F4FEA816141EA921104EBCC0463
:101B70004FEAD1374FEA826206FB07FC42EA901235
:101B80004FEA80604FEA1C4C0CFB0BF7D21B03FBA7
:101B90000CF761EB07010CFB0EF7B0EB074072EBA3
:101BA00017420CFB08F734BFA2EB0742B2EB074227
:101BB00061EB17414FEA8C554FEA910704EB9C24E7
:101BC00006FB07FC4FEA1C4C0CFB0BF7B0EBC740C5
:101BD00072EB573203FB0CF734BFA2EBC742B2EBF8
:101BE000C74261EB57310CFB0EF7B0EBC70072EB4D
:101BF00057720CFB08F734BFA2EBC702B2EBC70267
:101C000061EB577115EB4C254FEA816141EA921166
:101C10004FEA82624FEAD13742EA901206FB07FC94
:101C200044F100044FEA80604FEA1C4C0CFB0BF7B8
:101C3000D21B03FB0CF761EB07010CFB0EF7B0EBBB
:101C4000074072EB17420CFB08F734BFA2EB0742C8
:101C5000B2EB074261EB174115EB1C154FEA8131DE
:101C600041EA92414FEA823242EA90424FEA8030A2
:101C70004FEA0C7644F1000448EA03434EEA0B486D
:101C80004FF0000EB2EB080C71EB030724BF624665
:101C900039464EEB0E0E4FF0000B001852414941F1
:101CA0004BEB0B0BB2EB080C71EB03077BF1000B5A
:101CB00024BF624639464EEB0E0E4FF0000B001863
:101CC000524149414BEB0B0BB2EB080C71EB030794
:101CD0007BF1000B24BF624639464EEB0E0E51EAF3
:101CE000020718BF46F0010616EB0E7655F100020A
:101CF00054F1000103D5BDE88901BDE80088BDE8C5
:101D00008901BDE80048B619524141EB0101A3F138
:101D10000103704780807F7E7D7C7B7A797877763F
:101D200076757473727171706F6E6E6D6C6C6B6AB8
:101D30006A69686867666665646463636261616056
:101D4000605F5F5E5E5D5D5C5C5B5B5A5A595958D3
:101D5000585757565655555554545353525252513D
:101D6000515050504F4F4F4E4E4D4D4D4C4C4C4B93
:101D70004B4B4A4A4A4949494848484747474746DA
:101D80004646454545444444444343434342424216
:101D900042414141002B9C4630D477002BD01CB5EA
:101DA0004FEA370703B44FF010004FF01001BAF1BB
:101DB000000F06D0BCF1000FDCBF40F0080040F07F
:101DC00008014FF000000FBCBDE810400BF1010B03
:101DD000BBF1010F08BF5FEA170722BF12F1010232
:101DE00011F101014FF0004143F1000300F0004008
:101DF00043EA00007047F9D35708D0E746EA0646A1
:101E000013F1400F4FEA16461FDD13F1200FDFBF1D
:101E100016430A46002120335B42BED0C3F120079F
:101E200046EA064602FA07F74FEA164646EA07066A
:101E3000C3F1200722FA03F201FA07F721FA03F1AE
:101E40004FF0000342EA0702A7E746EA020646EA25
:101E500006464FEA164646EA0106BCBF46EA064673
:101E6000360C4FF000034FF000024FF0000194E7F2
:101E70002DE9804C9A46934670B491E8380007C823
:101E800031EA400C48BF34EA430C03D5FFF7E6FDC6
:101E9000FFF780FFF0BCBDE8008C2DE9804C9A462E
:101EA000934670B491E8380007C810F0804F08BF1F
:101EB00013F0804F03D100F005F8FFF76BFFF0BC83
:101EC000BDE8008C20F07F4780EA030023F07F4CC0
:101ED00007EB0C03A3F57C5300F00040A3F1FE03D5
:101EE00092F0000F00F0B38095F0000F00F07780C3
:101EF0002DE901494FEA11404FEA144621EA004812
:101F000000FB06FC24EA064708FB06F607FB08F878
:101F100000FB07F718EB06484CEB164C4FEA124B48
:101F200018EB07484FEA15464CEB174022EA0B4ED8
:101F30000BFB06FC25EA06470EFB06F607FB0EFE2A
:101F40000BFB07F71EEB064E4CEB164C4FF0000652
:101F50001EEB074E4CEB174B18EB0B0840F1000043
:101F600018EB0E0B58EB000840F100008F1A4FF0F1
:101F700000013CBFC943661B14BFB5EB040C002134
:101F80003CBFC943F61B4FEA17444EEA8E0E27EAC0
:101F900004454FEA1C4704FB07622CEA074C05FB8B
:101FA00007F70CFB05F604FB0CFC16EB074642EBAF
:101FB000174216EB0C4642EB1C421BEB060658EB95
:101FC0000202414146EA9E0601D5BDE80189B619E3
:101FD000524141EB0101A3F10103BDE801894FEA40
:101FE00014454FEA114724EA054621EA074C05FB50
:101FF00007F406FB07F70CFB06F105FB0CFC11EBE5
:10200000074144EB17444FEA124711EB0C4144EBF4
:102010001C4422EA074C05FB07F206FB07F70CFB02
:1020200006F605FB0CFC16EB074642EB174216EBD7
:102030000C4642EB1C456A1854F1000148BF70473A
:10204000B619524141EB0101A3F10103704795F02C
:10205000000F37D04FEA11424FEA144721EA0246F7
:1020600024EA074C02FB07F106FB07F70CFB06F41A
:1020700002FB0CFC14EB074441EB17414FEA1547F8
:1020800014EB0C4441EB1C4125EA074C02FB07F51D
:1020900006FB07F70CFB06F602FB0CFC16EB0746EB
:1020A00045EB174516EB0C4645EB1C42121951F156
:1020B000000148BF7047B619524141EB0101A3F13D
:1020C000010370474FEA14454FEA114724EA0546D9
:1020D00021EA074C05FB07F106FB07F70CFB06F2AC
:1020E0004FF0000605FB0CFC12EB074241EB1741D9
:1020F00012EB0C4251EB1C4148BF7047921841EB68
:102100000101A3F10103704710B504461CA1FEF7BD
:1021100053FB08B1002010BD1BA12046FEF74CFB6D
:1021200008B1012010BD19A12046FEF745FB08B1FA
:10213000022010BD17A12046FEF73EFB08B1032088
:1021400010BD16A12046FEF737FB08B1042010BDD4
:1021500014A12046FEF730FB08B1052010BD13A1E5
:102160002046FEF729FB08B1062010BD11A120462C
:10217000FEF722FB08B1072010BD4FF0FF3010BD65
:10218000676574696E666F0072737400636C6F7359
:10219000650000006F70656E000000006E726632B0
:1021A000340000006E726674780000006E72667211
:1021B000780000004F4B0000FEE70000074A904205
:1021C00001D2074801E005481038064A8B0001EAB1
:1021D000020101D5C1607047816070471064024000
:1021E000006002407D0F7D0F0029016802D041F0A0
:1021F000010101E021F00101016070472DE9F04388
:10220000016821F0010101600021016041608160ED
:10221000C1600161212141613C493C4A3D251039A1
:10222000904202D18D60BDE8F083384A4FF4746665
:102230001832904201D18E60F5E7344A4FF474179A
:102240003032904201D18F60EDE7304A4FF0746C2C
:102250004832904202D1C1F808C0E4E72B4B2C4A27
:102260006033984201D1CA60DDE7284C294B7834AD
:10227000A04201D1CB60D6E7DFF89080264C08F170
:102280009008404501D1CC60CDE7DFF880804FF069
:102290003D5908F1A808404502D1C1F80C90C2E7A9
:1022A0001E49DFF878800839404501D10D60BAE752
:1022B0001A4D1835A84201D10E60B4E7174D3035DC
:1022C000A84201D10F60AEE7144D4835A84202D1B3
:1022D000C1F800C0A7E7114D10496035091FA84299
:1022E00001D10A609FE70D4A7832904201D10B601C
:1022F00099E70A4A9032904201D10C6093E7074A6D
:10230000A83290428FD1C1F800908CE71060024053
:102310003D000020400F002000003D2010640240DE
:10232000406880B2704700000246094B00209A4284
:1023300001D2084A01E0064A103A8B0001D55268E2
:1023400000E01268044B1A400A4200D00120704796
:1023500010640240006002407D0F7D0F30B50368BD
:10236000124ACC6813400A682243D1E905452C4340
:102370002243CC6922430C6A22434C6A22438C6A72
:1023800022434C6B22438C6B22431A430260426906
:1023900022F00703D1E90B2422431A4342610A6960
:1023A00042604A6882608968C16030BD3F801CF02D
:1023B000416070477047000010B5012000F062F8DE
:1023C00000280DD00748817929B90121817106487B
:1023D000064900680860BDE81040012000F04CB8D4
:1023E00010BD000098740120A0470020704000201C
:1023F00010B5022000F046F800280DD00748C1793A
:1024000029B90121C1710648064900684860BDE844
:102410001040022000F030B810BD00009874012078
:10242000A04700207040002010B5102000F02AF8CE
:10243000002809D00548417909B901214171BDE859
:102440001040102000F018B810BD00009874012052
:1024500010B5202000F016F8002809D005480179B1
:1024600009B901210171BDE81040202000F004B835
:1024700010BD0000987401200149086070470000F9
:10248000143C0140034A0146002012680A4200D071
:1024900001207047143C014030B51A4A8379016825
:1024A00053B313688B431360111D0B680468A34377
:1024B0000B60017911440B68046823430B60114BD6
:1024C000083319680468A14319601C1D2168056858
:1024D000A94321604179102905D011440A68006898
:1024E00002430A6030BD196802681143196021680F
:1024F00000680143216030BD0079104402688A43BE
:10250000026030BD003C014070B50446EFF3138516
:1025100071B6067843784FF4847203EB431004EBF2
:10252000C0009E4202D1A378102B10D0001DFEF7F0
:1025300004FA6078401C00F00F006070A078401C26
:10254000A07005F0010080F31388022070BD001D0B
:10255000FEF7F3F96078401C00F00F0060702078FF
:10256000401C00F00F00207005F0010080F313887C
:10257000002070BD4178017000218170704770B5F6
:102580000B460446EFF3138571B6007861788842F4
:1025900001D1A178B9B100EB401004EBC0014FF4B8
:1025A00084721846091DFEF7C8F92078401C00F017
:1025B0000F002070A078401EA07005F0010080F38D
:1025C0001388022070BD05F0010080F313880120FC
:1025D00070BDF0B5002201274FF0030C0B6807FA1D
:1025E00002F52B40AB422CD1066853000CFA03F4E1
:1025F000A64306600E79D0F800E09E4046EA0E063B
:1026000006600E79012E01D0022E12D18668A643F3
:1026100086604E79D0F808E09E4046EA0E06866055
:102620004668AE43466045688E799640B6B23543FB
:102630004560C568A543C560CC799C40C3681C4310
:10264000C460521C102AC9D3F0BD4B07DB0E9A4060
:10265000C90810B500EB8100016A0F249C40A1431A
:102660000162016A1143016210BD41837047018319
:10267000704700000148006870470000E8740120BE
:1026800010B500F0FBF8882000F0C4F800F042F923
:10269000232000F0BFF800F03DF9222000F0BAF846
:1026A00000F038F9BDE8104000F00EB91CB501216A
:1026B000042000F01FFF0121082000F01BFF402034
:1026C000012400908DF8044000208DF806000320BE
:1026D0008DF805008DF8074069460948FFF779FF36
:1026E0006003009069460748FFF773FF0648C0F88B
:1026F000B4420648C0F89842FFF7C2FF1CBD000074
:1027000000080240000C02400080414200004142AB
:10271000FEE7000070B50E4C0025C4F8B4520D4819
:10272000016821F440510160016841F48051016069
:102730000948C0F89852022004F52D7403F072FC89
:1027400001202060022003F06DFC256070BD0000B8
:1027500000804142000802400000414270B50E4C2A
:102760000026C4F8B4620D48016821F440510160AC
:10277000016841F48051016009480125C0F8985270
:10278000022004F52D7403F04DFC2560022003F0B7
:1027900049FC266070BD00000080414200080240F4
:1027A000000041422DE9F0478246174800240168A5
:1027B00021F44051016001680160144EDFF850902F
:1027C000254627464FF00108C6F8B472022003F0F0
:1027D00029FCC6F8B4826006040ED9F8180208B1C4
:1027E000641CE4B2012003F01DFC6D1CEDB2082D49
:1027F000EAD3BAF1000F04D0FFF78CFF2046BDE802
:10280000F087FFF7ABFFF9E7000802400080414284
:10281000000041422DE9F04705461548016821F4C2
:1028200040510160016841F480510160114E002760
:10283000C6F8B472DFF840803C464FF00109E90960
:10284000C8F898126806050E022003F0EBFBC6F8E4
:10285000B492022003F0E6FBC6F8B472022003F043
:10286000E1FB641CE4B2082CE9D3BDE8F08700006A
:1028700000080240008041420000414270B50F480C
:10288000016821F440510160016841F48051016008
:102890000B4E0120C6F898020A4DC5F8B402042078
:1028A00005F52D7506F5267603F0BCFB0024346093
:1028B000042003F0B7FB2C6070BD0000000802404C
:1028C000000041420080414270B50F48016821F488
:1028D00040510160016841F4805101600B4D0020BE
:1028E000C5F8B4020A4CC4F89802042004F5267412
:1028F00005F52D7503F096FB012028602060BDE8EA
:102900007040042003F08EBB00080240008041426A
:10291000000041422DE9F04112480024016821F4F1
:1029200040510160016801600F4D0127C5F89872A0
:10293000384603F077FB0D4EC6F8B472012003F061
:1029400071FB08E0641CE4B2FA2C04D9FFF7BCFF69
:102950000120BDE8F081D5F818020028F2D1C6F8B0
:10296000B402F6E700080240000041420080414204
:1029700002494CF6CC40086070470000003000402F
:1029800000F012B810B545F2555000F021F80520BE
:1029900000F012F84FF47A6000F014F800F004F838
:1029A000BDE81040FFF7E4BF02494AF6AA200860DC
:1029B0007047000000300040014948607047000047
:1029C000003000400149886070470000003000403E
:1029D00001490860704700000030004030B50C49E4
:1029E0000C480D4B8D79006800240122012D05D182
:1029F0001D681435A84201D90A728C71CD79012D58
:102A000005D15B681433984201D94A72CC7130BD4C
:102A100098740120A04700207040002030B585B098
:102A20000121062000F066FD0121880300F086FDEB
:102A3000002503208DF8105003908DF811500124CB
:102A40008DF8134003A92948FFF7C3FD30200390F8
:102A500003A92748FFF7BDFD0421022001F028F952
:102A60000521022001F024F90021012001F020F9C4
:102A70000121084601F01CF9102000908DF8045047
:102A800008208DF805008DF806406846FFF704FD24
:102A9000202000906846FFF7FFFC68460094FFF78F
:102AA000FBFC022568460095FFF7F6FC0A208DF82E
:102AB00008008DF809508DF80A408DF80B4002A8E7
:102AC00000F086FA17208DF8080002A800F080FABE
:102AD00006208DF8080002A800F07AFA07208DF889
:102AE000080002A800F074FA05B030BD00040240EE
:102AF0000008024070B5104C6088B0F57A7F01D3B1
:102B00000021617018B1617821B1401C03E00121FE
:102B10006170FAE7401E094D608081B2284601F0DD
:102B20000AFB6188284601F008FB61882846BDE859
:102B3000704001F004BB00002800002000000140AC
:102B4000FEE70000FEB541F6FF7400F09DFC00F0CA
:102B5000A9FD0121080700F0D9FC012000F08EFC3E
:102B60000121002000F07AFF002000F08FFE0646D1
:102B700001461DA004F008FE45F25005AE422ED0DD
:102B8000012000F055FD04E0641CA4B20A2003F00B
:102B90003DFA612000F032FD0028F5D00CB34FF46F
:102BA000007000F051FD012000F048FD7F200190F1
:102BB000FF20029000200090684600F03FFE402376
:102BC00000222F21152000F015FF072302220821E3
:102BD000142000F001FF2946002000F03FFF0020F4
:102BE000FEBD0120FEBD000076616C75653D30784C
:102BF00025780D0A000000007047000010B504465B
:102C00000EA1FDF7D9FD08B1002010BD0DA1204691
:102C1000FDF7D2FD08B1012010BD0BA12046FDF744
:102C2000CBFD08B1022010BD09A12046FDF7C4FD6F
:102C300008B1032010BD4FF0FF3010BD6765746907
:102C40006E666F0072737400636C6F7365000000D2
:102C50006F70656E000000001CB510A0D0E9001078
:102C6000CDE90010202000F0E3FF05226946302066
:102C700000F07AF905226946102000F09FF8002044
:102C800069460A5CA52A03D1401CC0B20528F8D3C6
:102C9000052801D001201CBD00201CBDA5A5A5A5AF
:102CA000A50000002DE9FC410121022000F022FCDA
:102CB0004FF001084FF4C07000908DF8048000259B
:102CC0008DF8065003208DF80500214F44468DF8FD
:102CD000078069463846FFF77CFC7E158DF8045066
:102CE00000968DF8074069463846FFF772FC31467A
:102CF0003846FFF7BCFC00F01FFF00F0ABF81548AA
:102D0000C0F8A052C0F89C42F500134E4FF4FA7779
:102D100012E0002429463046FFF7A9FC384603F0AC
:102D200075F929463046FFF7A0FC384603F06EF9E6
:102D3000641CE4B20A2CEDD3FFF78EFF0028E8D123
:102D40000649074881F8088004F09AFCBDE8FC8138
:102D500000040240008040420010024098740120AC
:102D6000A053012010B5134C0020C4F8A002052286
:102D700011492A2004F5287400F0F6F801212120D9
:102D800000F010F90121222000F00CF92821252063
:102D900000F008F92021312000F004F90F2126204D
:102DA00000F000F90F21202000F0FCF80120206045
:102DB00010BD000000804042DD8F00082DE9F04189
:102DC0000C4F0E4600211546C7F89C1200F016FF66
:102DD0008046002405E0FF2000F010FF3055641C01
:102DE000E4B2AC42F7D30120C7F89C024046BDE8EC
:102DF000F08100000080404210B5074C0021C4F86B
:102E00009C1204F5277400F0F9FEFF2000F0F6FE96
:102E10000121216010BD00000080404270B50546D0
:102E2000202000F005FF0720FFF7E6FF04460146DB
:102E3000272000F0B7F860060AD520222946612035
:102E4000FFF7BCFFFF21E22000F0ACF8002070BDCE
:102E5000012070BD10B5144C86B00021204600F052
:102E6000F5FE0021ADF800104FF48270ADF80200BD
:102E7000ADF808106015ADF80A003820ADF80C0068
:102E8000ADF804100720ADF80610ADF80E10ADF83F
:102E900010006946204600F0EEFE0121204600F0B9
:102EA000D5FE06B010BD00000030014010B5164C34
:102EB0000020C4F8A00205221449302004F528742B
:102EC00000F052F811490522491D2A2000F04CF863
:102ED0000121212000F066F80121222000F062F893
:102EE0001A21242000F05EF82821252000F05AF84D
:102EF0000F21262000F056F80E21202000F052F875
:102F00000120206010BD000000804042D88F0008E2
:102F100070B50546202000F08BFE124C0020C4F84E
:102F2000A00220222946A02000F01EF80120C4F8AB
:102F3000A002D4F824020028FBD10720FFF75CFF91
:102F40000146C00608D5272000F02CF8FF21E1201B
:102F500000F028F8102070BD880601D5202070BD33
:102F6000FF2070BD008040422DE9F0410C4F0D461E
:102F700000211646C7F89C1200F040FE804600244F
:102F800005E015F8010B00F039FE641CE4B2B44210
:102F9000F7D30120C7F89C024046BDE8F08100004D
:102FA0000080404270B50D46084C01460020C4F830
:102FB0009C02084604F5277400F020FE06462846C9
:102FC00000F01CFE01202060304670BD00804042B1
:102FD00030B50F23C27801780125FAB1144A12687E
:102FE00001F1E02102F4E062C2F5E062C2F30722DF
:102FF000C2F10404D3404278A24084781C401443B8
:10300000220181F80024007800F01F018D40400962
:10301000800000F1E020C0F8005130BD01F01F0039
:1030200085404809800000F1E020C0F8805130BDA3
:103030000CED00E0024908430249086070470000B7
:103040000000FA050CED00E070B5002505F1B000B8
:10305000C0B2002100F050F90021084600F04CF900
:103060000021102000F048F900240121002000F088
:1030700043F9641CE4B2802CF7D36D1CEDB2082D2B
:10308000E4D370BD10B500218D2000F035F900218A
:10309000142000F031F90021BDE81040AF2000F00D
:1030A0002BB92DE9F05F834600258846580708D0E4
:1030B000012000EBD30081460E46CF080BEB020A3D
:1030C00013E0D808F7E73146584600F0DBF85C46D5
:1030D00007E00A980121405D6D1C00F00DF9641CA9
:1030E000E4B2A245F5D8761CF6B25FEA487001D08A
:1030F000781C00E038464844B042E4D8BDE8F09F70
:103100007CB50121022000F0F5F901208DF80400C2
:1031100000208DF806000320074D4FF478448DF809
:103120000500009469462846FFF753FA21462846D1
:10313000FFF79DFA7CBD00000004024070B5FFF768
:10314000DFFF4F4D4FF4006421462846FFF78FFA0A
:10315000642002F05BFF21462846FFF786FA6420D0
:1031600002F054FF21462846FFF781FA4FF4FA7027
:1031700002F04CFF0021FD2000F0BEF800211220DB
:1031800000F0BAF80021AE2000F0B6F80021D520FA
:1031900000F0B2F80021A02000F0AEF80021A82035
:1031A00000F0AAF800213F2000F0A6F80021D3206B
:1031B00000F0A2F80021084600F09EF8002140200F
:1031C00000F09AF80021A12000F096F80021C82014
:1031D00000F092F80021DA2000F08EF800210220A1
:1031E00000F08AF80021084600F086F80021D5207A
:1031F00000F082F80021802000F07EF80021D92024
:1032000000F07AF80021F12000F076F80021DA20B1
:1032100000F072F80021122000F06EF800218120E9
:1032200000F06AF80021BF2000F066F80021D920E4
:1032300000F062F80021252000F05EF80021DB207C
:1032400000F05AF80021342000F056F80021A420A4
:1032500000F052F80021A62000F04EF80021AF2027
:1032600000F04AF80021AF2000F046F8FFF7ECFE2E
:103270000021084600F006F8BDE87040FFF702BFE5
:103280000004024010B50446B031C8B2002100F07D
:1032900033F8102040EA1410002100F02DF804F05B
:1032A0000F00BDE8104040F00100002100F024B8FC
:1032B0002DE9F0411F4615460E468046FFF7E2FF16
:1032C000002407EB45150121285D00F015F8641C6A
:1032D000E4B2102CF7D3761CF1B24046FFF7D2FFD0
:1032E000002428190121007C00F006F8641CE4B2D7
:1032F000102CF6D3BDE8F0812DE9F0471C4E0546B1
:103300004FF4804A00295146304602D0FFF7AFF90A
:1033100001E0FFF7AAF94FF4805841463046FFF725
:10332000A4F900244FF400494FF4005739463046C1
:10333000FFF79BF928064946304602D5FFF797F973
:1033400001E0FFF792F939463046FFF790F9680639
:10335000641C050EE4B2082CE8D341463046FFF762
:1033600086F951463046BDE8F047FFF780B90000C6
:103370000004024070B501218AB0084600F0DEF872
:103380000121102000F0B6F84FF4F0400890022020
:103390008DF8240003208DF825000024354D8DF88C
:1033A00026408DF8274008A92846FFF712F9012288
:1033B0000B212846FFF749F901220C212846FFF787
:1033C00044F901220D212846FFF73FF901220E2181
:1033D0002846FFF73AF9A720ADF8140040F2E7308D
:1033E000254E0690ADF81C40ADF816408DF81E40F5
:1033F00005A9304600F0A6FE6020ADF800000120CF
:10340000ADF802000420ADF80400ADF80C4008202F
:10341000ADF80E004001ADF810004FF4FA750295BA
:10342000ADF812406946304600F0BAFD69463046B4
:10343000029500F0FFFD69463046029500F03EFE21
:103440000821304600F0ECFD0821304600F030FE47
:103450000821304600F062FE0121304600F06AFD8E
:103460000121304600F073FD0121304600F079FD66
:103470000AB070BD0010024000000140014908621E
:103480007047000000000E4210B501210C072046D5
:1034900000F048F82046BDE81040002100F042B896
:1034A0007047000010B500F0E3FA0448D0E90112BB
:1034B000BDE8104002A004F081B90000E8740120CA
:1034C000626F6172643A74656D703D2564204320BB
:1034D00068756D693D25642025250D0A00000000F2
:1034E000FA2901D201F0DEB87047FA2901D801F0BB
:1034F00061BA7047044A0029116801D0014300E015
:10350000814311607047000030380240044A0029AE
:10351000116801D0014300E0814311607047000051
:1035200040380240044A0029116801D0014300E0FC
:10353000814311607047000020380240044A00298E
:10354000116801D0014300E0814311607047000021
:1035500044380240044A0029116801D0014300E0C8
:1035600081431160704700002438024070B5204B41
:103570001968204C11F00C0104D06610042903D006
:10358000082903D004601BE0066019E0184A121FE6
:103590001168C1F38055116801F03F0115B1B6FB08
:1035A000F1F101E0B4FBF1F114681268C4F388147E
:1035B0006143C2F30142521C5200B1FBF2F10160BF
:1035C00019680F2202EA11110B4A545C0168E140AC
:1035D00041601C68072505EA9424145D21FA04F46F
:1035E00084601B6805EA5333D25CD140C16070BD72
:1035F000083802400024F4000000002002460020A9
:10360000510901290BD002290CD00849096802F0A0
:103610001F02012393400B4200D001207047034951
:103620007439F3E70149091FF0E7000074380240DC
:103630000149086070470000800E47420149086058
:10364000704700003C0E4742C0F30121032907D117
:10365000074B1968074A21F4F81102400A431A601F
:10366000034968310A68C0F30B0002430A607047DF
:1036700008380240FFFCFF0F010901EB810100F057
:103680000F0000EB4100C0B27047002103E0491C6D
:103690000A38C9B2C0B20A28F9D2090740EA116053
:1036A0007047000078B50024284ECA2000942546B3
:1036B00030605320306000F04DF8E0B323482438E8
:1036C0000460224942F20110203908600B1D18687D
:1036D00000F0070018608D131A1D1068009900F0A3
:1036E0000400491C0091A94201D00028F5D01068BF
:1036F000400729D518681C6014494FF6FF7010392F
:103700000860091F1248086010480C380460001D4A
:103710000460001D04600D48083004600B48183038
:1037200004600A4820300460001D046014600748EB
:103730001C30046000E003E000F06AF920B10125CC
:10374000FF203060284678BD0025F9E72428004096
:10375000FF007F0008B50D49002000900868400672
:1037600012D44FF0FF3008608B130868009A00F005
:103770004000521C00929A4201D00028F5D00868FF
:10378000400601D4002008BD012008BD0C280040DF
:103790000248016821F08001016070470C28004058
:1037A000020010B50F480C4601680F4801EA0001FD
:1037B0004FEA1140E070C1F30423637001F03F034E
:1037C000A370C1F3423121700AD1FFF755FFE070B9
:1037D0006078FFF751FF6070A078FFF74DFFA07091
:1037E00010BD0000042800403FFFFF00020010B59C
:1037F00010480C460168104801EA0001C1F3054079
:103800002070C1F30623637001F07F03A3704FF0B3
:10381000400303EA1141E1700AD1FFF72DFF207048
:103820006078FFF729FF6070A078FFF725FFA07090
:1038300010BD0000002800407F7F7F0070B5124D52
:1038400004460026CA20286053202860FFF782FF24
:10385000A8B10D481C38016821F0400101600168E1
:103860002268114301600848A168143801600168AA
:10387000A28841EA02410160FFF78AFF0126FF208A
:103880002860304670BD00002428004008B5034978
:1038900001EB80000090006808BD00005028004047
:1038A00070B50C460026010060780FD0FFF7E4FEEB
:1038B000A078FFF7E1FEA078E17840EA0145607862
:1038C0002178000240EA4130054315E0C10603D5E6
:1038D00020F010000A306070E078FFF7D6FE050493
:1038E0006078FFF7D2FE45EA0025A078FFF7CDFE0D
:1038F0000543207845EA40350D4CCA20206053200E
:103900002060FFF727FF78B10A48054008482038B3
:103910000560FFF73DFF06481C380068800602D4AA
:1039200000F076F800B10126FF202060304670BD1F
:10393000242800403FFFFF002DE9F0410C460026FF
:10394000234F01002078396832464FEA416104D0A4
:10395000002930DAFFF790FE2EE0002900DBE2704C
:10396000FFF793FE05046078FFF78FFE45EA002518
:10397000A078FFF78AFE0543E07845EA0045144C3D
:10398000CA201C34206053202060FFF7E3FE68B19A
:10399000104805400E4808380560FFF7F9FE386802
:1039A000800602D400F034F800B10126FF20206028
:1039B0003046BDE8F081E270A078217840EA014508
:1039C0006078E178000240EA01400543D7E7000053
:1039D000082800407F7F7F0008B58DF802208DF811
:1039E00001108DF800308DF8030069460020FFF7C4
:1039F00057FF08BD08B58DF800008DF801108DF84F
:103A000002208DF8033069460020FFF795FF08BDBE
:103A100018B50020104B0090CA2018605320186081
:103A20000D491839086820F0A00008604FF40034F0
:103A30000868009A00F02000521C0092A24201D0B7
:103A40000028F5D00868800601D5012000E000209C
:103A5000FF21196018BD00002428004008B5034A62
:103A600002EB80000090016008BD0000502800407B
:103A700070B5FEF703FF8820FEF7CCFEFEF74AFF85
:103A8000E020FEF7C7FEFEF745FF0020FEF7C2FE6E
:103A9000FEF740FFFEF7F2FE8920FEF7BBFEFEF7C1
:103AA00039FF0120FEF77EFE4FF6FF7505EA00267E
:103AB0000120FEF777FE40EA06040120FEF772FEC1
:103AC0000120FEF76FFE05EA00260120FEF76AFEE0
:103AD00040EA06050020FEF765FEFEF7F5FE00EE63
:103AE000105ADFED100A1148B8EE401A81EE200A94
:103AF0009FED0D1A20EE010ABDEEC00A80ED020A0C
:103B000000EE104AB8EE400A80EE201ADFED080AF7
:103B10009FED080A11EE200ABDEEC00A80ED010AF1
:103B200070BD000000FF7F470000C842E87401201C
:103B300000002F43000034422DE9F04387B00121FB
:103B40000220FFF7D7FC4FF4805901214846FFF7C8
:103B5000F5FC02278DF8187000248DF81A40032018
:103B60008DF81900DFF88C803826012505968DF830
:103B70001B5005A94046FEF72CFD052203214046B7
:103B8000FEF763FD052204214046FEF75EFD052297
:103B900011464046FEF759FD01214846FFF7DAFC81
:103BA00000214846FFF7D6FCADF800404FF4827084
:103BB000ADF80200ADF808506802ADF80C60ADF841
:103BC0000440ADF80A00ADF80E4007200A4CADF8ED
:103BD0001000ADF806706946204600F04CF801214F
:103BE000204600F033F8FF2000F008F807B0BDE8E9
:103BF000F0830000000402400030014070B50B4C1F
:103C000005460221204600F02BF80028F9D029466D
:103C1000204600F02EF80121204600F021F800286F
:103C2000F9D0204600F023F8C0B270BD003001404A
:103C300001460548028822F03802028002880A43C1
:103C40000280012100F002B8003001400029018803
:103C500002D041F0400101E021F0400101807047B5
:103C60000246002012890A4200D001207047808954
:103C700070478181704730B502884C8802F4415307
:103C80000A88CD8822438C882C4322430C89224306
:103C90004C8922438C892243CC8922431A430280D7
:103CA000828B22F400628283098A018230BD7047D0
:103CB00010B58A0721F003040849120F21440F238D
:103CC000D1F8084893409C43C1F80848D1F8083817
:103CD00090400343C1F8083810BD00000030014097
:103CE0000CB50022274900920192086840F4803008
:103CF00008604FF4A043086800F400300190009879
:103D0000401C0090019810B900989842F3D10868BF
:103D1000800334D5012001901A484030026842F0F7
:103D2000805202601848026842F44042026015481E
:103D3000083002680260026842F4004202600268D1
:103D400042F4A0520260031F104A1A600A6842F04F
:103D500080720A600A689201FCD50D4940F2057232
:103D60000A60016821F003010160016841F002016D
:103D700001600168C1F381010229FAD10CBD0192F1
:103D80000CBD00000038024000700040085440079D
:103D9000003C0240014600200A5C401CC0B20A2AD6
:103DA00002D0FA28F8D9FA207047000003480168C9
:103DB000002902D00168491E0160704710000020F0
:103DC000124810B5016841F47001016010480168A3
:103DD00041F0010101600E4A0021083211600268C1
:103DE0000C4B1A400260031D0B4A1A60026822F451
:103DF0008022026006480C300160FFF771FF034922
:103E00004FF000608039086010BD000088ED00E0D0
:103E100000380240FFFFF6FE1030002470B5274C3A
:103E20000121204600F0A8F8002845D001212046B5
:103E300000F08AF822494FF47A730868401C086041
:103E4000B0FBF3F103FB1101012903D11D4A1168F5
:103E5000491C11601C49B0FBF1F201FB12041B4A22
:103E6000012104B9117040F6B834B0FBF4F504FB3D
:103E7000150404B951704FF4FA64B0FBF4F504FB77
:103E8000150404B99170B0FBF3F403FB140303B9F8
:103E9000D1703223B0FBF3F403FB140000B9D160FE
:103EA00000F0F0F900F01EFB00F032FC00F0D0FC56
:103EB000BDE87040FEF71EBE70BD0000000C004063
:103EC000A0470020E8740120C0D4010098740120AC
:103ED0001FB501210820FFF719FB32208DF80C00D7
:103EE00000248DF80D4001208DF80E008DF80F0094
:103EF00003A8FFF76DF8ADF80040ADF80840ADF845
:103F000002404FF47A700A4C01906946204600F056
:103F100019F901225321204600F00AF90122114625
:103F2000204600F035F80121204600F010F81FBDB2
:103F3000000C00400029018802D041F0800101E01E
:103F400021F0800101807047C94301827047002938
:103F5000018802D041F0010101E021F0010101805E
:103F60007047002930F8441F02D041F4004101E0BD
:103F7000C1F30E010180704702460020138A928926
:103F80000B4202EA010202D0002A00D00120704751
:103F9000002A828901D00A4300E08A438281704767
:103FA00070B5028C22F010020284028C8388048B8C
:103FB0000D8824F4E6464FF6FF7404EA05253543E0
:103FC0008E8922F0200204EA061616434A8804EA83
:103FD00002123243104EB04202D0104EB04215D100
:103FE00022F08006CA8923F4406304EA02123243B5
:103FF00022F040068A8804EA021232430E8A04EA5A
:1040000086061E434B8A04EA830333438380058379
:1040100089688163028470BD000001400004014092
:10402000028B4FF6FF7322F4006203EA0121114371
:104030000183704770B5028C22F480720284028C76
:104040008388848B0D8824F0730425438E894FF672
:10405000FF7422F4007204EA062616434A8804EA32
:1040600002223243104EB04202D0104EB04215D15F
:1040700022F40066CA8923F4405304EA0222324340
:1040800022F480668A8804EA022232430E8A04EA15
:1040900006161E434B8A04EA031333438380858349
:1040A0008968C163028470BD0000014000040140C2
:1040B000828B22F008020A438283704770B5028C1B
:1040C00022F480520284058C8288838B0C8823F42E
:1040D000E6464FF6FF7303EA0424344325F4005602
:1040E0008D8903EA053535434E8803EA06362E43AB
:1040F000084DA84202D0084DA84205D122F48045BF
:104100000A8A03EA82122A438280848389680164CE
:10411000068470BD0000014000040140828B4FF610
:10412000FF7322F4006203EA012111438183704787
:1041300001858282704781637047C1637047016463
:104140007047000030B50288164C174DA0420DD0C4
:10415000A8420BD0B0F1804F08D0144B984205D044
:10416000134B984202D0134B984203D122F07003B4
:104170004A881A43104B984206D0104B984203D0FD
:1041800022F440730A891A4302804A68C2620A888C
:104190000285A04201D0A84201D1897A018601217D
:1041A000818230BD00000140000401400004004055
:1041B00000080040000C00400010004000140040C7
:1041C000F0B5012187B00846FFF794F901211020CE
:1041D000FFF7B4F9274F072209213846FEF735FAD1
:1041E00007220A213846FEF730FA02258DF80450DE
:1041F00000248DF80640012628028DF80760009003
:104200008DF8055069463846FEF7E3F968028DF8E7
:10421000045000908DF8076069463846FEF7D9F9DA
:104220004FF4E130ADF80C400290ADF80E40ADF81F
:104230001040ADF814400C200F4CADF8120002A94C
:10424000204600F007FC0122C021204600F0F3FBCD
:104250000121204600F0E5FB00F042F8074D28461A
:10426000FEF75EF8064C60822846FEF759F8208279
:1042700007B0F0BD00000240001001408864024019
:104280002C00002010B51348FEF74AF8124A01230B
:1042900012495478002C548914D0A04216D10968D0
:1042A0005162146A091B02290BD913700021517045
:1042B00091898142A1EB000101D801F58051118162
:1042C000908110BDA042FCD0537000E0508108687E
:1042D000106210BD886402402C000020A04700201E
:1042E0002DE9F04F4FF4800A8FB001215046FFF7BF
:1042F00001F9DFF8B0B05846FDF780FF4FF00065D8
:104300002A48294E0095CDE9016040200024CDE9DE
:1043100003040701CDE9054707944FF400380894DA
:10432000CDE909484FF00109CDE90B490D946946E3
:1043300058460E94FEF712F84FF020515846FDF7FC
:104340003DFF00215846FDF74FFF01215046FFF782
:10435000D1F8DFF850A0AAF1300A5046FDF74EFF21
:104360001348CDE9020404A9E81381E89100001183
:10437000CDE90840CDE90A840794CDE90C94CDE954
:104380000056694650460E94FDF7E8FF094950462D
:10439000FDF714FF01215046FDF726FF0FB0BDE8E1
:1043A000F08F0000B8640240041001406C0000204F
:1043B000586E00200008002070B50C00054629D07A
:1043C000154E00213046FDF70FFF13480C300560F5
:1043D00021463046FDF7ECFF01213046FDF704FF92
:1043E00035460E4C4FF0205631462846FDF79CFFCF
:1043F0000128F9D14021204600F025FB0128F9D100
:1044000031462846FDF7DAFE2046BDE870404021DF
:1044100000F004BB70BD0000B86402400010014011
:1044200070B5012186B00846FFF764F80121480401
:10443000FFF76CF8274E072202213046FEF705F9F8
:10444000072203213046FEF700F902258DF80450BB
:1044500000248DF8064001208DF80700042000900C
:104460008DF8054069463046FEF7B3F808208DF810
:10447000045000908DF8074069463046FEF7A9F8D1
:104480004FF41650ADF80C400290ADF80E40ADF868
:104490001040ADF814400C200F4CADF8120002A9EA
:1044A000204600F0D7FA0122C021204600F0C3FACE
:1044B0000121204600F0B5FA00F056F8074D2846D5
:1044C000FDF72EFF064C60822846FDF729FF20826B
:1044D00006B070BD00000240004400408860024009
:1044E0002C00002070B5B2B01B48FDF719FF1B4D22
:1044F00001210446EA781A48002A2A8A23D09442E5
:1045000025D10068E862AA6A801A022819D9A97020
:104510000026EE70688AA042A0EB040001D800F5E6
:104520008050E8816C82684600F02EFBE8816C8246
:104530006E70B0F5805F04D802466946094803F002
:1045400075F832B070BD9442FBD0E97000E02C8267
:104550000068A862F5E70000886002402C00002097
:10456000A0470020983301202DE9F04F4FF4001AA6
:104570008FB001215046FEF7BDFFDFF8ACB05846C2
:10458000FDF73CFE4FF000652948284E0095CDE927
:10459000016040200024CDE903040701CDE905476F
:1045A00007944FF400380894CDE909484FF0010909
:1045B000CDE90B490D94694658460E94FDF7CEFEA1
:1045C000F1045846FDF7FAFD00215846FDF70CFEB0
:1045D00001215046FEF78EFFDFF84CA0AAF1180A21
:1045E0005046FDF70BFE1348CDE9020404A9E81379
:1045F00081E891000011CDE90840CDE90A840794D3
:10460000CDE90C94CDE90056694650460E94FDF76D
:10461000A5FE09495046FDF7D1FD01215046FDF7A1
:10462000E3FD0FB0BDE8F08FA060024004440040FD
:104630006C100020587E00200008002070B5044651
:10464000FFF7A8FB144D064600212846FDF7CCFDD8
:104650001148A038C0F8AC4031462846FDF7A8FE06
:1046600001212846FDF7C0FD0C4E0D4C3146284671
:10467000FDF75AFE0128F9D14021204600F0E3F968
:104680000128F9D131462846FDF798FD2046BDE8BE
:104690007040402100F0C2B9A0600240000020201C
:1046A0000044004070B50C00054629D0154E00218D
:1046B0003046FDF799FD1348A038C0F8AC502146AC
:1046C0003046FDF775FE01213046FDF78DFD35467C
:1046D0000D4E0E4C31462846FDF726FE0128F9D135
:1046E0004021204600F0AFF90128F9D13146284693
:1046F000FDF764FD2046BDE87040402100F08EB912
:1047000070BD0000A0600240000020200044004076
:1047100070B5B2B01A48FDF703FE1A4D01210446E8
:104720006A791948002AEA8A22D0944224D1006882
:1047300068632A6B801A022818D9297100266E71C5
:10474000288BA042A0EB040001D800F58050A8827D
:104750002C83684600F05AFAA8822C836E71C82810
:1047600004D802466946094802F060FF32B070BDC5
:104770009442FBD0697100E0EC8200682863F5E7A1
:10478000286002402C000020A04700209013012048
:1047900070B5012186B00846FEF7ACFE0121C804C1
:1047A000FEF7B4FE264E082200213046FDF74DFFED
:1047B000082201213046FDF748FF02258DF80450FC
:1047C000002401218DF806408DF8071000918DF826
:1047D000054069463046FDF7FCFE8DF804508DF823
:1047E0000740694630460095FDF7F3FE4FF4E1308F
:1047F000ADF80C400290ADF80E40ADF81040ADF8A9
:1048000014400C200F4CADF8120002A9204600F015
:1048100021F90122C021204600F00DF90121204696
:1048200000F0FFF800F05AF8074D2846FDF778FD34
:10483000064CE0832846FDF773FDA08306B070BDEB
:1048400000000240004C0040406002402C0000206C
:10485000F0B581B0ADF5805D1C48FDF761FD1C4DE4
:1048600001210446EA791B48002AAA8B25D09442EC
:1048700027D10068E863AA6B801A022819D9A971A8
:104880000026EE71E88BA042A0EB040001D800F5F1
:10489000805068836F46EC83384600F0F9F96883EE
:1048A000EC83EE71002804D0024639460A4802F033
:1048B000BDFE01B00DF5805DF0BD9442F9D0E97107
:1048C00000E0AC830068A863F3E7000040600240AA
:1048D0002C000020A047002088F300202DE9F04F95
:1048E0004FF4001A8FB001215046FEF703FEDFF8A7
:1048F000B0B05846FDF782FC4FF000652A48294EBB
:104900000095CDE9016040200024CDE903040701B2
:10491000CDE9054707944FF400380894CDE90948DC
:104920004FF00109CDE90B490D94694658460E94A4
:10493000FDF714FD1D495846FDF740FC002158467F
:10494000FDF752FC01215046FEF7D4FDDFF850A0E0
:10495000AAF1300A5046FDF751FC1548CDE9020492
:1049600004A9E81381E891000011CDE90840CDE9E0
:104970000A840794CDE90C94CDE900566946504667
:104980000E94FDF7EBFC4FF081515046FDF716FCFD
:1049900001215046FDF728FC0FB0BDE8F08F000064
:1049A00070600240044C00406C3000202000002069
:1049B000589E002070B50C00054628D0144E0021EA
:1049C0003046FDF711FC12487038C5672146304665
:1049D000FDF7EEFC01213046FDF706FC35460D4E95
:1049E0000D4C31462846FDF79FFC0128F9D14021A6
:1049F000204600F028F80128F9D131462846FDF775
:104A0000DDFB2046BDE87040402100F007B870BDD6
:104A10007060024020000020004C0040C94301802B
:104A200070470029818902D041F4005101E021F44E
:104A3000005181817047002A828A01D00A4300E038
:104A40008A43828270470246002012880A4200D0C0
:104A5000012070477FB50446008A0D46C98820F4BE
:104A6000405001432182A08941F20C618843A9880A
:104A70002A8911436A8902431143A181A08A20F443
:104A80004071A8890843A0826846FEF76FFD1A4866
:104A9000844202D01948844201D1039800E0029870
:104AA000A189090400EBC00101EB0010296801D5C0
:104AB000490000E08900B0FBF1F06422B0FBF2F1A4
:104AC00009010B096FF018056B4300EB8300A38904
:104AD0001D044FF0320306D503EBC000B0FBF2F02B
:104AE00000F0070005E003EB0010B0FBF2F000F06F
:104AF0000F00084320817FBD0010014000140140D9
:104B0000F0B51F4C03464FF480562089B04201D3C4
:104B1000701EF0BD62891B4D8118B1420DD200217B
:104B2000C2F5805206E02689961B0E44AE5D5E54A7
:104B3000491C89B28142F6D31DE0A1F580518AB2A9
:104B4000811A8EB20021C2F5805707E007EB010CF5
:104B500015F80CC003F801C0491C89B29142F5D385
:104B6000002106E06F5C02EB010C491C03F80C709D
:104B700089B2B142F6D3002121706170F0BD00000E
:104B80002C000020586E0020F0B51E4C0346E08932
:104B9000C82801D90020F0BD228A1B4D8118B1F52B
:104BA000805F0DD20021C2F5805206E0E689961B97
:104BB0000E44AE5D5E54491C89B28142F6D31DE0BD
:104BC000A1F580518AB2811A8EB20021C2F58057B8
:104BD00007E007EB010C15F80CC003F801C0491CF5
:104BE00089B29142F5D3002106E06F5C02EB010C23
:104BF000491C03F80C7089B2B142F6D30021A170B0
:104C0000E170F0BD2C000020587E0020F0B51E4C55
:104C10000346A08AC82801D90020F0BDE28A1B4DB6
:104C20008118B1F5805F0DD20021C2F5805206E0F7
:104C3000A68A961B0E44AE5D5E54491C89B2814221
:104C4000F6D31DE0A1F580518AB2811A8EB20021FF
:104C5000C2F5805707E007EB010C15F80CC003F80C
:104C600001C0491C89B29142F5D3002106E06F5C76
:104C700002EB010C491C03F80C7089B2B142F6D367
:104C8000002121716171F0BD2C000020588E0020A0
:104C9000F0B51F4C03464FF48056608BB04201D3F1
:104CA0000020F0BDA28B1B4D8118B1420DD2002116
:104CB000C2F5805206E0668B961B0E44AE5D5E54D4
:104CC000491C89B28142F6D31DE0A1F580518AB218
:104CD000811A8EB20021C2F5805707E007EB010C64
:104CE00015F80CC003F801C0491C89B29142F5D3F4
:104CF000002106E06F5C02EB010C491C03F80C700C
:104D000089B2B142F6D30021A171E171F0BD00007A
:104D10002C000020589E0020FEE7000010B504463D
:104D20001CA1FBF749FD08B1022010BD1BA12046C4
:104D3000FBF742FD08B1042010BD19A12046FBF786
:104D40003BFD08B1012010BD17A12046FBF734FD43
:104D500008B1032010BD17A12046FBF72DFD08B1B7
:104D6000052010BD15A12046FBF726FD08B1062041
:104D700010BD15A12046FBF71FFD08B1072010BD8F
:104D800012A12046FBF718FD08B1002010BD4FF01E
:104D9000FF3010BD434F4E4E454354003E000000CF
:104DA00057494649000000002B43574C41503A28D0
:104DB000000000002B434950535441002B434950FD
:104DC00041504D4143000000455252004F4B0000FE
:104DD00003B401984100009850EAC12018BF042094
:104DE0004A0D18BF40F0010040F2FF72B2EB515F74
:104DF00008BF40F00200012808BF052002B070473C
:104E00002DE9F04D2DED040B2DED0E8B96B0DDE967
:104E10002550279CDDF890A025F0004624F000489E
:104E2000BAF1000F14BF0121002101EB4502FC493A
:104E300053184A1093422AD3002814BF0123002399
:104E400003EB44030B44F7498B4220D358EA00019B
:104E50009FEDF59B76D0DFF8D8B35D4503D1BAF16D
:104E6000000F05D188E0BAF1000F08BF002100D083
:104E7000012101EB450111F5001F08D8002814BFDE
:104E80000121002101EB440111F5001F0BD99DED1B
:104E9000261B9DED240B16B0BDEC0E8B04B0BDE8B7
:104EA000F04D00F069BE0027002DBCBFE1498845E8
:104EB00021DAE1498845A8BF02271CDAC3451ADC7C
:104EC000DE4901EB2851142908DDC1F1340220FA32
:104ED00002F101FA02F282420DD108E058B9C1F1A3
:104EE000140228FA02F101FA02F2424503D101F05C
:104EF0000101C1F1020756EA0A0124D1002C22DA8D
:104F0000002D18BF022F01D0012F0AD00220FBF77D
:104F1000F2FD16B0BDEC0E8B04B0BDE8F04D00F014
:104F200013BE0220FBF7E7FD00F00EFE51EC100B64
:104F300003F028FA41EC100B16B0BDEC0E8B04B058
:104F4000BDE8F08D18E09FEDBEAB9FEDBF8B002854
:104F500071D1B848804522D105F1804010F580100C
:104F600008BFBAF1000F07D0B3450ADC002CA8BF78
:104F70009DED260BE0DA0DE0B0EE490AF0EE690A8D
:104F8000DAE7002C06DA9DED260B51EC100B03F04E
:104F9000F9F96FE0AE48784490ED000BCCE7D845C6
:104FA0004DD1002C48DA2EB186423AD1BAF1000F29
:104FB00042D126E0BAF1000F13D00220FBF79BFD8F
:104FC00000F0F6FD8DED020B9DED240B8DED000B39
:104FD00010EE900A039961F31E0003909DED020B01
:104FE000AAE78DED02AB9DED240B1AEE901A10EEA0
:104FF000900A8DED000B61F31E0003909DED020BF6
:105000009AE78DED028B9DED240B18EE901A10EEB1
:10501000900A8DED000B61F31E0003909DED020BD5
:105020008AE709DA9DED240B51EC190B53EC102B98
:1050300003F070FA1EE020E09DED240B7CE7864231
:105040001BDAB4F1804F0DD0A4F10050B0F1FF5045
:1050500013D1002D11DB9DED240B51EC100B03F04F
:1050600006F807E09DED240B53EC102B51EC100BD0
:1050700000F0C2BC41EC100B5EE79DED240B51EC3F
:10508000100B01F005FABAF1000FCDE90E0142D183
:105090009FED710B46B3A6F1E040B0F17F600CD0FC
:1050A0005E4538D1002D00DAA7B3022F0CBF0120D6
:1050B0004FF0FF3003F0B5FBDCE7002D01DD002CE5
:1050C0000DDA002D01DD002C1FDB002D16DA002C7F
:1050D00014DB012F08BF9FED620B3FF42DAFB0EE44
:1050E0004A0AF0EE6A0A27E7022F18BF002D0CD0FB
:1050F000012F0AD1002DFFF61FAF06E0002DB8BF2B
:10510000002C08DA012F3FF417AFB0EE480AF0EE9A
:10511000680A11E71BE0012000EBE57050EA070187
:1051200015D0791EB0EE498AF0EE698A084308BFAF
:105130009FED4D8B4E480025804570DD4D494E4812
:10514000884514DDB0420DDB002C19DB2FE0012077
:10515000FBF7D1FC16B0BDEC0E8B04B0BDE8F04DF2
:1051600000F016BDB34502DC002C09DC1FE08642CE
:1051700002DA002C1BDA03E05E452BDD002C16DD85
:105180000220FBF7B8FC00F013FD8DED020B53EC91
:105190001A2B51EC180B03F097FBCDE90001039992
:1051A000019861F31E0003909DED020BC4E60220FE
:1051B000FBF7A1FC00F00CFD10EE901A18EE900A1F
:1051C0008DED020B8DED008B61F31E0003909DEDC4
:1051D000020BB1E69DED0E0B53EC192B51EC100BAD
:1051E00003F07EFD9FED260BCDE9080153EC102B5B
:1051F0009DED080B51EC100B03F066FB9FED221B9D
:1052000053EC112B03F094FC9DED081B53EC112B78
:1052100003F05AFB9FED1E1B53EC112B3CE08CE07E
:10522000FFFF1F00FFFF0F00000000000000F03F25
:105230000000F03F0000F07F0000404301FCFFFF52
:10524000000000000000F07F0000000000000000EF
:10525000964A0000000000000000000000000080EE
:10526000000000000000F0FF000000000000F0BFA0
:105270000000E0410000F043FFFFEF3F00000000AE
:10528000000000000000D03F555555555555D53FFD
:10529000000000000000E03F03F04AFC9DED080B19
:1052A00041EC1A0B53EC102B51EC100B03F00CFBE0
:1052B00053EC1A2B03F008FB41EC1A0B9FEDFE0B8D
:1052C00053EC102B9DED080B51EC100B03F0FCFA86
:1052D00041EC1B0B9FEDFA0B51EC1A0B53EC102B0E
:1052E00003F0F2FA41EC1A0B9FEDF70B53EC102B85
:1052F0009DED080B51EC100B03F0E6FA53EC1A2B62
:1053000003F0EEFC41EC1A0B51EC1B0B53EC1A2B87
:1053100003F044F80690CDE906519DED060B53ECE1
:105320001B2B51EC100B03F0DBFC53EC1A2B03F09E
:10533000FFFB41EC100B00F0A1B90020B6F5801F77
:105340000EDA9FEDE30B53EC102B9DED0E0B51ECA1
:10535000100B03F0B9FACDE90E016FF034000E46E0
:1053600000EB2650A0F2FF37C6F31300DA4940F0F5
:105370007F6646F040568842D8BF002408DDD749F2
:105380008142C8BF012403DC0024A6F580167F1CDF
:10539000D348784400EBC4000F9690ED00CB9DED10
:1053A0000E0B53EC1C2B51EC100B03F099FC9DEDF4
:1053B0000E0B41EC1B0B53EC1C2B51EC100B02F0B1
:1053C000EDFF41EC100B51EC190B53EC102B03F0DB
:1053D000A1F841EC1D0B51EC1B0B53EC1D2B03F002
:1053E00073FA41EC1A0BBF488DED10AB7844109561
:1053F00090ED000B4FF0005040EA660000EB844057
:105400008DED080B00F5002009909DED080B53EC85
:105410001C2B51EC100B03F063FC9DED0E1B53ECA9
:10542000112B03F085FB41EC100B53EC102B9DED81
:10543000100B51EC100B03F047FA9DED080B41ECFB
:105440001C0B53EC102B9DED100B51EC100B03F0CB
:105450003BFA53EC1B2B03F06BFB53EC1C2B03F0C0
:105460003FFC53EC1D2B03F02FFA41EC1C0B53ECCB
:105470001A2B51EC1A0B03F027FA41EC1B0B9A483C
:105480000621B0EE4B0AF0EE6B0A784400F0E0FA29
:10549000B0EE401AF0EE601AB0EE41DAF0EE61DAEA
:1054A00053EC1B2B51EC1B0B03F00EFA53EC1D2B92
:1054B00003F00AFA9DED100B41EC1B0B53EC1A2B79
:1054C00051EC100B02F06AFF53EC1C2B03F0FCF9BB
:1054D00053EC1B2B02F062FF9DED100B41EC1B0BFC
:1054E00053EC102B51EC100B03F0EEF941EC1D0BBB
:1054F0009FED7FEB53EC1E2B02F050FF53EC1B2B68
:1055000002F04CFF0890CDE908519DED080B53ECDB
:105510001E2B51EC100B03F0E3FB53EC1D2B03F09F
:10552000DFFB53EC1B2B03F003FB9DED080B41EC61
:105530001D0B53EC102B9DED100B51EC100B03F0D9
:10554000C3F941EC1B0B53EC1A2B51EC1D0B03F070
:10555000BBF99DED080B41EC1A0B53EC102B51ECF1
:105560001C0B03F0B1F953EC1A2B02F017FF41ECBE
:105570001A0B51EC1B0B53EC1A2B02F00FFF0C9083
:10558000CDE90C519DED0C0B53EC1B2B51EC100B8A
:1055900003F0A6FB53EC1A2B03F0CAFA41EC1B0BE9
:1055A0009FED550B53EC102B9DED0C0B51EC100B9C
:1055B00003F08AF941EC1A0B9FED510B51EC1B0BD8
:1055C00053EC102B03F080F941EC1B0B9FED4E0BBD
:1055D00053EC102B9DED0C0B51EC100B03F074F9F8
:1055E00053EC1B2B02F0DAFE41EC100B48487844D8
:1055F00000EBC40090ED001B51EC100B53EC112B91
:1056000002F0CCFE41EC1B0B384603F00AF9CDE961
:10561000080153EC1B2B51EC1A0B02F0BFFE41ECBE
:10562000100B3C48784400EBC40090ED00CB51ECEB
:10563000100B53EC1C2B02F0B1FE9DED081B53EC3C
:10564000112B02F0ABFE0690CDE906519DED080B43
:1056500053EC102B9DED060B51EC100B03F040FBAF
:1056600053EC1C2B03F03CFB53EC1A2B03F038FBE0
:1056700053EC1B2B03F05CFA41EC100B9DED261B49
:1056800053EC102B8DED001B00959DED260B51EC7E
:10569000100B03F019F99DED000B41EC1A0B53ECC4
:1056A000102B9DED260B51EC100B03F019FB9DED1B
:1056B000061B53EC112B2FE0000000604715F73F4D
:1056C000FE822B654715F73F44DF5DF80BAE543E75
:1056D00000000000000040438E9803007AB60B00E3
:1056E0000A4600004046000042450000000000005D
:1056F0000000000000000840000000E009C7EE3F85
:10570000FD033ADC09C7EE3FF5015B14E02F3EBE16
:10571000CE4300008843000003F0D6F853EC1A2B68
:1057200002F03CFE9DED060B41EC1A0B53EC102BE6
:105730009DED000B51EC100B03F0C6F8CDE90C0108
:105740009DED0C0B51EC1A0B53EC102B02F026FEC6
:10575000CDE902010C46AA498C422FDB611A0843AD
:1057600018D19DED0C0B53EC102B9DED020B51EC61
:10577000100B03F0B5FA41EC1B0B9FEDA30B51ECA2
:105780001A0B53EC102B02F009FE53EC1B2B03F009
:1057900099F92DD20220FBF7AEF900F009FA10EECC
:1057A000901A18EE900A8DED020B8DED008B61F3CF
:1057B0001E0003909DED020BFFF7BEBB944A24F040
:1057C0000041914214D39349214408437FF4EFAC44
:1057D0009DED0C0B53EC102B9DED020B51EC100BBF
:1057E00003F07EFA53EC1A2B03F06CF97FF6DFAC72
:1057F00024F000408849894A002601EB205182426A
:105800002BDA481C4FF4801121FA00F02044844A1E
:10581000C0F30A517A44A1F2FF3192ED000B814AA4
:105820008DED080BCA4020EA0202C0F3130040F4D9
:105830008010C1F1140120FA01F60992002CB8BFC2
:1058400076429DED080B53EC102B9DED0C0B51ECAB
:10585000100B03F045FACDE90C019DED0C0B51EC5A
:105860001A0B53EC102B02F099FD9FED6F0B089073
:10587000CDE9085153EC102B9DED080B51EC100BAA
:1058800003F022F841EC1B0B9FED690B53EC102B3E
:105890009DED080B51EC100B03F016F89DED0C0B71
:1058A00041EC1C0B53EC102B9DED080B51EC100B35
:1058B00003F016FA53EC1A2B03F03AF99FED5E1B36
:1058C00053EC112B03F000F853EC1C2B02F066FD97
:1058D00041EC1A0B51EC1B0B53EC1A2B02F05EFD42
:1058E000CDE902019DED020B53EC1B2B51EC100B8B
:1058F00003F0F6F953EC1A2B03F01AF99DED020BA5
:1059000041EC1A0B53EC102B51EC100B02F0DCFFA6
:10591000CDE908014A489DED080B0521784400F0C7
:1059200097F89DED081B51EC100B53EC112B02F076
:10593000CBFF9DED021B53EC112B03F0F9F8CDE9E1
:1059400006019DED020B53EC1A2B51EC100B02F0EB
:10595000BBFF53EC1A2B02F021FD9FED3B0B41ECFA
:105960001A0B53EC102B9DED060B51EC100B03F0B2
:10597000B7F99DED060B41EC1B0B53EC102B9DED85
:10598000020B51EC100B02F09FFF53EC1B2B02F0AB
:10599000C1FD53EC1A2B03F0A3F99DED021B53EC50
:1059A000112B03F09DF953EC192B03F0C1F8CDE94D
:1059B000020101EB065001150029C8BF039015DC58
:1059C0009DED020B324651EC100B03F0AEFAFFF7DF
:1059D000FFF9042808BF00F0FBF832469DED020BEA
:1059E00051EC100B03F0A1FACDE902019DED020B81
:1059F00051EC180B53EC102B02F066FFFFF73ABB8B
:105A00000000904000000000FE822B654715973C87
:105A100000CC904000346F3F01FCFFFF0000E03FEE
:105A200018420000FFFF0F0000000000432EE63F79
:105A3000396CA80C615C20BEEF39FAFE422EE63FBD
:105A4000E0400000000000000000000000000040F6
:105A500070B504462DED028B4D1E00EBC500B0EE77
:105A6000408AF0EE608A90ED000B35F0060017D00A
:105A700053EC182B51EC100B02F026FF41EC100BED
:105A80006D1E04EBC50090ED001B51EC100B53ECA8
:105A9000112B02F083FC41EC100B35F00600E7D12E
:105AA000022D36D0042D1CD0062D1CBFBDEC028B60
:105AB00070BD53EC182B51EC100B02F005FF94ED68
:105AC0000A1B53EC112B02F069FC53EC182B02F06B
:105AD000FBFE94ED081B53EC112B02F05FFC41EC34
