:020000040800F2
:100000000831002015030008832500083921000865
:10001000F5240008791D00083D400008000000009C
:10002000000000000000000000000000F93100089E
:10003000C91F00080000000059290008F13300081A
:100040002F0300082F0300082F0300082F030008C8
:100050002F0300082F0300082F0300082F030008B8
:100060002F0300082F0300082F0300082F030008A8
:100070002F0300082F0300082F0300082F03000898
:100080002F0300082F0300082F0300082F03000888
:100090002F0300082F0300082F0300082F03000878
:1000A0002F0300082F0300082F0300082F03000868
:1000B0002F0300082F0300082F0300082F03000858
:1000C0002F0300082F0300082F0300082F03000848
:1000D0002F0300082F0300082F030008813C0008AD
:1000E0002F0300082F0300082F0300082F03000828
:1000F0002F0300082F0300082F0300082F03000818
:100100002F0300082F030008713400082F03000894
:100110002F0300082F0300082F0300082F030008F7
:100120002F0300082F0300082F0300082F030008E7
:100130002F0300082F0300082F0300082F030008D7
:100140002F0300082F0300082F0300082F030008C7
:100150002F0300082F0300082F0300082F030008B7
:100160002F0300082F0300082F0300082F030008A7
:100170002F0300082F0300082F0300082F03000897
:100180002F0300082F03000800F002F800F0B2F877
:100190000AA090E8000C82448344AAF10107DA45E2
:1001A00001D100F0A7F8AFF2090EBAE80F0013F082
:1001B000010F18BFFB1A43F001031847C84B00009A
:1001C000E84B00000A444FF0000C10F8013B13F01C
:1001D000070408BF10F8014B1D1108BF10F8015BA0
:1001E000641E05D010F8016B641E01F8016BF9D193
:1001F00013F0080F1EBF10F8014BAD1C0C1B09D1EA
:100200006D1E58BF01F801CBFAD505E014F8016B5B
:1002100001F8016B6D1EF9D59142D6D370470000ED
:100220000023002400250026103A28BF78C1FBD8FF
:10023000520728BF30C148BF0B6070476E2900F0DD
:100240001183702900F06986662904F061806529B0
:1002500004F05E80672904F05B80612904F05A8015
:1002600003681B0A28BF41F08001692900F0CA8099
:10027000642900F0C780752900F0C4806F2900F060
:10028000F785782900F03586E92900F09185E42981
:1002900000F08E85F52900F08B85EF2900F0F485BC
:1002A000F82900F034860368DB0928BF41F080019B
:1002B000632901F07780732901F07C80E32901F044
:1002C0008780F32901F08C80002070471FB504F06F
:1002D0001AF800F055FE04000020002103F086FF0C
:1002E000401C60600020002103F06AFFE0601FBD39
:1002F00010B510BD01F00AF91146FFF7E7FF03F052
:10030000D7FE01F031F903B4FFF7F2FF03BC01F0AF
:1003100071F900000948804709480047FEE7FEE7F9
:10032000FEE7FEE7FEE7FEE7FEE7FEE7FEE7FEE7A5
:1003300004480549054A064B704700000934000887
:1003400089010008082B002008310020082D00201A
:10035000082D00207CB51D4616460C00009001D0EB
:100360002044401E074B7B442A4669460190304694
:1003700000F09FFC05461CB10020694600F0ACFC73
:1003800028467CBD790900000FB41CB5084B06AAAD
:100390007B4469460090059800F08BFC04460020E1
:1003A000694600F099FC20461CBC5DF814FB000077
:1003B0004509000070B5044685690068C10601D58D
:1003C000302600E02026C00707D070BDD4E9012107
:1003D00030469047206A401C20626D1EF6D570BDE5
:1003E00070B5044685690078C00707D170BDD4E9AF
:1003F000012120209047206A401C20626D1EF6D506
:1004000070BD00002DE9F0410646002410687529F2
:10041000314616A510D000F091F9002802DA4042CA
:1004200013A507E031688A0701D512A502E0490744
:1004300004D511A5012401E000F089F900210A2268
:1004400006F1240709E0B0FBF2FCB0FBF2F302FB7B
:100450001C00303078541846491C0028F3D123463C
:100460002A463046BDE8F04100F0A3B90000000084
:100470002D0000002B000000200000002DE9F05F9F
:10048000894604464FF0000ADFF874B1FB44C0F817
:1004900020A02046E1688847002874D0252806D08F
:1004A000D4E901219047206A401C2062F1E7002630
:1004B0005F462046E16888472028054607DB312D46
:1004C00005D2781910F8200C08B10643F1E7B007FF
:1004D00001D526F00406C4F81CA00027C4F818A013
:1004E0002A2D09D0284603F0C3FD38B304EB870852
:1004F000303DC8F8185019E059F8041B204604EBA9
:1005000087029161E1688847012F054618D1E069AB
:10051000002820DA26F020061DE0D8F8180000EBAD
:10052000800005EB40003038C8F818002046E1682C
:100530008847054603F09CFD0028EED1012F0AD024
:100540002E2D08D12046E16888477F1C0546022FE2
:1005500046F02006C4DBA069002803DA404246F0DA
:100560000106A061F00701D026F010066C2D0BD01B
:10057000682D09D04C2D39D06A2D35D0742D35D049
:100580007A2D33D016E038E0E1682F4620468847C0
:10059000B842054609D16C2F26D04FF48060E1683F
:1005A000064320468847054604E06C2F1AD04FF4D6
:1005B000807006430DB3A5F14100192802D82035FB
:1005C00046F400664A462946204626604E46FFF716
:1005D00035FE80B101280BD0F61D26F0070000F192
:1005E000080956E74020E4E78020D8E70020D6E756
:1005F00006F104094DE7284652E7206ABDE8F09F5E
:10060000F4470000032A40F2308010F0030C00F0A1
:10061000158011F8013BBCF1020F624498BF11F83C
:1006200001CB00F8013B38BF11F8013BA2F10402F5
:1006300098BF00F801CB38BF00F8013B11F003036D
:1006400000F02580083AC0F0088051F8043B083AD1
:1006500051F804CBA0E80810F5E7121D5CBF51F873
:10066000043B40F8043BAFF30080D20724BF11F8ED
:10067000013B11F801CB48BF11F8012B24BF00F852
:10068000013B00F801CB48BF00F8012B704710B5C3
:10069000203AC0F00B80B1E81850203AA0E818507A
:1006A000B1E81850A0E81850BFF4F5AF5FEA027C3B
:1006B00024BFB1E81850A0E8185044BF18C918C0AA
:1006C000BDE810405FEA827C24BF51F8043B40F84B
:1006D000043B08BF7047D20728BF31F8023B48BF30
:1006E00011F8012B28BF20F8023B48BF00F8012B6E
:1006F00070474FF000020429C0F0128010F0030C84
:1007000000F01884CCF1040CBCF1020F18BF00F803
:10071000012BA8BF20F8022BA1EB0C0100F00ABCB2
:100720005FEAC17C24BF00F8012B00F8012B48BF11
:1007300000F8012B704770477047704709684A05F9
:1007400001D540B27047C905FCD500B270470968B1
:100750004A0501D5C0B27047C905FCD580B27047C3
:1007600070B50C460546012A05D02878800600D5CC
:10077000EA69002302E0012305E05B1C934202D2F8
:10078000E05C0028F9D1A869E618C01AA861286AB7
:10079000184428622846FFF70DFE04E0D5E9012140
:1007A00014F8010B9047B442F8D32846FFF718FE1F
:1007B00070BD2DE9F0470D4699469246044600F17A
:1007C00024080168880604D5E06921F01001216041
:1007D00000E00120A84201DD471B00E00027A169DD
:1007E0007A1902EB0900081AA0612078C00602D429
:1007F0002046FFF7DFFD002608E0D4E901211AF8C2
:1008000006009047206A401C761C20624E45F4DBAF
:100810002078C0060AD52046FFF7CCFD06E0D4E9D3
:10082000012130209047206A401C2062381EA7F129
:100830000107F4DC07E0D4E9012118F8050090472E
:10084000206A401C2062281EA5F10105F3DC204629
:10085000FFF7C6FD2078000602D50220BDE8F0872C
:100860000120FBE711680268006A530501D5087092
:100870000AE0D30501D5088006E0130603D5C217A8
:10088000C1E9000200E008600120704770472DE9CF
:10089000FF4F0C461E464FF0FF378BB0D2E90001E8
:1008A000DDF860800A908A46C1F30A5505B93D46D5
:1008B000002108464FF00000BAF1000F00F440009C
:1008C00005DA00EB80004FF4400101EA50004FEAE6
:1008D0009059B9F1010F00DDB9460A9850EA4A0073
:1008E0000ED044F61050A5F2FF3545432F14B8F151
:1008F000000F1ED07542291E1EDDC9F100021CE04A
:10090000B8F1010F4FF0000001D0302103E0F243B5
:1009100005E02154401CB042FBDB304600220021A0
:1009200021540B99C1F80880C1E900200FB0BDE83F
:10093000F08FBD1B6D1CDEE74A4600DA694206A84F
:1009400000F052FD06AB93E8070003AB83E8070015
:1009500050460A9900F055FE8DE80700A0F50050BA
:100960001F3800900398002D09DD42F21F014A460E
:10097000084403A90390684601F0B4F808E0A0F524
:1009800000504A461F3803A90390684601F0BEF89C
:100990008DE807000004000C03D04FF0FF30410841
:1009A00000E01046B8F1000F03D000220092154677
:1009B0001EE0751E05D400F0E7FA303262556D1E58
:1009C000F9D5B3460122084302D000227F1C04E07F
:1009D0002078302801D100227F1E002A099786D076
:1009E0001DE0112D07DA00F0CFFA303262556D1C90
:1009F00050EA0102F5D1084302D00098C8B10EE0D8
:100A00000021681E05E0235C625C63542254401E92
:100A1000491C8142F7DBAB46A81B401E0990002011
:100A200004F80B000B98099AC0F80880C0E9002B65
:100A30007CE711264FF0000859E72DE9F04F884672
:100A40000446D21D22F0070191B0D1E90001CDE9A1
:100A50000A0103F0F5FA02460B98C00F01D02D20D1
:100A600007E02068810701D52B2002E0202101EA60
:100A7000C000032A099001D0072A05DB034641463E
:100A8000204600F045FC0BE12078800601D5E069A6
:100A900000E00620B8F1650F814606D0B8F1660F78
:100AA00018D0B8F1670F70D131E00020B9F1110F03
:100AB000009001DB112301E009F101030AAA01A959
:100AC0000CA8FFF7E4FEDDE90C70002609F1010532
:100AD000834647E001204B4600904FF000470AAAAA
:100AE00001A90CA8FFF7D3FEDDE90DB00C995D4616
:100AF000002610B909F101000D18B9EB050003D467
:100B0000C0F1FF3609F10105A5EB09002BE0B9F1B1
:100B1000010F01DA4FF001090020B9F1110F009027
:100B2000484601DD112300E003460AAA01A90CA8EA
:100B3000FFF7ADFEDDE90C704D46002683462078B8
:100B400000070AD4AB4500DA5D4601A8012D04DD9B
:100B5000411911F8011C302907D04F4502DA17F16D
:100B6000040F04DA012082460FE06D1EEEE7002F2D
:100B700002DCED1B3E4403E0781CA84200DD7D1C36
:100B8000B81B00F1010A4FF000472078000703D49A
:100B9000AA4501DB4FF0FF3A0021B7F1004F0DF1FC
:100BA00043088DF8431024D002202B23002F01DAB4
:100BB0007F422D230A21021EA0F1010000DC5FB15B
:100BC00097FBF1FC97FBF1F201FB1C7C17460CF143
:100BD000300C08F801CDEEE7A8F101000370218880
:100BE000090501D5452100E06521A0F1010800F8C3
:100BF000011C09980FA9A1EB0807FF1D00B10120F6
:100C0000411901EBEA70A1693844081A401EA0613D
:100C10002078C00602D42046FFF7CCFB099828B103
:100C2000D4E901219047206A401C20622078C00648
:100C300022D52046FFF7BEFB1EE0002E04DBB345A5
:100C400002DD01A8805D00E03020D4E90121904759
:100C5000206A401C2062761CAAF101005FEA000AAB
:100C60000AD100F08DF9C0680168405CD4E9012127
:100C70009047206A401C2062281EA5F10105DCDC9B
:100C800007E0D4E9012118F8010B9047206A401CC5
:100C90002062381EA7F10107F3DC2046FFF7A0FB16
:100CA000032011B043E6000001694A1C0261087884
:100CB000704700B58FB0CDE901310021059105499C
:100CC0007944CDE9031011466846FFF7D7FB0FB012
:100CD00000BD0000E5FFFFFF0A6802F8010B0A6093
:100CE0007047D1E900239A4202D2531C0B60107066
:100CF000704700002DE9FF5F15468A460446DFF87D
:100D0000AC80F8440027D8E900103E46CDE9001039
:100D100010E03AF816106A4602A800F0D3FB411C16
:100D200007D02178890603D5E269391891420DD898
:100D30000744761C2078800602D5E069B84205DDBC
:100D4000AE42E6DB3AF816000028E2D1A069C01BEB
:100D5000A0612046FFF72EFBD8E90010CDE9001076
:100D6000002017E03AF818106A4602A800F0AAFB23
:100D7000B0F1FF3F81460BD000250DF1080B05E0D7
:100D8000D4E901211BF8050090476D1C4D45F7D3B0
:100D900008F10100B0428046E4DB206A384420625A
:100DA0002046FFF71DFBBDE8FF9F0000923F0000BB
:100DB0002DE9F0418046D21D22F007020025D2E93C
:100DC0000002F52915A614D0011E72F1000106DA01
:100DD0000023D0EB030063EB020211A608E0D8F871
:100DE00000108B0701D50FA602E0490701D50EA61A
:100DF00001251146002408F1240704E000F0C4F89E
:100E000030323A55641C50EA0102F7D12B46324683
:100E100021464046BDE8F041FFF7CBBC0000000092
:100E20002D0000002B0000002000000030B4002145
:100E300000F1240408E002F00705D208303542EA48
:100E40004372DB086554491C52EA0305F3D1046878
:100E5000002310A2250708D504F020040C4304D079
:100E6000C46901230CA2641EC46130BCFFF7A1BC9D
:100E700010B5044621461068FFF769FC024620467B
:100E8000BDE810400023D1E7D21D22F00701D1E9CF
:100E90000023CBE70000000030000000F0B40D4656
:100EA0000188090502D5214C7C4402E01F4C7C449A
:100EB0000E34002100F1240608E002F00F071209A9
:100EC000E75D42EA03721B097754491C52EA0307A3
:100ED000F3D102780023120704D5702D06D009B192
:100EE000022311342246F0BCFFF763BC0123103407
:100EF000F8E770B504460D4621461068FFF727FC59
:100F0000024629462046BDE870400023C6E7D21DB0
:100F100022F00703D3E90023C0E70368126843F017
:100F2000200303600823C3610023B7E7F43D0000FA
:100F30004FF0000200B5134694469646203922BF72
:100F4000A0E80C50A0E80C50B1F12001BFF4F7AFBD
:100F5000090728BFA0E80C5048BF0CC05DF804EB9F
:100F6000890028BF40F8042B08BF704748BF20F80D
:100F7000022B11F0804F18BF00F8012B70470000C2
:100F800000487047C82A002030B5B0F10A024FEA85
:100F9000900E71F100034EEA817EB0EB0E0061EB22
:100FA00091014FEA101E4EEA017E10EB0E0041EB5C
:100FB00011114FEA102E4EEA016E10EB0E0041EBBC
:100FC00011214FEA104E4EEA014E10EB0E0041EB9C
:100FD0001141401841F100014FEAD00040EA417050
:100FE0004FEAD10110EB80054FEA810444EA907486
:100FF00044EB01046D1944EB0404521BA3414FF070
:10100000000348BF0A3200D530BD401C41F1000149
:1010100030BD00002DE9F04F04460D46D21D22F0F0
:10102000070089B0D0E9009248461746394603F0D8
:1010300007F80246F80F01D02D2307E0206881074A
:1010400001D52B2302E0202101EAC0038DF82030D6
:101050000BB1012000E00020032A824601D0072ABC
:1010600004DB2946204600F053F93DE12078800654
:1010700001D40D2500E0E569C7F30A560D2D49DAC4
:1010800000214FEA175B08464FF00000002F00F4E4
:10109000400007DA00EB80004FF4400100EBD07015
:1010A00001EA60008115012901DD4FF0FF310022C6
:1010B0004FEA850CBCF1180F06D31346ACF11800AB
:1010C0004FF08052C24003E04FF4801323FA0CF338
:1010D0000CF10C0CBCF1200F04D3ACF1200C09FA7C
:1010E0000CF001E007FA0CF000294FF0004801DD98
:1010F00018B90FE00ED140450CD319EB02095F413E
:1011000021B9404502D19F4329EA0209BBEB175F91
:1011100000D0761C2088000502D57B48784402E088
:1011200079487844193808AA302302F80A30037C39
:101130000AF10101002E0AF1020A53546A4602DC48
:101140004FF0300101E04FF031014FF001088DF810
:10115000001002D0A6F2FF3603E059EA470100D0A2
:101160006A4E002D02DC2178090704D54FF00208F1
:101170002E218DF80110C44600210BE0C7F3034374
:101180003F01C35C491C6D1E02F80830052908F1B7
:10119000010801DA002DF1DC00210CE000EB1973ED
:1011A000491C1B786D1E082902F808304FEA0919FE
:1011B00008F1010801DA002DF0DC2178890602D55A
:1011C00014E0A8F10108E04505DD02EB080111F883
:1011D000011C3029F5D0B8F1000F07DD02EB080142
:1011E00011F8011C2E2901D1A8F10108002D05DDFF
:1011F0003E2102F808106D1E08F10108407C002E07
:1012000002F8080008F1010804DA2D20764202F8FD
:10121000080002E02B2002F808000A214FF47A703F
:10122000864208F101080BDB96FBF0F3303302F83D
:10123000083096FBF0F308F1010800FB136601E0AB
:10124000642E0CDB642096FBF0F3303302F8083098
:1012500096FBF0F308F1010800FB136601E00A2E8B
:1012600006DB96FBF1F0303002F8080008F10108C7
:1012700096FBF1F001FB1060303002F80800A16924
:1012800008F1010808EB050202EB0A00081AA06148
:101290002078C00602D42046FFF78CF8216A08AEF9
:1012A00001EB0A00206204E0D4E9012116F8010BE9
:1012B0009047BAF1010AF7D22078C00602D520463D
:1012C000FFF778F86E4609E016F8010B3E280FD0BC
:1012D000D4E901219047206A401C2062B8F101083E
:1012E000F2D22046FFF77CF809B00320BDE8F08F6A
:1012F000206A2844206203E0D4E90121302090478D
:101300006D1EEBD3F8E70000BB3B000002FCFFFFC3
:101310002DE9F0411F46044603260168072A01F41F
:10132000006004DB08B116A505E016A503E008B1CE
:1013300015A500E015A521F010002060A069C01ED1
:10134000A0610FB1401EA0612046FFF733F84FB1F6
:10135000D4E9012138469047206A401C2062C01C15
:10136000206206E0206AFAE7D4E9012115F8010BB2
:101370009047761EF8D22046FFF732F8BDE8F0819C
:101380004E414E006E616E00494E4600696E660029
:1013900010B5436913B1AFF3008001E0FFF7E0F946
:1013A000012010BD127800F124010A7000224A7059
:1013B0000122EDE711684FF0FF32E9E710B543690C
:1013C00013B1AFF3008001E0FFF794FC012010BDE2
:1013D000128800F1240182840022C2840122EDE7F8
:1013E00011684FF0FF32E9E72DE9F04781461646D4
:1013F0008AB0334878440DC88DE80D0030487844F1
:10140000801C03AC0DC884E80D0041F69B300844F5
:10141000372190FBF1F290FBF1F5A5F1800501FB7E
:1014200012041B3C02D56442012000E00020DFF8DA
:1014300090A080460027FA44AAF1BE0A0DE0E0071A
:1014400009D03246684607EB47010AEB810100F0FC
:101450005DFB8DE8070064107F1C002CEFD1184F56
:101460007F44AC3F18E0E80714D007EB04100DF1FF
:10147000180A90E80E008AE80E00C068F04201D118
:1014800098190890324606A903A800F03FFB03AB69
:1014900083E807006D10641C002DE4D132466946D4
:1014A000B8F1000F03A802D000F01CFB01E000F02F
:1014B0002DFBC9E90001C9F808200AB0BDE8F08792
:1014C0007439000070B516460C46054600F044F825
:1014D000036893F80101012806D0FF2C0FD8185D8E
:1014E00068B101202C7070BDD3F807013246214647
:1014F00003F2071303442846BDE8704018474FF035
:10150000FF3070BD00487047A82A00207546FFF7DD
:10151000F9FFAE4605006946534620F007008546B0
:1015200018B020B5FEF704FFBDE820404FF00006DC
:101530004FF000074FF000084FF0000B21F00701BB
:10154000AC46ACE8C009ACE8C009ACE8C009ACE8FE
:10155000C0098D467047000010B5FFF711FD001D52
:1015600010BD00BF892C00000446AFF30080204668
:10157000FEF7C9FE4FF0013C50F8042B51F8043B34
:101580009A4221D1A2EB0C03934313EACC1317D157
:1015900050F8042B51F8043B9A4215D1A2EB0C03EE
:1015A000934313EACC130BD150F8042B51F8043BAE
:1015B0009A4209D1A2EB0C03934313EACC13DBD07C
:1015C0004FF00000704700BFD01A01BAB1FA81F1A4
:1015D00001F0180122FA01F0CB40C1F12001DBB289
:1015E000C0B2C01A2CFA01F3D11A914311EAC31107
:1015F000E6D1704701491820ABBEFEE72600020085
:1016000070475FEA400C08BF91F0000F4FEA8C234F
:101610004FEAC12243EA51514FEA1C5018BF00F56E
:10162000F0404FEA300018BF41F000415FEA6C5CC7
:1016300000F02980BCF1FF3F08BF40F080407047B8
:10164000130C06BF12044FF0100C4FF0000C130ED9
:1016500004BF12020CF1080C130F04BF12010CF1AD
:10166000040C930F04BF92000CF1020CD30F04BFC3
:1016700052000CF1010C11464FF00002A0F11F00C6
:10168000A0EB0C00704711F0004F08BF704731F01D
:1016900000413FF4D5AF0B0C06BF09044FF0100C0E
:1016A0004FF0000C0B0E04BF09020CF1080C0B0FDD
:1016B00004BF09010CF1040C8B0F04BF89000CF16D
:1016C000020CCB0F04BF49000CF1010CCCF120033C
:1016D000A0EB0C0022FA03F302FA0CF241EA030138
:1016E00000F10100704720F07F4C80EA030023F0F6
:1016F0007F47ACEB070303F57C5300F0004003F198
:10170000FF032DE980494FEA154B09B44FEA144312
:1017100025EA0B4E24EA03480FF2042606EB1327B2
:1017200049083E785FEA320203FB0667C7F5000707
:1017300007FB06F64FEA54374FEAD64606F1020693
:1017400007FB066CCCF1005C4FEA1C472CEA074C07
:1017500007FB06F40CFB06F504EB15464FEA96165C
:1017600034BF00204FF000404FEAD13706FB07FCA2
:101770004FEA1C4C0CFB0BF7D21B03FB0CF761EB85
:1017800007010CFB0EF7B0EB074072EB17420CFBA6
:1017900008F734BFA2EB0742B2EB074261EB1741F7
:1017A0004FEA0C444FEA910706FB07FC4FEA1C4C3A
:1017B0000CFB0BF7B0EBC74072EB573203FB0CF797
:1017C00034BFA2EBC742B2EBC74261EB57310CFB0F
:1017D0000EF7B0EBC70072EB57720CFB08F734BF83
:1017E000A2EBC702B2EBC70261EB5771039F4FEA4E
:1017F000816141EA921104EBCC044FEAD1374FEA00
:10180000826206FB07FC42EA90124FEA80604FEAD0
:101810001C4C0CFB0BF7D21B03FB0CF761EB070115
:101820000CFB0EF7B0EB074072EB17420CFB08F70E
:1018300034BFA2EB0742B2EB074261EB17414FEA1C
:101840008C554FEA910704EB9C2406FB07FC4FEAFA
:101850001C4C0CFB0BF7B0EBC74072EB573203FB91
:101860000CF734BFA2EBC742B2EBC74261EB573172
:101870000CFB0EF7B0EBC70072EB57720CFB08F7CE
:1018800034BFA2EBC702B2EBC70261EB577115EB95
:101890004C254FEA816141EA92114FEA82624FEA98
:1018A000D13742EA901206FB07FC44F100044FEAEC
:1018B00080604FEA1C4C0CFB0BF7D21B03FB0CF7B0
:1018C00061EB07010CFB0EF7B0EB074072EB174220
:1018D0000CFB08F734BFA2EB0742B2EB074261EB07
:1018E000174115EB1C154FEA813141EA92414FEA4D
:1018F000823242EA90424FEA80304FEA0C7644F15D
:10190000000448EA03434EEA0B484FF0000EB2EBE6
:10191000080C71EB030724BF624639464EEB0E0EEE
:101920004FF0000B0018524149414BEB0B0BB2EB4F
:10193000080C71EB03077BF1000B24BF62463946AC
:101940004EEB0E0E4FF0000B0018524149414BEB8D
:101950000B0BB2EB080C71EB03077BF1000B24BF00
:10196000624639464EEB0E0E51EA020718BF46F0AA
:10197000010616EB0E7655F1000254F1000103D575
:10198000BDE88901BDE80088BDE88901BDE80048DF
:10199000B619524141EB0101A3F101037047808068
:1019A0007F7E7D7C7B7A79787776767574737271B9
:1019B00071706F6E6E6D6C6C6B6A6A696868676671
:1019C00066656464636362616160605F5F5E5E5D03
:1019D0005D5C5C5B5B5A5A59595858575756565577
:1019E00055555454535352525251515050504F4FD9
:1019F0004F4E4E4D4D4D4C4C4C4B4B4B4A4A4A4929
:101A0000494948484847474747464646454545446B
:101A10004444444343434342424242414141002BF8
:101A200026D4770021D01CB54FEA370703B44FF016
:101A300010004FF010014FF000000FBCBDE8104047
:101A40000BF1010BBBF1010F08BF5FEA170722BFC3
:101A500012F1010211F101014FF0004143F10003C5
:101A600000F0004043EA00007047F9D35708DAE776
:101A700046EA064613F1400F4FEA16461FDD13F102
:101A8000200FDFBF16430A46002120335B42C8D037
:101A9000C3F1200746EA064602FA07F74FEA164660
:101AA00046EA0706C3F1200722FA03F201FA07F714
:101AB00021FA03F14FF0000342EA0702B1E746EAD8
:101AC000020646EA06464FEA164646EA0106BCBF4B
:101AD00046EA0646360C4FF000034FF000024FF086
:101AE00000019EE72DE9C048934630B491E83800E4
:101AF00007C831EA400C48BF34EA430C03D5FFF76E
:101B0000F2FDFFF78CFFF0BCBDE800882DE9C0486E
:101B1000934630B491E8380007C810F0804F08BFF2
:101B200013F0804F03D100F005F8FFF778FFF0BC09
:101B3000BDE8008820F07F4780EA030023F07F4C57
:101B400007EB0C03A3F57C5300F00040A3F1FE0368
:101B500092F0000F00F0B38095F0000F00F0778056
:101B60002DE901494FEA11404FEA144621EA0048A5
:101B700000FB06FC24EA064708FB06F607FB08F80C
:101B800000FB07F718EB06484CEB164C4FEA124BDC
:101B900018EB07484FEA15464CEB174022EA0B4E6C
:101BA0000BFB06FC25EA06470EFB06F607FB0EFEBE
:101BB0000BFB07F71EEB064E4CEB164C4FF00006E6
:101BC0001EEB074E4CEB174B18EB0B0840F10000D7
:101BD00018EB0E0B58EB000840F100008F1A4FF085
:101BE00000013CBFC943661B14BFB5EB040C0021C8
:101BF0003CBFC943F61B4FEA17444EEA8E0E27EA54
:101C000004454FEA1C4704FB07622CEA074C05FB1E
:101C100007F70CFB05F604FB0CFC16EB074642EB42
:101C2000174216EB0C4642EB1C421BEB060658EB28
:101C30000202414146EA9E0601D5BDE80189B61976
:101C4000524141EB0101A3F10103BDE801894FEAD3
:101C500014454FEA114724EA054621EA074C05FBE3
:101C600007F406FB07F70CFB06F105FB0CFC11EB78
:101C7000074144EB17444FEA124711EB0C4144EB88
:101C80001C4422EA074C05FB07F206FB07F70CFB96
:101C900006F605FB0CFC16EB074642EB174216EB6B
:101CA0000C4642EB1C456A1854F1000148BF7047CE
:101CB000B619524141EB0101A3F10103704795F0C0
:101CC000000F37D04FEA11424FEA144721EA02468B
:101CD00024EA074C02FB07F106FB07F70CFB06F4AE
:101CE00002FB0CFC14EB074441EB17414FEA15478C
:101CF00014EB0C4441EB1C4125EA074C02FB07F5B1
:101D000006FB07F70CFB06F602FB0CFC16EB07467E
:101D100045EB174516EB0C4645EB1C42121951F1E9
:101D2000000148BF7047B619524141EB0101A3F1D0
:101D3000010370474FEA14454FEA114724EA05466C
:101D400021EA074C05FB07F106FB07F70CFB06F23F
:101D50004FF0000605FB0CFC12EB074241EB17416C
:101D600012EB0C4251EB1C4148BF7047921841EBFB
:101D70000101A3F10103704700BFFEE70246094BD2
:101D80009A4201D2084801E00648103801F0005399
:101D90001BB1064B0B40C36002E0044B0B40836059
:101DA0007047000010640240006002407D0F7D0F0C
:101DB00021B1026842F00102026003E0026822F0F1
:101DC0000102026070470000016821F0010101601A
:101DD0000021016041608160C16001612121416198
:101DE0004A49884204D13D21484A103A91608CE02A
:101DF00046491831884205D14FF47461434A103A7C
:101E0000916082E041493031884205D14FF474112C
:101E10003E4A103A916078E03C494831884205D109
:101E20004FF07461394A103A91606EE03749603181
:101E3000884204D13649354A103AD16065E03349C9
:101E40007831884204D13349304A103AD1605CE09D
:101E50002E499031884204D12F492C4A103AD16042
:101E600053E02A49A831884205D14FF03D51274A15
:101E7000103AD16049E02949884204D13D21274ADE
:101E8000083A116041E025491831884205D14FF4E4
:101E90007461224A083A116037E0204930318842A3
:101EA00005D14FF474111D4A083A11602DE01B4909
:101EB0004831884205D14FF07461184A083A1160E0
:101EC00023E016496031884204D11149134A121F98
:101ED00011601AE011497831884204D10D490F4A46
:101EE000121F116011E00D499031884204D10A4956
:101EF0000A4A121F116008E00849A831884204D13B
:101F00004FF03D51054A121F1160704710600240AA
:101F10003D000020400F002000003D2010640240E2
:101F20000146486880B2704730B503460A46002033
:101F300000240B4DAB4201D20A4901E00849103997
:101F400002F000550DB14C6800E00C68064D2C40C5
:101F500004EA02050DB1012000E0002030BD0000C0
:101F600010640240006002407D0F7D0F10B500221A
:101F70000268134B1A40CC680B6823434C69234317
:101F80008C692343CC6923430C6A23434C6A234363
:101F90008C6A23434C6B23438C6B23431A430260AC
:101FA000426922F00702D1E90B3423431A4342610C
:101FB0000B6943604B6883608B68C36010BD000091
:101FC0003F801CF0416070477047F0B50A46002121
:101FD0000023002400BF3DE0012505FA01F3156848
:101FE00005EA03049C4234D105684F000326BE4035
:101FF000B543056015794E00B54006683543056068
:102000001579012D02D01579022D16D185684F0062
:102010000326BE40B543856055794E00B5408668BD
:1020200035438560456801268E40B5434560456867
:1020300096798E40B6B235434560C5684F00032699
:10204000BE40B543C560D5794E00B540C66835433E
:10205000C560491C1029BFD3F0BDF0B50023002492
:102060004D07ED0E02FA05F3CE1000F1200555F8EC
:1020700026504E07F70E0F26BE40B543CF1000F195
:10208000200646F82750CE1000F1200555F82650BE
:1020900045EA0304CE1000F1200545F82640F0BDC6
:1020A000418370470183704710B500F005F988201F
:1020B00000F0CEF800F04CF9232000F0C9F800F051
:1020C00047F9222000F0C4F800F042F900F01AF9B4
:1020D00010BD00001CB50121042000F02FFD0121DE
:1020E000082000F02BFD4020009001208DF8040016
:1020F00000208DF8060003208DF8050001208DF8E2
:10210000070069460848FFF760FF4FF40050009051
:1021100069460648FFF759FF01200549086005494F
:10212000C1F898021CBD000000080240000C0240EB
:10213000B48241420000414200BFFEE710B50020DA
:102140000F4908600F48006820F440500D490860AE
:102150000846006840F48050086000200A49C1F831
:102160009802022001F09AFF012005490860022030
:1021700001F094FF00200549C1F8B40210BD000031
:10218000B4824142000802400000414200804142C6
:1021900010B500200F4908600F48006820F4405037
:1021A0000D4908600846006840F48050086001202E
:1021B0000A49C1F89802022001F070FF0120054988
:1021C0000860022001F06AFF00200549C1F8B4024E
:1021D00010BD0000B48241420008024000004142AC
:1021E0000080414270B5054600241548006820F47F
:1021F000405013490860084600680860002615E052
:10220000002010490860022001F048FF01200E491B
:10221000C1F8B4026006040E0C48006808B1601CE6
:10222000C4B2012001F03AFF701CC6B2082EE7DBF1
:1022300015B9FFF7ADFF01E0FFF780FF204670BD45
:1022400000080240B48241420080414218024142EB
:1022500070B504461448006820F4405012490860E4
:102260000846006840F48050086000200F4908606C
:10227000002516E0E0090E4908606006040E022001
:1022800001F00CFF01200B49C1F8B402022001F05B
:1022900005FF002005490860022001F0FFFE681CD0
:1022A000C5B2082DE6DB70BD00080240B482414291
:1022B000980241420080414210B50F48006820F466
:1022C00040500D4908600846006840F4805008609E
:1022D00001200A4908600A49C1F8B402042001F04B
:1022E000DDFE002005490860042001F0D7FE002033
:1022F0000349C1F8B40210BD0008024098024142EF
:102300000080414210B50F48006820F440500D494C
:1023100008600846006840F48050086000200A49C0
:1023200008600A49C1F89802042001F0B7FE0120B4
:10233000054908600549C1F89802042001F0AEFE85
:1023400010BD000000080240B4824142000041423A
:1023500010B500241248006820F44050104908606D
:1023600008460068086001200E49086001F096FEEA
:1023700001200D49C1F8B40201F090FE07E0601C95
:10238000C4B2FA2C03DDFFF7BDFF012010BD0548E4
:10239000803800680028F2D10449086000BFF5E7E2
:1023A000000802409802414200804142B48241420A
:1023B0004CF6CC40014908607047000000300040F6
:1023C00010B500F013F810BD10B545F2555000F0EF
:1023D00021F8052000F012F84FF47A6000F014F8AC
:1023E00000F004F8FFF7E4FF10BD00004AF6AA2051
:1023F0000149086070470000003000400149486012
:1024000070470000003000400149886070470000BC
:102410000030004001490860704700000030004073
:102420001CB50121102000F089FB4FF4F040009012
:1024300001208DF8040000208DF8060003208DF89F
:10244000050000208DF8070069460248FFF7BDFD32
:102450001CBD00000010024010B523484078012840
:1024600040D100202049487020480078FF2803D13F
:1024700000201E49087004E01C480078401C1B49DD
:1024800008701A49087800EBD0714910A0EB41019F
:10249000A1B94FF400611648FFF704FE4FF48041E4
:1024A0001348FFF7FFFD4FF480511148FFF7F8FD87
:1024B0004FF400510E48FFF7F3FD13E04FF40061B5
:1024C0000B48FFF7EDFD4FF480410948FFF7E8FDA9
:1024D0004FF480510648FFF7E5FD4FF400510448E2
:1024E000FFF7E0FD10BD00005C0400202800002084
:1024F0000010024000BFFEE73EB541F6FF74012127
:10250000080700F02BFB012000F020FA002000F06B
:10251000CFFC45F25001884231D0012000F0D2FBBF
:1025200004E0601C84B20A2001F0AAFD612000F0E2
:10253000A9FB0028F5D00CB901203EBD4FF4007076
:1025400000F0CCFB012000F0C3FB7F200190FF20B6
:10255000029000200090684600F078FC40230022A2
:102560002F21152000F092FD0723022208211420BC
:1025700000F07AFD45F25001002000F0C9FD002076
:10258000DBE7704770B5002100230F22C4781CB32D
:10259000174C246804F4E064C4F5E064C4F3072134
:1025A000C1F10404E3B20A4144789C40E1B284786A
:1025B000144021430C07210E0E4C05786155047818
:1025C00004F01F050124AC4005786D11AD0005F144
:1025D000E025C5F8004109E0047804F01F05012456
:1025E000AC40054D0678761145F8264070BD0000D8
:1025F0000CED00E000E400E080E100E0024901436E
:10260000024A1160704700000000FA050CED00E07E
:1026100070B5002419E004F1B001C8B2002100F047
:1026200053F90021084600F04FF90021102000F076
:102630004BF9002505E00121002000F045F9681C58
:10264000C5B2802DF7DB601CC4B2082CE3DB70BD83
:1026500010B500218D2000F037F90021142000F082
:1026600033F90021AF2000F02FF910BD1CB5012176
:10267000022000F063FA4FF47840009001208DF8BA
:10268000040000208DF8060003208DF8050069463F
:102690000448FFF79AFC4FF478410248FFF702FD27
:1026A0001CBD00000004024010B5FFF7DFFF4FF42F
:1026B00000614E48FFF7F6FC642001F0E1FC4FF4A6
:1026C00000614A48FFF7ECFC642001F0D9FC4FF4AC
:1026D00000614648FFF7E6FC4FF4FA7001F0D0FCC9
:1026E0000021FD2000F0F0F80021122000F0ECF8AD
:1026F0000021AE2000F0E8F80021D52000F0E4F839
:102700000021A02000F0E0F80021A82000F0DCF873
:1027100000213F2000F0D8F80021D32000F0D4F8A9
:102720000021084600F0D0F80021402000F0CCF84D
:102730000021A12000F0C8F80021C82000F0C4F852
:102740000021DA2000F0C0F80021022000F0BCF8DF
:102750000021084600F0B8F80021D52000F0B4F8B8
:102760000021802000F0B0F80021D92000F0ACF862
:102770000021F12000F0A8F80021DA2000F0A4F8F0
:102780000021122000F0A0F80021812000F09CF828
:102790000021BF2000F098F80021D92000F094F823
:1027A0000021252000F090F80021DB2000F08CF8BB
:1027B0000021342000F088F80021A42000F084F8E3
:1027C0000021A62000F080F80021AF2000F07CF866
:1027D0000021AF2000F078F8FFF71AFF002108462B
:1027E00000F006F8FFF734FF10BD000000040240BF
:1027F00070B504460D4605F1B001C8B2002100F0E5
:1028000063F8102141EA1410002100F05DF804F093
:102810000F0141F00100002100F056F870BD0000EA
:102820002DE9F04107460E46904600250024A8F108
:102830002000C5B27F2F02DD0027B01CC6B2314692
:102840003846FFF7D5FF002408E004EB05110F4AD6
:10285000505C012100F038F8601CC4B2082CF4DB95
:10286000701CC1B23846FFF7C3FF002409E004EB37
:1028700005110831054A505C012100F025F8601C63
:10288000C4B2082CF3DBBDE8F081000094460008D8
:102890002DE9F04104460F46154600260EE0AA5DDC
:1028A00039462046FFF7BCFF04F10800C4B2782C7B
:1028B00002DD0024B81CC7B2701CC6B2A85D002897
:1028C000EDD1BDE8F081000070B504460E462EB192
:1028D0004FF480411C48FFF7E5FB04E04FF48041D2
:1028E0001948FFF7DDFB4FF480511748FFF7D8FB7D
:1028F00000251BE04FF400511348FFF7D1FB04F013
:10290000800028B14FF400410F48FFF7CBFB04E0F3
:102910004FF400410C48FFF7C3FB4FF400510A4845
:10292000FFF7C0FB6006040E681CC5B2082DE1DB92
:102930004FF480510448FFF7B5FB4FF48041024843
:10294000FFF7B0FB70BD00000004024001490862BF
:102950007047000000000E427047000000B52DEDEA
:10296000048B8DB028488078012849D10020264961
:10297000887000F0DBFB254890ED020A10EE101A7B
:10298000084601F04FFC41EC180B204890ED010A7D
:1029900010EE101A084601F045FC41EC190B8DEDC4
:1029A000008B53EC192B1AA001F0EAFB174890EDAD
:1029B000010A10EE101A084601F034FC41EC180B25
:1029C00053EC182B17A103A8FDF7DEFC03AA042182
:1029D0000020FFF75DFF0D4890ED020A10EE101A7F
:1029E000084601F01FFC41EC180B53EC182B11A109
:1029F00003A8FDF7C9FC03AA06210020FFF748FF42
:102A00000DB0BDEC048B00BD5C040020742A0020D6
:102A100025322E326620432025322E32662025258F
:102A20000D0A0000542020203A25322E3266204321
:102A300000000000524820203A25322E3266202520
:102A40002500000070B505460C46FA2C03DA214635
:102A5000284601F0E3F870BD10B50446204600F0AA
:102A600029FF10BD70B504460E461546FA2D00DD4F
:102A7000FA2520786178884204D1A078202801D1F5
:102A8000002070BD6178201D00EB01200570627888
:102A9000211D01EB0221481C2A463146FDF7B2FDFB
:102AA0006078401C00F01F006070A078401CA0708F
:102AB0000220E6E710B5094A09490A4800F014F86F
:102AC000022809D105480178054800F025FF4FF498
:102AD00080710348FDF70DFE10BD00002C000020A2
:102AE0002D0000206808002070B504460E461546EB
:102AF00020786178884203D1A07808B9012070BDA0
:102B00002178201D00EB0120007828702878FA2811
:102B100001DDFA2028702A782378201D00EB03209D
:102B2000411C3046FDF76EFD2078401C00F01F0070
:102B30002070A078401EA0700220E0E729B1064A6C
:102B400012680243044B1A6004E0034A126882438D
:102B5000014B1A60704700003038024029B1064A24
:102B600012680243044B1A6004E0034A126882436D
:102B7000014B1A60704700004038024029B1064AF4
:102B800012680243044B1A6004E0034A126882434D
:102B9000014B1A607047000044380240F0B5002134
:102BA00000220024022500260223324F3F6807F04E
:102BB0000C0121B1042905D0082937D105E02E4F99
:102BC000076036E02D4F076033E02A4F3F1F3F6814
:102BD000C7F38056274F3F1F3F6807F03F036EB192
:102BE000264FB7FBF3F7DFF88CC0ACF1040CDCF830
:102BF00000C0CCF3881C07FB0CF40CE01E4FB7FBA5
:102C0000F3F7DFF870C0ACF1040CDCF800C0CCF3D3
:102C1000881C07FB0CF4174F3F1F3F68C7F30147A1
:102C20007F1C7D00B4FBF5F7076002E0124F0760E0
:102C300000BF00BF0F4F3F6807F0F0010909104FB8
:102C40007A5C0768D74047600A4F3F6807F4E05155
:102C5000890A0B4F7A5C4768D7408760054F3F6809
:102C600007F46041490B064F7A5C4768D740C7605C
:102C7000F0BD0000083802400024F40000127A0081
:102C80000000002010B501460022002300204A1158
:102C9000012A02D10A4C236808E0022A03D1084C19
:102CA0007034236802E0064C7434236801F01F027C
:102CB000012494401C400CB1012000E0002010BD14
:102CC000003802400149086070470000800E47420A
:102CD00001490860704700003C0E4742002100F4A3
:102CE0004072B2F5407F08D1094A116821F4F81109
:102CF000084A02401143064A1160054A68321268C8
:102D0000C0F30B031A43024B68331A60704700008C
:102D100008380240FFFCFF0F014600BF080900EB26
:102D20008000420001F00F001044C0B2704701461D
:102D3000002204E0501CC2B2A1F10A00C1B20A296B
:102D4000F8DA100741EA10607047000008B5002269
:102D5000009200200021104A126802F04002CAB915
:102D6000421E0D4B1A6000BF0B4A126802F0400170
:102D7000009A521C0092009AB2F5803F01D00029BF
:102D8000F2D0054A126802F040020AB1012002E0C6
:102D9000002000E0012008BD0C2800400348006826
:102DA00020F0800001490860704700000C280040B6
:102DB00070B506460C4600250E4800680E4900EA2C
:102DC0000105280CE070C5F30420607005F03F0099
:102DD000A070C5F3423020705EB9E078FFF79CFF29
:102DE000E0706078FFF798FF6070A078FFF794FFBD
:102DF000A07070BD042800403FFFFF0070B506467C
:102E00000C4600250F4800680F4900EA0105C5F38C
:102E100005402070C5F30620607005F07F00A070AB
:102E200005F48000000CE0705EB92078FFF774FFB5
:102E300020706078FFF770FF6070A078FFF76CFF7C
:102E4000A07070BD002800407F7F7F0030B5044631
:102E50000025CA201549086053200860FFF776FF57
:102E600000B91DE011481C38006820F040000F49EF
:102E70001C39086008460068216808430B491C3962
:102E800008600A491439A068086008460068A188EB
:102E900040EA0140054914390860FFF77FFF01252A
:102EA000FF2002490860284630BD00002428004069
:102EB00008B501460020009004480090009800EBFF
:102EC000810000900098006808BD00005028004074
:102ED0002DE9F04105460C46002600274DB96078E3
:102EE00000F01000102804D1607820F010000A30A3
:102EF000607005B908E06078FFF70EFF0646A0781D
:102F0000FFF70AFF064600BF55B1E078000461787C
:102F100040EA0120A1780843217840EA413611E0D7
:102F2000E078FFF704FF4FEA00486078FFF7FFFE04
:102F300048EA0028A078FFF7FAFE48EA000820785F
:102F400048EA4036CA201249086053200860FFF75B
:102F5000FDFE08B9002714E00E4830400C49203926
:102F60000860FFF71BFF0A481C38006800F02000CB
:102F700030B900F09DF808B9002702E0012700E011
:102F80000127FF20024908603846BDE8F0810000B3
:102F9000242800403FFFFF002DE9F04105460C4684
:102FA000002600274DB92E48006800F0400000B10F
:102FB00002E00020E07000BF0DE02948006800F04A
:102FC000400020B12078FFF7A7FE064602E000206F
:102FD000E07000BF00BF55B120780004617840EA7E
:102FE0000120A1780843E17840EA014611E0207809
:102FF000FFF79DFE4FEA00486078FFF798FE48EA29
:103000000028A078FFF793FE48EA0008E07848EA35
:103010000046CA2012491C31086053200860FFF79F
:1030200095FE08B9002713E00E4830400C490839D6
:103030000860FFF7B3FE0A48006800F0200030B9CE
:1030400000F036F808B9002702E0012700E0012768
:10305000FF2003491C3108603846BDE8F0810000BC
:10306000082800407F7F7F00F8B504460D461746CC
:103070001E468DF802708DF801508DF800608DF8B5
:10308000034069460020FFF723FFF8BDF8B504466A
:103090000D4617461E468DF800408DF801508DF8FC
:1030A00002708DF8036069460020FFF775FFF8BDD8
:1030B00008B50022009200200021CA22134B1A609A
:1030C00053221A60114A183A126822F0A0020F4BDC
:1030D000183B1A6000BF0D4A183A126802F020012E
:1030E000009A521C0092009AB2F5003F01D00029CC
:1030F000F1D0064A183A126802F020020AB1012003
:1031000000E00020FF22014B1A6008BD2428004087
:1031100008B500220092044A0092009A02EB800255
:103120000092009A116008BD5028004070B5FFF76A
:10313000C3F88820FFF78CF8FFF70AF9E020FFF7C3
:1031400087F8FFF705F90020FFF782F8FFF700F98D
:10315000FFF7B2F88920FFF77BF8FFF7F9F80120B5
:10316000FFF740F804464FF6FF7000EA0424012000
:10317000FFF738F804430120FFF734F80646012032
:10318000FFF730F805464FF6FF7000EA05250120ED
:10319000FFF728F805430020FFF724F80646FFF75D
:1031A000B1F800EE105AF8EE400A9FED0E1A80EECC
:1031B000810ADFED0D0A20EE200A0C4880ED020A9C
:1031C00000EE104AB8EE400A9FED061AC0EE010A62
:1031D0009FED071A9FED070A10EE810A80ED010AA4
:1031E00070BD000000FF7F470000C842742A002025
:1031F00000002F4300003442704700000CB500204F
:10320000019000903448006840F4803032490860F2
:1032100000BF3148006800F4003000900198401C65
:103220000190009818B90198B0F5A04FF1D12A4843
:10323000006800F4003010B10120009001E000208F
:1032400000900098012846D123484030006840F0A3
:1032500080502149403108602048006840F44040D7
:103260001E4908601C48083000681B490831086086
:103270000846006840F4004008600846006840F4D2
:10328000A05008601648091F0860081F006840F039
:103290008070091F086000BF0F48006800F00070D0
:1032A0000028F9D040F205700E4908600A4808303D
:1032B000006820F0030008490831086008460068EB
:1032C00040F00200086000BF03480830006800F0CA
:1032D0000C000828F8D10CBD0038024000700040F6
:1032E00008544007003C024008B51D48C07801283A
:1032F00035D100201A49C8701A49FFF77FFD1948D7
:1033000083784278017818A000F03AFF1548807859
:10331000009014484378027819A11E48FDF734F84C
:103320001C4A00210846FFF7B3FA1B490020FFF7AB
:103330003FFD194883784278C17818A000F020FF3B
:1033400015488078009014484378C27819A1114834
:10335000FDF71AF80F4A02210020FFF799FA08BD7D
:103360005C0400206004002054696D653A25303209
:10337000643A253032643A253032640D0A00000088
:1033800054696D653A253032643A253032643A2505
:1033900030326400802A0020640400204461746597
:1033A0003A3230253032642D253032642D253032CA
:1033B00064202000446174653A3230253032642D37
:1033C000253032642D253032640000000146002093
:1033D0000AE00246431CD8B28A5C0A2A00D104E003
:1033E000FA2801DDFA2000E0F3E700BF7047000093
:1033F0000448006820B103480068401E0149086085
:10340000704700001000002010B51548006840F417
:103410007000134908601348006840F0010011492A
:10342000086000200F49083108600E4800680E4906
:1034300008400C4908600D48091D0860081F006815
:1034400020F48020091F0860002006490C31086024
:10345000FFF7D4FE4FF0006001498039086010BDCD
:1034600088ED00E000380240FFFFF6FE1030002437
:1034700010B50121204800F088F800283BD0012138
:103480001D4800F073F81D480068401C1B49086087
:10349000084600681A49B0FBF1F201FB120010B9AE
:1034A0000120184908701548006840F6B831B0FB93
:1034B000F1F201FB120010B90120124948700F48C7
:1034C00000684FF4FA61B0FBF1F201FB120010B991
:1034D00001200C498870094800684FF47A71B0FBEC
:1034E000F1F201FB120010B901200649C87000F08A
:1034F00013F900F0A9FA10BD000C00405804002098
:10350000C0D401005C0400201FB501210820FFF792
:1035100025FB32208DF8000000208DF801000120ED
:103520008DF802008DF803006846FFF72BF84FF482
:103530007A7002900020ADF80400ADF80C00ADF8F0
:10354000060001A9084800F03DF801225321064871
:1035500000F035F801221146034800F027F8012158
:10356000014800F006F81FBD000C0040CA4302826B
:10357000704721B1028842F00102028004E0028813
:103580004FF6FE731A400280704730B502460020A5
:1035900000230024158A05EA0103958905EA010440
:1035A00013B10CB1012000E0002030BD1AB18389B5
:1035B0000B43838102E083898B43838170470185BC
:1035C0008282704700220288184B98420ED0184B16
:1035D00098420BD0B0F1804F08D0164B984205D0DE
:1035E000154B984202D0154B984204D14FF68F7379
:1035F0001A404B881A43124B984207D0114B9842FD
:1036000004D04FF6FF431A400B891A4302804B68DF
:10361000C3620B880385054B984202D0044B984245
:1036200001D18B7A03860123838270470000014019
:10363000000401400004004000080040000C00406D
:10364000001000400014004000B587B0012108467A
:10365000FFF774FA01211020FFF790FA07220921E1
:103660002848FEF7FAFC07220A212648FEF7F5FC57
:1036700002208DF8080000208DF80A0001208DF846
:103680000B0002208DF809000002019001A91D48DD
:10369000FEF79BFC02208DF8080001208DF80B003E
:1036A0008002019001A91748FEF78FFC4FF4E1302A
:1036B00003900020ADF81000ADF81200ADF8140032
:1036C0000C20ADF816000020ADF8180003A90E4834
:1036D00000F076FB0122C0210B4800F031FB0121F4
:1036E000094800F021FB00F06FF80848FEF718FCCD
:1036F000074908800548FEF713FC0649088007B013
:1037000000BD00000000024000100140886402403B
:10371000460200204402002010B52248FEF700FCBB
:1037200004462148007858B920480088844238D09F
:1037300001201D4908701E4800681E49086030E0DD
:103740001A480088844226D1194800681A4908603E
:103750000846006817490968401A022821D9012043
:103760001649087000201049087015480088A042CA
:1037700007DD13480088001B1249088010480480A8
:103780000FE00F48008800F58070001B0D4908808D
:103790000B48048005E00548048005480068054999
:1037A000086010BD88640240310100203201002011
:1037B00058040020380100203C0100203001002086
:1037C000340100202E01002000B58FB001218805B2
:1037D000FFF7B4F93248FEF7F7FA4FF000600090B7
:1037E000304801903048029040200390002004901F
:1037F00005904FF480600690002007900890099093
:103800004FF400300A9000200B9001200C90002013
:103810000D900E9069462248FEF7A8FB4FF020510C
:103820001F48FEF7ABFA00211D48FEF7C1FA01213F
:103830008805FFF783F91A483038FEF7C5FA4FF0CC
:1038400000600090174801901848029000200390F3
:103850004FF480700490002005904FF48060069033
:103860000020079008904FF48070099040020A9061
:1038700000200B9001200C9000200D900E906946C6
:1038800007483038FEF772FB094905483038FEF723
:1038900075FA012102483038FEF78AFA0FB000BDF0
:1038A000B864024004100140400100206804002078
:1038B0000008002070B504462046FFF787FD054646
:1038C00000211348FEF774FA11480C3004602946B1
:1038D0000F48FEF777FB01210D48FEF769FA00BF9C
:1038E0004FF020510A48FEF71FFB0128F8D100BF16
:1038F0004021084800F02DFA0128F9D14FF020515D
:103900000348FEF73BFA4021024800F0F5F970BD8C
:10391000B86402400010014070B504460D46002115
:103920001348FEF745FA12480C3004602946104847
:10393000FEF748FB01210E48FEF73AFA00BF4FF0B0
:1039400020510B48FEF7F0FA0128F8D100BF4021C2
:10395000084800F0FEF90128F9D14FF02051044841
:10396000FEF70CFA4021034800F0C6F970BD0000D4
:10397000B86402400010014000B587B0012108463C
:10398000FFF7DCF801214804FFF7E8F807220221DD
:103990002848FEF762FB072203212648FEF75DFB5D
:1039A00002208DF8080000208DF80A0001208DF813
:1039B0000B0000208DF809000420019001A91D488A
:1039C000FEF703FB02208DF8080000208DF80B00A5
:1039D0000820019001A91748FEF7F7FA4FF4E130EB
:1039E00003900020ADF81000ADF81200ADF81400FF
:1039F0000C20ADF816000020ADF8180003A90E4801
:103A000000F0DEF90122C0210B4800F099F90121F4
:103A1000094800F089F900F089F80848FEF780FAB3
:103A2000074908800548FEF77BFA0649088007B079
:103A300000BD0000000002400044004088600240D9
:103A4000460200204402002010B5B2B02C48FEF718
:103A500067FA04462B48007858B92B4800888442FE
:103A60004CD0012027490870284800682849086080
:103A700044E02548008884423AD12448006825491A
:103A800008600846006822490968401A022835D9AA
:103A900001202149087000201A4908701F48008839
:103AA000A04207DD1D480088001B1D4908801B48F7
:103AB000048008E01948008800F58070001B184950
:103AC000088016480480684600F03AFA14490880D5
:103AD0001248048000201349087011480088C82843
:103AE0000CDC0F48027869460F48FEF7BBFF05E083
:103AF00005480480054800680549086032B010BDDB
:103B00008860024043020020440200205804002044
:103B1000480200204C020020420200204602002001
:103B200040020020310100206808002000B58FB05D
:103B300001214805FFF702F83248FEF745F94FF03A
:103B4000006000903048019030480290402003907F
:103B50000020049005904FF48060069000200790AC
:103B6000089009904FF400300A9000200B9001203B
:103B70000C9000200D900E9069462248FEF7F6F951
:103B800023492048FEF7FAF800211E48FEF710F9F5
:103B900001214805FEF7D2FF1A481838FEF714F93C
:103BA0004FF000600090184801901A4802900020E1
:103BB00003904FF480700490002005904FF48060D3
:103BC00006900020079008904FF480700990400202
:103BD0000A9000200B9001200C9000200D900E9078
:103BE000694608481838FEF7C1F90B4905481838E6
:103BF000FEF7C4F8012103481838FEF7D9F80FB0D2
:103C000000BD0000A06002400444004050020020BB
:103C100000002020680500200008002070B5044640
:103C20000D4605B970BD00211248FEF7C1F81148D4
:103C30000C30046029460F48FEF7C4F901210D48F5
:103C4000FEF7B6F800BF0C490A48FEF76DF90128E7
:103C5000F9D100BF4021094800F07BF80128F9D1D3
:103C600005490448FEF78AF84021044800F044F86A
:103C700000BFD7E7A06002400000202000440040C1
:103C800010B540F22551184800F070F8012824D1F1
:103C9000154800F0FFF815490870084600780A2812
:103CA00003D00846007866280DD1104801781048E6
:103CB00002880088401C0E4B18800E48815400205A
:103CC0001946088009E009480178094802880088F7
:103CD000401C074B18800748815440F22551024888
:103CE00000F013F810BD000000480040520300200F
:103CF000560300206806002001F40072B2F5007F30
:103D000000D100BFCA430280704710B500220023D3
:103D100040F66A14A14200D100BF0A120124944067
:103D2000A3B2DC43048010BD21B1828942F4005269
:103D3000828104E082894DF6FF731A4082817047C8
:103D40001AB1838A0B43838202E0838A8B43838286
:103D5000704702460020B1F5007F00D100BF1388F4
:103D60000B400BB1012000E00020704770B5024607
:103D7000002400230025002040F66A16B14200D13D
:103D800000BFC1F3421501F01F03012606FA03F339
:103D9000012D02D19689334006E0022D02D1168A08
:103DA000334001E0968A33400C12012606FA04F4EF
:103DB0001688344013B10CB1012000E0002070BD22
:103DC0002DE9FF4705460E460024A14600BFA04648
:103DD000B08900B100BF2C8A24F44054F088044319
:103DE0002C82AC8941F20C608443B088318908434D
:103DF000718908430443AC81AC8A24F44074B089CF
:103E00000443AC826846FEF7C9FE2048854202D0D2
:103E10001F48854202D1DDF80C9001E0DDF80890E2
:103E2000A88900F4004040B109EBC90000EB09107B
:103E300031684900B0FBF1F707E009EBC90000EB7E
:103E4000091031688900B0FBF1F76420B7FBF0F08E
:103E500004012009642101FB1078A88900F40040C6
:103E600040B1322000EBC800B0FBF1F000F00700D9
:103E7000044308E0322000EB08106421B0FBF1F0AD
:103E800000F00F0004432C81BDE8FF8700100140C3
:103E90000014014001468888C0F308007047000004
:103EA00070B5044621480088FA2801DD002070BD65
:103EB0001E4802881E4800881044FF2811DC00219B
:103EC0000CE01B480088C0F58070184E3688801BB7
:103ED0000844184E305C6054481C81B29142F0DBBB
:103EE0001DE0134800881044A0F5807083B2D01AFA
:103EF00085B2002107E0C3F5807008440D4E305CA8
:103F00006054481C81B29942F5DB002105E0094864
:103F1000405C5E18A055481C81B2A942F7DB002026
:103F2000054E3070054E30701046C0E72E0100205F
:103F300032010020680400203001002031010020FF
:103F400070B5044621480088C82801DD002070BDF6
:103F50001E4802881E4800881044FF2811DC0021FA
:103F60000CE01B480088C0F58070184E3688801B16
:103F70000844184E305C6054481C81B29142F0DB1A
:103F80001DE0134800881044A0F5807083B2D01A59
:103F900085B2002107E0C3F5807008440D4E305C07
:103FA0006054481C81B29942F5DB002105E00948C4
:103FB000405C5E18A055481C81B2A942F7DB002086
:103FC000054E3070054E30701046C0E740020020AC
:103FD0004402002068050020420200204302002025
:103FE00010B50E48007801280CD100200B4908704C
:103FF0000B48FFF755FF0B49087008460178084841
:10400000FEF720FD08480078012805D10020064968
:10401000087006A000F0B4F810BD000030010020C8
:104020002D0000202C0000205C0400202A3A20747F
:10403000776F206D696E7574650D0A0000BFFEE72D
:1040400003B401984100009850EAC12018BF042031
:104050004A0D18BF40F0010040F2FF72B2EB515F11
:1040600008BF40F00200012808BF052002B07047D9
:1040700030380A2801D20120704700207047000024
:104080004FF47A714143044A116000BF0249096844
:104090000029FBD170470000100000200349086090
:1040A00000BF024909680029FBD1704710000020B9
:1040B00086B014222A4901A8FCF7E9FA29480068C9
:1040C000294AB0FBF2F1481EB0F1807F00D31BE01B
:1040D000481E4FF0E022506150170F22002807DAE7
:1040E00013071D0E214B00F00F04241F1D5503E084
:1040F00013071C0E1E4B1C5400BF00204FF0E02283
:1041000090610720106100BF4FF4A060FEF776FABF
:10411000FFF79AFAFFF730FCFEF782F9FFF7F4F9A0
:10412000FDF7D8FFFDF7C0FF142101A8FFF7F4FB4E
:10413000142101A8FFF772FDFEF7B6FAFEF744F965
:10414000FEF7DAF90BE0FEF73BF9FEF785F9FEF72B
:10415000B1FCFFF745FFFEF701FCFFF7C5F8F2E7FA
:10416000184300081400002040420F0018ED00E042
:1041700000E400E010B504462046FEF76DFC10BDDB
:104180000FB438B50C480078012811D105A800906B
:104190007F210A48009B049AFCF7DCF8C4B2782C13
:1041A00000DD78240548FFF7E5FF0020009000BF00
:1041B00038BC5DF814FB00005403002068070020A1
:1041C00010B500290AD00878002807D0054878449F
:1041D000FDF7D0F9002801D0002010BD0248784436
:1041E00010BD0000D60B0000CE0B000010B500295A
:1041F0000AD00878002807D005487844FDF7BAF9B6
:10420000002801D0002010BD0248784410BD0000F5
:10421000C60B0000BE0B00000808A0F500114FEA15
:104220003101704743004FEAD30C4FEA3C0C434046
:104230001FBF40070CF1605113F0FE4F70471CF098
:10424000006F03D100200CF0004170470CF00043D8
:1042500043EA507010B540EACC0000F00EF800BF01
:10426000000000924FEA0001FFF7D6BF4FF0004177
:104270004FF00000A1F5002170470EF1020E2EF064
:10428000030E5EF8044B244204D44FEA4102B2F11B
:104290007F4F11D84FEA4003B3F17F4F0CD80ED1B6
:1042A0004FEAD07CB2F17F4F0CEB4C0C0CF1020CBE
:1042B00008BF4CEBD17C04E04FF0080C01E04FEA62
:1042C000D17C0CEB4C0324FA03F404F00704B4F1A2
:1042D000040C06D20EEB840CBDE810404CF0010C2F
:1042E0006047DFE80CF0070802024FF00040A0F53D
:1042F000800010BD0846420018BFD2F1807288BF0E
:1043000000F0004010BD4FF04070E1EE100A704721
:10431000FCF793BBFCF77EBE676F20746F20776855
:10432000696C65210D0A000000000000000000001B
:1043300000000000002F000000000700070000142C
:104340007F147F1400242A7F2A120062640813233A
:1043500000364955225000000503000000001C22D1
:104360004100000041221C000014083E081400080F
:10437000083E0808000000A06000000808080808BF
:10438000000060600000002010080402003E514957
:10439000453E0000427F40000042615149460021F5
:1043A00041454B31001814127F100027454545390F
:1043B000003C4A494930000171090503003649496A
:1043C000493600064949291E000036360000000023
:1043D000563600000008142241000014141414146E
:1043E0000000412214080002015109060032495917
:1043F000513E007C1211127C007F49494936003E33
:1044000041414122007F4141221C007F49494941ED
:10441000007F09090901003E4149497A007F0808E7
:10442000087F0000417F4100002040413F01007FA4
:1044300008142241007F40404040007F020C027F70
:10444000007F0408107F003E4141413E007F090982
:104450000906003E4151215E007F091929460046A8
:10446000494949310001017F0101003F4040403F7F
:10447000001F2040201F003F4038403F00631408C9
:1044800014630007087008070061514945430000A4
:104490007F41410000552A552A55000041417F00C7
:1044A00000040201020400404040404000000102BC
:1044B0000400002054545478007F484444380038A5
:1044C0004444442000384444487F0038545454182D
:1044D00000087E0901020018A4A4A47C007F08043F
:1044E00004780000447D4000004080847D00007F0F
:1044F000102844000000417F4000007C041804782C
:10450000007C0804047800384444443800FC242427
:1045100024180018242418FC007C0804040800480F
:104520005454542000043F444020003C4040207C30
:10453000001C2040201C003C4030403C004428101F
:104540002844001CA0A0A07C004464544C441414D3
:1045500014141414000080404080000000FE03008A
:104560000003FC0000FF00000000FF00000007083F
:104570000807000000000080C000000000000101EA
:10458000FF00000000000000FF0000000000080C19
:104590000F0800000000804040C00000001F000025
:1045A00000C03F000080601806018000000F0C0C66
:1045B0000C0C0F000000C04040800000000F000005
:1045C000807F0C0000C000010102FC000003040811
:1045D000080601000000000000C000000000E01C10
:1045E00003FF0000001E111010FF10000000000863
:1045F0000C0F08000000C0C0C0C0C00000FF804019
:1046000040C0000000E300000001FF0000030408B8
:10461000080601000000804040C0000000FC83400C
:1046200040C3030000FF01000000FF000001070875
:104630000804030000C0C0C0C0C0C00000070000E4
:10464000C03C0300000000FC030000000000000F5D
:10465000000000000000C04040800000003FE080FB
:1046600000C03F0000FC0301030EF8000003040833
:10467000080403000000C0404080000000FF00006C
:104680000001FE000003060404C37F0000030F08BE
:104690000403000000000000000000000000000013
:1046A00000000000000000F80000000000000033DF
:1046B0003000000000100C06100C06000000000086
:1046C0000000000040C07840C0784000043F04046F
:1046D0003F040400007088FC08300000001820FF30
:1046E000211E0000F008F000E018000000211C036B
:1046F0001E211E0000F00888700000001E212324E7
:104700001927211010160E00000000000000000004
:1047100000000000000000E0180402000000000794
:104720001820400000020418E0000000004020189B
:1047300007000000404080F0804040000202010F6E
:1047400001020200000000F0000000000101011F52
:1047500001010100000000000000000080B07000B6
:104760000000000000000000000000000001010146
:1047700001010101000000000000000000303000D5
:1047800000000000000000008060180400601806AF
:104790000100000000E010080810E000000F1020E9
:1047A00020100F00001010F8000000000020203F33
:1047B00020200000007008080888700000302824BD
:1047C000222130000030088888483000001820205E
:1047D00020110E000000C02010F800000007042483
:1047E000243F240000F808888808080000192120C8
:1047F00020110E0000E0108888180000000F112022
:1048000020110E0000380808C83808000000003FDA
:10481000000000000070880808887000001C222139
:1048200021221C0000E010080810E00000003122E6
:1048300022110F00000000C0C00000000000003086
:1048400030000000000000800000000000008060D8
:104850000000000000008040201008000001020459
:104860000810200040404040404040000404040440
:1048700004040400000810204080000000201008FC
:1048800004020100007048080808F0000000003031
:1048900036010000C030C828E810E00007182724BF
:1048A00023140B000000C038E0000000203C23026D
:1048B0000227382008F8888888700000203F2020D0
:1048C00020110E00C0300808080838000718202002
:1048D0002010080008F808080810E000203F2020F9
:1048E00020100F0008F88888E8081000203F2020DA
:1048F0002320180008F88888E8081000203F2000CE
:1049000003000000C0300808083800000718202005
:10491000221E020008F808000008F808203F2101C4
:1049200001213F20000808F8080800000020203F6F
:104930002020000000000808F8080800C0808080DF
:104940007F00000008F888C028180800203F2001D8
:104950002638200008F8080000000000203F202032
:104960002020300008F8F800F8F80800203F003F49
:10497000003F200008F830C00008F808203F200061
:1049800007183F00E01008080810E0000F10202072
:1049900020100F0008F808080808F000203F210147
:1049A00001010000E01008080810E0000F1824249E
:1049B00038504F0008F8888888887000203F200011
:1049C000030C3020007088080808380000382021C7
:1049D00021221C00180808F8080818000000203FD1
:1049E0002000000008F808000008F808001F202038
:1049F00020201F000878880000C838080000073809
:104A00000E010000F80800F80008F800033C070059
:104A1000073C0300081868808068180820302C03C1
:104A2000032C30200838C800C83808000000203F98
:104A30002000000010080808C83808002038262187
:104A400020201800000000FE020202000000007F8B
:104A500040404000000C30C0000000000000000199
:104A60000638C00000020202FE0000000040404084
:104A70007F000000000004020202040000000000A9
:104A80000000000000000000000000008080808026
:104A9000808080800002020400000000000000000E
:104AA00000000000000080808080000000192422A7
:104AB00022223F2008F8008080000000003F1120E3
:104AC00020110E000000008080800000000E1120E8
:104AD00020201100000000808088F800000E1120C6
:104AE00020103F200000808080800000001F2222D4
:104AF00022221300008080F0888888180020203F40
:104B0000202000000000808080808000006B949452
:104B10009493600008F8008080800000203F21000E
:104B200000203F2000809898000000000020203FD7
:104B300020200000000000809898000000C08080C5
:104B4000807F000008F8000080808000203F240261
:104B50002D302000000808F8000000000020203F51
:104B6000202000008080808080808000203F200006
:104B70003F20003F8080008080800000203F210097
:104B800000203F200000808080800000001F202047
:104B900020201F00808000808000000080FFA12076
:104BA00020110E000000008080808000000E112087
:104BB00020A0FF80808080008080800020203F2116
:104BC00020000100000080808080800000332424C9
:104BD00024241900008080E0808000000000001F75
:104BE000202000008080000000808000001F202026
:104BF00020103F20808080000080808000010E30E7
:104C00000806010080800080008080800F300C0347
:104C10000C300F0000808000808080000020312E4A
:104C20000E312000808080000080808080818E7026
:104C30001806010000808080808080000021302CD8
:104C40002221300000000000807C020200000000F1
:104C5000003F404000000000FF0000000000000096
:104C6000FF0000000002027C800000000040403F86
:104C70000000000000060101020204040000000020
:104C80000000000004000008000000000000000216
:104C90000001000010000000000000000000000003
:104CA0003031323334353637383941424344454662
:104CB000403058003031323334353637383961625C
:104CC00063646566403078003031323334353637CE
:104CD000383961626364656678700030313233342C
:104CE0003536373839414243444546585000000074
:104CF00002400000000000A000000000054000008D
:104D0000000000C8000000000C4000000000409CB3
:104D100000000000194000000020BCBE00000000A0
:104D200034400000BFC91B8E00000004B5400000E5
:104D3000504BCFD06607E2CF010000006C4100006D
:104D40003E8251AADFEEA73401000000D9420000E4
:104D5000DCB5A0E23A301F97FFFFFFFFB44500002B
:104D6000FD25A0C8E9A3C14FFFFFFFFFFF3F0000E3
:104D70000000008000000000FF3F000000000080F5
:104D800000000000D04E0008000000206804000071
:104D9000C4010008304F000868040020A02C000067
:104DA000200200081C00000043000000F8FFFFFF85
:104DB0000C0000000E0000000F0000002E0000009C
:104DC0001001000043000000F8FFFFFF00404040DA
:104DD00040404040404041414141414040404040CE
:104DE000404040404040404040404040400502027A
:104DF0000202020202020202020202020220202039
:104E00002020202020202002020202020202909094
:104E10009090909010101010101010101010101092
:104E200010101010101010100202020202028888E6
:104E300088888888080808080808080808080808F2
:104E400008080808080808080202020240000000DA
:104E50000000000000000000000000000000000052
:104E60000000000000000000000000000000000042
:104E70000000000000000000000000000000000032
:104E80000000000000000000000000000000000022
:104E90000000000000000000000000000000000012
:104EA0000000000000000000000000000000000002
:104EB00000000000000000000000000000000000F2
:104EC00000000000000000000000000000000000E2
:104ED000412D01020304045506070809847A030AD8
:104EE000B918000EFF6D61696E20676F20776869E1
:104EF0006C65710010FF55415254312073656E642A
:104F00002064617461210010F555415254322073C0
:104F1000656E64206461746132010010FF55415276
:104F200054332073656E6420646174612100000055
:040000050800018965
:00000001FF
